:400000000080002011000000910200009102000010B500F037FB00F043F9C04670B512221D4B1A6000F0A8FD1C4800F0B9FE012000F0C2FD302000F0B9FC194A194B1A60EF
:40004000194C8025ED052560184A116802230B431360174A174B1A600022174B1A60174A136808218B431360FA20C00000F050FD134800F091FC80221206124B1A6080229B
:40008000D202114B1A601149082000F067FC082000F058FC256070BD30001040001BB7000600008004010B400C020B4078002E40666600007C002E4064F02E406CF02E40FA
:4000C000DC05000008010B4000010B40D10C000010B572B60022274B1A6000240FE026486200131959000B00411889881A5AC31858880004104300F0C5F80134E4B2012C9F
:40010000EDD91D4801000C31303000F091F81B4A1B4B1A601B4A1C4B1A6099231B041B4A1360A221C9031A4A11601A4A13601A4A1A4B1A601A490B783C229343142213431B
:40014000DBB20B70174A117816230B43DBB213700222154B1A60154A154B1A602222154B1A60154A154B1A60FFF758FF00F07AF810BDC0466CF02E40480E0000300000EEA8
:4001800000000240300030000001024000500F4008500F4010500F4000000C0C18500F4001700F4000700F40000004402000D80008000440000104402000020008010440DB
:4001C00010B5064C2378002B07D1054B002B02D0044800E000BF0123237010BD5801002000000000440E0000084B10B5002B03D00749084800E000BF07480368002B00D1B8
:4002000010BD064B002BFBD09847F9E7000000005C010020440E0000C80000200000000010B5052000F0A6FD00F088FAFEE7C046F0B50025002711E0BB00C658F3B2FF22D9
:40024000964308E06A008A181478A419527822700135013BDBB2002BF4D10137042FEBD9F0BDC0460323044A1360044A13600022034B1A607047C0463000304030003140AB
:40028000000E3F4010B50A00002100F0CEFD10BD10B500F095FD03680C2B00D1FEE7FEE770B50F4E0F4D13E029686B68AC68002202E001C901C30432A242FAD1E868002283
:4002C00002E0002102C304328242FAD11035013E002EE9D100F07AFDFFF7A2FFFEE7C04601000000140F000010B5114A136801218B43136000230AE0032B03D89A000D49F4
:40030000505800E00C4899000C4A885001332F2BF2D9FFF7DDFE0A4B1B68002B02D10022074B1A60024A116801230B43136010BD00001040000000009102000000000020B2
:40034000C00000200047C04610B5C0B00C000102002304E05A5C6846C25401339BB2FF2BF8D96946200000F051FA40B010BDC04610B58022024B1A6000F002FB10BDC04654
:40038000C000002070B5C0B0050AFF2304009C43002304E01A5D6E46F25401339BB2FF2BF8D9FF2318406B461B5C8B4206D06B4619542804000C694600F028FA40B070BD47
:4003C00070B50500012812D80EE0611B4B425941C9B223061B1B1802054B9C466044FFF7D1FF0134E4B200E00024012CEDD970BDD0FF030010B50C2863D88000404B1B582C
:400400009F460B06591A0B023E4A9446634401225CE00B06591A0B023B4A94466344042254E00B06591A0B02384A9446634402224CE00B06591A0B02354A94466344042252
:4004400044E00B06591A0B02324A9446634401223CE00B06591A0B022F4A94466344012234E00B06591A0B022C4A9446634402222CE00B06591A0B02294A94466344022268
:4004800024E00B06591A0B02264A9446634402221CE00B06591A0B02234A94466344042214E00B06591A0B02204A9446634401220CE00B06591A0B021D4A944663440422D3
:4004C00004E0002000F048FA02220023012A02D11878C0B200E00020022A03D11978587800020843042A09D11A785878000210439A7812041043DB781B06184310BDC046F5
:400500008C0E0000C0FF0300C1FF0300C5FF0300C9FF0300D0FF0300D1FF0300D6FF0300D2FF0300D4FF0300D8FF0300DCFF0300E0FF0300F0B557464E464546E0B4C0B0E4
:4005400001210B20FFF756FFC3B2994600210320FFF750FF80B2013086B2384FBF1B7F08F719BBB29A4601210420FFF743FF030A9BB29846FF23034203D0434601339BB22C
:400580009846002700251BE003245346E81880B2A91989B2FFF7D8FE0700013CE4B2002801D0002CF1D1002F08D00123494699432348FFF7E7FE002000F0CEF90135ADB252
:4005C0004545E1D3002F08D026E01E4A9A1812786946CA5401339BB200E00023FF2BF4D90123DC2269468B540021174A1170D02269468B5401328B54104800F007F9040033
:40060000802252000021684600F00FFC69460F4800F0FCF804432700002F05D180220C4B1A6000F0ADF902E0002000F095F940B01CBC90469946A246F0BDC046FF030000FC
:40064000DCFE030000FE0300CC000020FE030000C000002010B500210520FFF7CBFEC4B201210520FFF7C6FEC0B2002C02D0002804D106E0002803D0012002E0032000E03A
:40068000022010BD70B5104B1B68DB0602D400220E4B1A600D4B1B68802B13D1FFF7DAFF04000022094B1A6001000220FFF7A2FE002807D0012C05D821000220FFF79AFEDC
:4006C000FFF740FE70BDC04600030B40C000002070B5050001000320FFF78CFE441C240229000420FFF786FE2418012D1FD829000320FFF77FFE013000020023002608E0C6
:4007000001784A1ED2B2FD2A00D801265B18DBB20130A042F4D35B42DCB229000120FFF769FE844205D1002E05D1062004E0062002E0062000E0002070BDC04670B5012130
:400740000B20FFF757FEC30701D5FFF7F3FE0020FFF7BEFF05000120FFF7BAFF06000222274B1A7000210520FFF744FE01280DD1002D04D10022224B1A70002409E0002ED3
:4007800006D101221E4B1A70002402E0062400E006241B4B1B78022B12D101210520FFF729FE01280CD1002E04D10122144B1A70002405E0002D03D10022114B1A7000245A
:4007C0000F4B1B78022B0CD1002D04D100220C4B1A70002405E0002E03D10122084B1A700024002C04D1064B1878C0B2FFF7E8FD002C02D0002000F0AFF8FFF7B9FD70BD11
:40080000CC000020002070470020704730B5C5B004000023439342933D4B984272D8002970D08022520002A800F0F6FA394B9C4201D9394B00E0394B0093FF230193384B6F
:400840006A461A603749384A1160C0461B681B0F1B07F0221206934204D1314B1B68FF2213400DE02E4B1B681B0F1B07A0221206934204D02A4B1B68FF22134000E0002398
:400880004393439B002B3FD100F093FA0500FFF7B9FF4290439B002B25D1244A0092009A2404144300941E4A6946116020481E490860C0461268120F1207F02109068A4236
:4008C00004D1174B1B68FF2213400BE0144A1268120F1207A02109068A4203D0104B1B68FF2213404393429B002B07D1FFF78CFF4290429B002B01D0429B4393280000F05F
:400900005CFA01E004234393439845B030BDC046FF030000FF010000B6D70001B6D70000080010400400008004001040B6D8000005000080024B1B68012018407047C0465A
:400940000C002E401F2318401E3B8340014A13607047C04600E100E001BE704770B504000D001F2802D90020FFF7F6FF1034A40080239B059C4664442068256070BDC0463D
:40098000034A13681B041B0C02490B43136070470CED00E00400FA0510B5034B1B7B584300F0FEF910BDC046D8000020F0B557464E46C0B483B0040000F0FBF90190E71E99
:4009C0002D2F74D83F4B1B78DBB29C4208D83E4B1B78DBB29A463D4B1B78DBB2994631E03B4B1B78DBB29C4208D83A4B1B78DBB29A46394B1B78DBB2994623E0374B1B7842
:400A0000DBB29C4208D8364B1B78DBB29A46354B1B78DBB2994615E0334B1B78DBB29C4208D8324B1B78DBB29A46314B1B78DBB2994607E02F4B1B78DBB29A462E4B1B78B5
:400A4000DBB299462D4BDE5D2F2E09D92A2C07D919222B4B1A60052000F0A2F9192503E0274B1D683F231D40B54206D9234BDA5D234B1A60052000F093F91F4B9C46644438
:400A80002378DBB21F4A13601F4B52461A601F4B4A461A600520FFF77FFFB5420AD2174BDA5D174B1A60052000F07AF902E00020FFF752FF019800F080F903B00CBC91463C
:400AC0009A46F0BD40F3FF0F41F3FF0F42F3FF0F43F3FF0F44F3FF0F45F3FF0F46F3FF0F47F3FF0F48F3FF0F49F3FF0F4AF3FF0F4BF3FF0F4CF3FF0F4DF3FF0FC00E0000B2
:400B00002CFF0B4028FF0B401CFF0B4020FF0B4010B504000F4A116801230B4313600E4A0E4B1A600E4A1368802109020B431360002809D100200CE00120FFF72DFFFFF7CB
:400B4000F9FE002804D1013C002CF5D1102000E0002010BD60F02E400220000078002E4010002E40034B1868C0231B02184000D00120704700010B4010B50D4B1A68012136
:400B80008A431A601A68022082431A60094A10683024A043203C204310601068093CA043014311601A68802109060A431A6010BD00F02E4000FF2E4070B51D4B1B680124BF
:400BC0001C40002802D0012816D02BE0184B19680122914319601968022081431960154B19682E3081432038014319601968093881430A431A6018E00D4B1A6802218A432A
:400C00001A600C4A10680725A84301431160116830208143103801431160196801220A431A6002E00020FFF797FE200070BDC04600F02E4000FF2E4010B500F0BAF8044A4B
:400C40001368C02109020B43136000F0B6F810BD00010B4010B500F0ACF808490A68084B1A408024E40122430A600A6813408022120213430B6000F0A0F810BD00010B4097
:400C8000FF3FFFFF70B5050000F093F80400FFF769FF002803D0FFF7DDFF012100E0002108482840084A1568084B2B40184310601368012901D1FFF7BFFF200000F07DF841
:400CC00070BDC0460404040010020B40FBFBFBFF10B5244B1B685B0715D5234B5B685B070ED5224B596A042001401F4C62688A4362605A6A82435A629B69002B00D0984773
:400D00000420FFF7BFFF174B1B685B0518D5164B5B685B0510D5154B596A8022D2001140114842688A434260596A114A0A405A62DB69002B00D098478020C000FFF7A2FFAD
:400D4000084B1B685B030CD5074B5B685B0304D5064B1B6A002B00D098478020C002FFF791FF10BD10020B40EC00002074010020FFFBFFFF10B507238343180000F004F8FE
:400D800000F008F810BDC046014B18707047C04672000F40014B1878C0B2704772000F400230800803D00138FDD1C046C046C0467047EFF3108072B6704780F310887047E8
:400DC000014B18687047C046540100200E4B70B500251E000D4CE41AA410A54204D0AB00F35898470135F8E700F082F8084B00251E00084CE41AA410A54204D0AB00F358CD
:400E000098470135F8E770BDFC0E0000FC0E0000FC0E0000040F0000002310B59A4203D0CC5CC4540133F9E710BD03008218934202D019700133FAE77047000000100000FF
:400E40004D0000000000000000300F40000400400F40000472075B045F016EA06F2086508B20E2805320D4205F40670887608B04A720D620D880E65001000F4002320F404E
:400E800005330F4002400F4008410F40C204000002040000120400002204000032040000420400005204000072040000620400008204000092040000A2040000B204000054
:400EC000030405060708090A0B0C0E0F101112131415161718191B1C1D1E1F2021222325262728292A2B2E2F3031323334354300F8B5C046F8BC08BC9E467047E90100000F
:400F0000E9020000F8B5C046F8BC08BC9E467047C1010000280F0000C800002090000000480000000000000000000000020000003C0E0000400E0000010000000000C05D8F
:400F400080BB000030000000006CDC02F0000000040404000000000000000000000000000000000000000000000000000000000000000000EE0E00000000000000000000C4
:400F800000000000000000000000000000000000000000000000000000000000000000000000000000000000000000000000000000000000F400002000000000000000001D
:400FC00000000000000000000000000000000000000000000000000000000000000000000000000000000000000000000000000000000000000000000000000000000000F1
:401000000080002011100000491300004913000010B5024B83F3088800F0B8F90080002070B512221D4B1A6001F0C8F81C4801F063FD012001F0E2F8302000F0D9FF194AD6
:40104000194B1A60194C8025ED052560184A116802230B431360174A174B1A600022174B1A60174A136808218B431360FA20C00001F070F8134800F0B1FF80221206124B8A
:401080001A608022D202114B1A601149082000F06FFF082000F060FF256070BD30001040001BB7000600008004010B400C020B4078002E40666600007C002E4064F02E4082
:4010C0006CF02E40DC05000008010B4000010B401523000010B572B60022274B1A6000240FE026486200131959000B00411889881A5AC31858880004104300F01FF90134D2
:40110000E4B2012CEDD91D4801000C31303000F0EBF81B4A1B4B1A601B4A1C4B1A6099231B041B4A1360A221C9031A4A11601A4A13601A4A1A4B1A601A490B783C2293437A
:4011400014221343DBB20B70174A117816230B43DBB213700222154B1A60154A154B1A602222154B1A60154A154B1A60FFF758FF00F0D4F810BDC0466CF02E40C4D501008C
:40118000300000EE00000240300030000001024000500F4008500F4010500F4000000C0C18500F4001700F4000700F40000004402000D800080004400001044020000200FA
:4011C0000801044010B5064C2378002B07D1054B002B02D0044800E000BF0123237010BDF00600200000000008D50100084B10B5002B03D00749084800E000BF074803682E
:40120000002B00D110BD064B002BFBD09847F9E700000000F406002008D50100C80000200000000010B5022000F0E0FD62B601F0D5F801F0C1F8054800F010F800F03CFA60
:4012400002F02AF9052000F0B7FAF9E77512000010B5002001F054F910BDC04600B583B001F0D6F8002802D1684602F0F1F803B000BDC04610B584B02D282DD88000174B60
:401280001B589F46FFF7E4FF26E0154B58780122002112F02DF91FE002AC0822200001F0BEFF6388062B17D906236A461380538000239380FA239B00D380094B1878694697
:4012C00010F002F808E0FFF7C3FF05E0054B1B78042B01D1FFF7BCFF04B010BD0CD50100E4180020DC180020F0B50025002711E0BB00C658F3B2FF22964308E06A008A18F9
:401300001478A419527822700135013BDBB2002BF4D10137042FEBD9F0BDC0460323044A1360044A13600022034B1A607047C0463000304030003140000E3F4010B50A004B
:40134000002101F075FF10BD10B501F019FF03680C2B00D1FEE7FEE710B50300094A1068C318094A9A1A942189018A4202DC054A136005E001F004FF0C23036001204042E1
:4013800010BDC046CC000020F018002070B50F4E0F4D13E029686B68AC68002202E001C901C30432A242FAD1E868002202E0002102C304328242FAD11035013E002EE9D11B
:4013C00001F0E4FEFFF72EFFFEE7C04601000000F8D9010010B5114A136801218B43136000230AE0032B03D89A000D49505800E00C4899000C4A885001332F2BF2D9FFF743
:4014000069FE0A4B1B68002B02D10022074B1A60024A116801230B43136010BD00001040001000004913000000000020C0000020002306E04218013A12789B189BB20139EC
:4014400089B20029F6D1584280B2704730B5002307E01C182478E4B2CD5CAC4205D101339BB29342F5D3002000E0022030BDC046F0B583B00D006B469E1DDA8001230B70FF
:4014800048701400AA70130ACB70171DB9B22800FFF7CEFFE855631D000AE854A31D1722EA540734A1B296233200280001F0BEFA03B0F0BD70B505000E001400002802D03A
:4014C000002000F053FD002004E0013CAB19E35CC018C0B2002CF8D170BDC04670B5C0B00500000AFF232C009C43002304E01A5D6E46F25401339BB2FF2BF8D9FF231D4092
:401500006B4659550004000C694600F089FC40B070BDC04670B50500012811D80DE0611B4B425941C9B220024042064B9C466044FFF7D4FF0134E4B200E00024012CEED9A7
:4015400070BDC046D0FF030010B50C2863D88000404B1B589F460B06591A0B023E4A9446634401225CE00B06591A0B023B4A94466344042254E00B06591A0B02384A9446F8
:40158000634402224CE00B06591A0B02354A94466344042244E00B06591A0B02324A9446634401223CE00B06591A0B022F4A94466344012234E00B06591A0B022C4A9446E9
:4015C000634402222CE00B06591A0B02294A94466344022224E00B06591A0B02264A9446634402221CE00B06591A0B02234A94466344042214E00B06591A0B02204A944657
:40160000634401220CE00B06591A0B021D4A94466344042204E0002000F0A8FC02220023012A02D11878C0B200E00020022A03D11978587800020843042A09D11A7858785E
:40164000000210439A7812041043DB781B06184310BDC04608D60100C0FF0300C1FF0300C5FF0300C9FF0300D0FF0300D1FF0300D6FF0300D2FF0300D4FF0300D8FF030001
:40168000DCFF0300E0FF030010B500210520FFF75BFFC4B201210520FFF756FFC0B2002C02D0002804D106E0002803D0012002E0032000E0022010BD10B50D4B1B79002BE8
:4016C00014D1FFF7E1FF0B4B58705B78022B0AD0084B5B78032B06D0064B5A781A700122034B1A7102E00222024B1A7010BDC0460C070020D000002070B505000100032043
:40170000FFF722FF441C240229000420FFF71CFF241829000320FFF717FF421C12020023002608E01078411EC9B2FD2900D801261B18DBB20132A242F4D35B42DCB22900FE
:401740000120FFF701FF844203D1002E03D1062002E0062000E0002070BDC046F0B5474680B40500884617001E00012817D801000320FFF7E9FE013084B201210320FFF72C
:40178000E3FE80B2BC4201D8B8420AD24346012B09D10848401B864207D0002006E00D2004E00D2002E0002000E00D2004BC9046F0BDC046FF030000F0B55F464E46454689
:4017C000E0B4CB4CA544070001210220FFF7BCFE009001F013F962B60A2400239946002F01D1FF2300E03B00C24A02A98C4662449621490052A801F04DF9002F01D0013CAA
:40180000E4B2002C01D00028E9D1002800D0CFE2B84B02AA944663441B88062B24D952AA1278012A22D152A9CA78120289780A439146110007329A421AD896235B009A4267
:4018400018D84A1D52AB9D5C2A02081D1D5C154306315B5C172B0FD181B252A8FFF7E8FD85420BD100260AE0042608E0042606E0032604E0032602E0042600E00826002E8E
:4018800000D030E252AB1A7993465A781300313BD9B2142900D9F4E18B009749CB589F46964B5B79012B00D01FE24B46012B00D01EE25B46012B00D91DE25846FFF71CFF10
:4018C000002800D01AE25B461B065A469B1A19028B4B9C466144382253A801F0A0FC562262E2864B5B79012B00D00AE24B46002B00D009E2834B5878C0B2FFF7FDFE43423D
:40190000434152AA137101224EE27C4B5B79012B00D0FCE14B46032B04D00423FF33994500D0F7E152AA95792B0255791D434B46032B08D0DA1E4821FF3102AB9C466144A9
:4019400007A801F06CFC5B46012B00D9E5E15802401900026C4B9D4200D90A26002E00D0DEE18022520007A9FFF770FD060000221AE2624B5B79012B00D0D3E14B46012BC9
:4019800000D0D2E15B46012B00D9D1E100210320FFF7DAFD83B20004400E834502D1DB05DB0D05E0834501D9002301E080239B0052AA13711B0A5371FF239371FE3BD3717C
:4019C0000422F1E14D4B5B79012B00D0B3E14B46012B00D0B2E15846FFF78EFE52AD287159460520FFF7B0FD68710222DCE1342A0FD1424B5B79012B00D0A2E14B46032B1D
:401A000000D0A1E1CC323D4BDA80002107A801F00FFC3A4B5B79012B00D098E14B46022B00D897E1354BDD8807AB58194B46DA1E4821FF3102AB9C46614401F0F0FB2B0067
:401A40004B44033B9BB28022520093425ED152AB9D792D025B791D43284BDD802A4B9D4200D90A26002E00D077E15B465B029BB2ED18ADB2234B1B78002B05D10121032065
:401A8000FFF762FD80B204E000210320FFF75CFD80B2013080B2854207D20022174BDA8080235B0099460A267EE1009B002B17D0144B5B78DBB2012B12D8124B5878C0B288
:401AC0000E4BDB882A005946FFF748FE0D2807D100220A4BDA80060080235B00994663E107A9280000F09CF9002810D00A260EE088FDFFFF6E0200003CD601000C07002064
:401B0000C0FF0300D0000020FF01000003260022AF4BDA8080235B00994645E1AC4B5B79012B00D01EE10022A94BDA8040E1A84B5B79012B00D018E14B46012B00D017E1B9
:401B40005846FFF7D9FD002800D014E15846FFF7E1FCA04B5A465A70002225E19C4B5B79012B00D00AE19A4BDD884B465A1996235B009A4200D904E107AB58194A4653A9D3
:401B800001F04DFB4D44924BDD8000220CE14B46002B00D0F8E004AA8F4B03CB03C28C4B01221A725A710022DA8053AA04AB03CB03C20822F8E0864B5B79012B00D0E6E01E
:401BC0004B46032B00D0E5E052AA93791B0255791D435B46590249190902804B9D4200D90A26002E00D0D8E0802252000020FFF761FC020001905B465B029BB2EB189BB2D7
:401C0000594601291AD17649591889B2012915D8744A9D186B1E9D41EDB229000520FFF793FCC0B2019B1B1ADBB2984629000620FFF78AFCC2B243469A1AD2B2524252ABE3
:401C40001A710122B0E001210B20FFF77DFCC30703D54022644B1A6009E05E4B5878C0B2FFF74AFD002802D180225F4B1A600022574B1A7200F0C4FE00F08CF904260022A8
:401C800092E0534B1B689846002B00D187E0504B5B79012B00D085E002AB1A704A465A8053AD03950C22002104A801F0C1FA04AE0695310002A8C047B2882623FF339A42E0
:401CC00003D953AB0699994207D0069B002B01D1002A05D1049BDEB266E00E26002263E00E26002260E000225EE0042600225BE00426002258E00C26002255E00C2600222F
:401D000052E0042600224FE0042600224CE00426002249E00426002246E00926002243E0002241E0042600223EE0042600223BE00426002238E00426002235E004260022FE
:401D400032E0042600222FE0042600222CE00426002229E00426002226E080235B009946002221E0042600221EE0042600221BE00426002218E00C26002215E0042600228D
:401D800012E0032600220FE0042600220CE00426002209E00426002206E0002204E00526002201E00526002252A93000FFF760FB002F00D113E5064B5B79012B00D10EE54E
:401DC0009E239B009D441CBC90469946A346F0BD0C070020D000002090D60100FF01000002FCFFFF01FCFFFFC000002010B507238343180000F004F800F008F810BDC046A6
:401E0000014B18707047C04672000F40014B1878C0B2704772000F40002070470020704730B5C5B004000023439342933D4B984272D8002970D08022520002A801F0EFF924
:401E4000394B9C4201D9394B00E0394B0093FF230193384B6A461A603749384A1160C0461B681B0F1B07F0221206934204D1314B1B68FF2213400DE02E4B1B681B0F1B0784
:401E8000A0221206934204D02A4B1B68FF22134000E000234393439B002B3FD100F035FE0500FFF7B9FF4290439B002B25D1244A0092009A2404144300941E4A6946116065
:401EC00020481E490860C0461268120F1207F02109068A4204D1174B1B68FF2213400BE0144A1268120F1207A02109068A4203D0104B1B68FF2213404393429B002B07D163
:401F0000FFF78CFF4290429B002B01D0429B4393280000F0FEFD01E004234393439845B030BDC046FF030000FF010000B6D70001B6D70000080010400400008004001040C1
:401F4000B6D8000005000080024B1B68012018407047C0460C002E401F2318401E3B8340014A13607047C04600E100E001BE704770B504000D001F2802D90020FFF7F6FF03
:401F80001034A40080239B059C4664442068256070BDC046034A13681B041B0C02490B43136070470CED00E00400FA0510B5040006E0084B586800F09FFD074B9C46644455
:401FC00080231B029C42F4D8024B9868604300F093FD10BDD40000200080FFFF10B5034B1B7B584300F088FD10BDC046D4000020F0B557464E46C0B483B0040000F085FD55
:402000000190E71E2D2F74D83F4B1B78DBB29C4208D83E4B1B78DBB29A463D4B1B78DBB2994631E03B4B1B78DBB29C4208D83A4B1B78DBB29A46394B1B78DBB2994623E06A
:40204000374B1B78DBB29C4208D8364B1B78DBB29A46354B1B78DBB2994615E0334B1B78DBB29C4208D8324B1B78DBB29A46314B1B78DBB2994607E02F4B1B78DBB29A4656
:402080002E4B1B78DBB299462D4BDE5D2F2E09D92A2C07D919222B4B1A60052000F02CFD192503E0274B1D683F231D40B54206D9234BDA5D234B1A60052000F01DFD1F4B44
:4020C0009C4664442378DBB21F4A13601F4B52461A601F4B4A461A600520FFF77FFFB5420AD2174BDA5D174B1A60052000F004FD02E00020FFF73AFF019800F00AFD03B0F7
:402100000CBC91469A46F0BD40F3FF0F41F3FF0F42F3FF0F43F3FF0F44F3FF0F45F3FF0F46F3FF0F47F3FF0F48F3FF0F49F3FF0F4AF3FF0F4BF3FF0F4CF3FF0F4DF3FF0F8A
:4021400098D601002CFF0B4028FF0B401CFF0B4020FF0B4010B504000F4A116801230B4313600E4A0E4B1A600E4A1368802109020B431360002809D100200CE00120FFF728
:402180002DFFFFF7E1FE002804D1013C002CF5D1102000E0002010BD60F02E400220000078002E4010002E40034B1868C0231B02184000D00120704700010B4010B50D4B7A
:4021C0001A6801218A431A601A68022082431A60094A10683024A043203C204310601068093CA043014311601A68802109060A431A6010BD00F02E4000FF2E4070B51D4B6D
:402200001B6801241C40002802D0012816D02BE0184B19680122914319601968022081431960154B19682E3081432038014319601968093881430A431A6018E00D4B1A681B
:4022400002218A431A600C4A10680725A84301431160116830208143103801431160196801220A431A6002E00020FFF77FFE200070BDC04600F02E4000FF2E4010B500F01D
:4022800044FC044A1368C02109020B43136000F040FC10BD00010B4010B500F036FC08490A68084B1A408024E40122430A600A6813408022120213430B6000F02AFC10BD55
:4022C00000010B40FF3FFFFF70B5050000F01DFC0400FFF769FF002803D0FFF7DDFF012100E0002108482840084A1568084B2B40184310601368012901D1FFF7BFFF200076
:4023000000F007FC70BDC0460404040010020B40FBFBFBFF10B5244B1B685B0715D5234B5B685B070ED5224B596A042001401F4C62688A4362605A6A82435A629B69002BD8
:4023400000D098470420FFF7BFFF174B1B685B0518D5164B5B685B0510D5154B596A8022D2001140114842688A434260596A114A0A405A62DB69002B00D098478020C0003F
:40238000FFF7A2FF084B1B685B030CD5074B5B685B0304D5064B1B6A002B00D098478020C002FFF791FF10BD10020B40E800002018070020FFFBFFFF10B50120FFF79CF9B3
:4023C000002808D1044B1B78002B04D1013000F0BFFBFFF7DFFD10BD14FE030010B5044B1B78002B03D101210148FFF777F810BD0AFF03000023034A1370034A1370034A0C
:4024000013707047E7180020E0180020E618002010B590B00400142228490BA800F0FFFE274B1B78002B04D1FFF7E4FF0122244B1A70002C3FD0234B1C60214B5B68002B44
:4024400008D1214800F0C8FE1D4B5860002803D0002002E0002000E00320002811D108A805AA426006AB0893002101811B311980598017391971082313701231694401F003
:4024800025F9002818D10E4B5968002302930193053300930BAB0D4A0D4801F06DF800280AD101220B4B1A701032FF3213210A4815F00AF800E0012010B010BDC8D60100D1
:4024C00040070020D4180020541200004410000075260000DC180020DCD6010010B500F0F9FF0022044B1A70044B5868002801D000F07CFE10BDC046DC18002040070020E5
:4025000010B5022834D81E4B1B78042B32D11D4B1B785B0731D400280CD11B4B1A004032C82149001182A022596C0A805B6CA0325A800EE001280CD1134B1A00403296213B
:402540001182C822D200596C0A805B6C8022D2015A800E4B18700C48403012F04DF900280DD1084A117804230B43DBB2137006E0012004E00420FF3001E00420FF3010BD15
:40258000DC180020E7180020F0000020E61800207047C04603784078000218437047C04670B5050083890F2B1FD1043031332A00002115F03BF8041E11D16868FFF7EAFF82
:4025C000830706D50A4B1B68290082204000984705E0074B1B6829000620FF309847054A137801218B43137000E00024200070BDD4180020E7180020024B00225A701A7011
:402600007047C046E418002010B582B00400FFF7C7FF0E4B1B78DB0702D5200000F06CF90A4B1B78DB070ED4002809D001A912238B70A3890B80C870206813F0E9FC02E028
:40264000206813F08BFD02B010BDC046E71800208379002B07D000200BE0C25C002A07D10133DBB200E00023052BF6D9002000E001207047F0B583B005000C008D4A117896
:4026800001230B43DBB21370502800D900E18300894AD3589F4601AE0727377000237370300003F08DFB377001237370300003F087FB00F0B1FE814B1E683000FFF7C8FF9A
:4026C00000280CD0300000F0EFFE7C4E00213068FFF75EFF30680121FFF75AFF2AE0784B1F78784B18788001FC263601020032403F2139401143744B1B781B03F8225202DA
:4027000013401943714B1B785B04FE22120413400B436F4E33701A0A72701B0CB370300000F0C2FE00213000FFF732FF01213000FFF72EFF032011F0E5FC01A83F23037065
:402740000023437011F0FCFC0422624B1A709FE02278614B1A709BE02378002B00D097E06378002B0CD15D4B1022DA800132FF329A805B4A12685B498C4662441A60636049
:402780004C4A137801218B43137081E0494B1B789B067DD4544B1B78102B02D10522524BDA70524B1878504911F0E4FF01AB1880002804D04E4B1B6801A9362098473D4A51
:4027C000117801230B43DBB2137061E00222414B1A705DE004223F4B1A7059E03D4B1B78022B55D0334A1278D20751D5314A1278520708D50322374B1A702E4A137804219C
:402800008B43137044E02B4A1278120708D50422304B1A70274A137808218B43137037E0032B35D104222B4B1A70324B1B78002B2ED10120FFF764FE002829D10322254BB2
:402840001A7025E002222100284800F0E8FC0022214B1A701CE0FFF7CFFE19E061882C23FF33994201D996214900208813F0DAFB0EE02000FFF7C8FE0AE00E4B1B78DB074F
:4028800006D5200000F07AF802E0200000F08EF8084B1A7811231A4209D0064A137801218B431370124B1B6821002800984703B0F0BDC046E718002080D80100440100205C
:4028C0007CF2FF0F7DF2FF0F7BF2FF0F78F2FF0F48010020DC180020E0180020480700204407002044100000E8020020E4180020D4180020E618002010B58389132B14D1E5
:402900004633FF33194AD358DB0207D5041D402302000021200014F089FE00E00620144A137801218B4313701EE0122B1BD1041D2E3302000021200014F078FEB2235B005B
:402940000A4AD3585A680B4B1A60D3781B029278094C1343073323800121A170044A13788B43137000E0002010BDC046DCD60100E7180020E81800205007002010B5436843
:402980001B89122B0DD1037A012B05D1012013F099FB0022034B1A80034A137801218B43137010BD50070020E718002043681A89122A1BD1427A012A13D11A680C4B1A60D5
:4029C000D3781B029278134307339BB2094A13800822FF32934201D9064B1A800122054B9A70054A137801218B4313707047C046E818002050070020E71800207047C046B3
:402A000010B5084B187810F05DFE002802D005E000F042FD044B1B78022BF9D0FFF75EFD10BDC046E4180020DC180020F0B585B006000C001500BC235B00144AD3585868D5
:402A4000FFF7A8FDC3071ED5B2235B000F4AD3585F6822003100380000F0E1FB01A98C80019712230B810A4A137850780002184313F016FB002801D12C8005E000232B80AC
:402A80000120404200E0042005B0F0BDDCD60100E4180020F8B507000D0016009A00D3185C001DE000F0F8FC114B9B78012B13D10F4B00229A701A88AA4209D20D4B19685E
:402AC000380000F0ACFB0A4B1B88338000240AE000233380062406E00120FFF767FA013C002CDFD1103400F0D7FC2000F8BDC04650070020E81800200230800803D0013898
:402B0000FDD1C046C046C0467047EFF3108072B6704780F31088704770B5C0B00500000AFF232C009C43002304E01A5D6E46F25401339BB2FF2BF8D9FF231D406B46595548
:402B40000004000C6946FFF76BF940B070BDC04670B5050001281DD80206121A1302104A944663441B78012B16D0002400260EE0611B4B425941C9B223061B1B1802084BE6
:402B80009C466044FFF7C8FF06430134E4B2012CEED902E0012600E00126300070BDC046D0FF030010B5FFF7B0FF044A136804218B43136030BFFFF7ACFF10BD10ED00E0B2
:402BC000F0B557464E464546E0B4C0B080460E0017008A18204B9A422FD80B0A99461C0200239C46002522E0B4420CD3BD420AD24246515D6A46D1542278D2B28A4200D0E2
:402C00000120013502E022786946CA540134013301E000200023FF2BE6D9002804D069464846FFF7FDF8844601239A46D144BD4205D26346002BECD001E001239C46634681
:402C4000012B02D901235B429C46604640B01CBC90469946A246F0BDFFFF03000160704701607047324B1A781202324B1B781A43314B1B781B02314909780B4330498B4276
:402C800001D1072A06D0D42109018B4206D1042A04D102E02B4B042200E02A4B2A490B602A4B1A602A4B1B781B022A4A1278134380229201934202D0002B02D002E0264B50
:402CC00000E0254B254A1360254B1B781B02254A12781343244A934205D0244A934204D0052B05D103E0224B02E0214B00E0204B204A1360204B1B681B09204A1268AA2A6E
:402D000015D1012B13D9164B1B780E2B0FD11C4B1B781B021B4A127813431B4A13601B4B1B781B021A4A127813431A4A1360704759F1FF0F58F1FF0F5FF1FF0F5EF1FF0F02
:402D4000580B0000580D00006C002E4074002E405BF1FF0F5AF1FF0F0220000078002E405DF1FF0F5CF1FF0F0F0F000005050000050F000080002E40EC0F00F0E00F00F069
:402D80006DF2FF0F6CF2FF0F84002E406FF2FF0F6EF2FF0F94002E4010B5FFF71FF910BD10B5FFF703F910BD10B500F051F810BD10B500F055F810BD10B500F051F8034862
:402DC00000F030F8032000F033F810BD8D2E000010B5024800F04CF810BDC0468D2E000000487047020200002B2070472B2070472B2070472B2070472B2070472B20704715
:402E00002B2070472B2070472B2070472B2070477047C0462B2070477047C0460120704701207047014B18677047C0460000002010B50400FFF769FE044A1368C0218B4318
:402E4000A4011C431460FFF764FE10BD0CE400E080225201014B1A607047C04600E100E080225201014B1A607047C04680E100E010B50400FFF7F4FF2000FFF7D3FF032036
:402E8000FFF7D6FFFFF7E4FF10BDC04610B51AF027FB10BD002243088B4274D303098B425FD3030A8B4244D3030B8B4228D3030C8B420DD3FF22090212BA030C8B4202D325
:402EC0001212090265D0030B8B4219D300E0090AC30B8B4201D3CB03C01A5241830B8B4201D38B03C01A5241430B8B4201D34B03C01A5241030B8B4201D30B03C01A52410C
:402F0000C30A8B4201D3CB02C01A5241830A8B4201D38B02C01A5241430A8B4201D34B02C01A5241030A8B4201D30B02C01A5241CDD2C3098B4201D3CB01C01A5241830920
:402F40008B4201D38B01C01A524143098B4201D34B01C01A524103098B4201D30B01C01A5241C3088B4201D3CB00C01A524183088B4201D38B00C01A524143088B4201D337
:402F80004B00C01A5241411A00D20146524110467047FFE701B5002000F0F0F802BDC0460029F7D076E7704703460B437FD4002243088B4274D303098B425FD3030A8B4298
:402FC00044D3030B8B4228D3030C8B420DD3FF22090212BA030C8B4202D31212090265D0030B8B4219D300E0090AC30B8B4201D3CB03C01A5241830B8B4201D38B03C01A20
:403000005241430B8B4201D34B03C01A5241030B8B4201D30B03C01A5241C30A8B4201D3CB02C01A5241830A8B4201D38B02C01A5241430A8B4201D34B02C01A5241030AA4
:403040008B4201D30B02C01A5241CDD2C3098B4201D3CB01C01A524183098B4201D38B01C01A524143098B4201D34B01C01A524103098B4201D30B01C01A5241C3088B4266
:4030800001D3CB00C01A524183088B4201D38B00C01A524143088B4201D34B00C01A5241411A00D201465241104670475DE0CA0F00D04942031000D34042534000229C46B8
:4030C00003098B422DD3030A8B4212D3FC22890112BA030A8B420CD3890192118B4208D3890192118B4204D389013AD0921100E08909C3098B4201D3CB01C01A524183098A
:403100008B4201D38B01C01A524143098B4201D34B01C01A524103098B4201D30B01C01A5241C3088B4201D3CB00C01A524183088B4201D38B00C01A5241D9D243088B429E
:4031400001D34B00C01A5241411A00D20146634652415B10104601D34042002B00D54942704763465B1000D3404201B5002000F005F802BD0029F8D016E770477047C0466D
:40318000014B18687047C046EC0600200E4B70B500251E000D4CE41AA410A54204D0AB00F35898470135F8E71AF014FC084B00251E00084CE41AA410A54204D0AB00F3589C
:4031C00098470135F8E770BDE0D90100E0D90100E0D90100E8D9010010B5034B0100186800F07AF810BDC046EC06002010B5034B0100186800F024F810BDC046EC0600205E
:4032000030B50024A24208D0035D651C0C5DA34201D0181B02E02C00F4E7002030BD002310B59A4203D0CC5CC4540133F9E710BD03008218934202D019700133FAE770474F
:4032400070B50500002944D00C1F2368002B00DAE418280000F0B2F81E4A13681100002B02D16360146031E0A3420DD92268A018834203D118685B688218226063600C6000
:4032800024E0A24203D813005A68002AF9D11E689819A0420BD12168711858181960824214D110685268411819605A600EE0A04202D90C232B6009E021686018824203D144
:4032C000106852684118216062605C60280000F076F870BDD0180020032370B5CD1C9D43083506000C2D01D20C2501E0002D01DBA94202D90C23336048E0300000F05EF8E5
:40330000234B1C681A002100002913D00B685B1B0DD40B2B02D90B60CC181EE08C4202D1636813601AE04B6863600C0016E00C004968E9E7174C2368002B03D1300000F041
:403340002BF820602900300000F026F8431C18D00323C41C9C43A0420DD12560300000F02EF8200007220B30231D9043C31A0ED05A42E2500BE0211A300000F00DF8431CC2
:40338000EBD10C233000336000F019F8002070BDD0180020CC180020002370B5064C050008002360FDF7D8FF431C03D12368002B00D02B6070BDC046EC1800207047704707
:4033C000134A1088810703D08107890F401A001D11791030484381B25088820703D08207920F801A001D800040180A494030098980B2CA0701D0503080B2890706D50449DE
:403400005422091F09785143081880B270470000F40200206007002010B502F03FF910BD10B502F01FFB10F07BF910BD10B502F021FB10F07DF910BD10B502F035F910BD9D
:4034400010B502F047F910BD10B502F05FF910BD0121002807D0FF213631C1800321018041800021818008467047000010B50848FF2400680534401C08D10648006800284A
:4034800004D102F0A7F9FE2800D00024204610BD88040020F005002010B500F093FA10BD10B502F0EDF910BD10B50749044609780220002907D1204602F028FA002802D1A6
:4034C000204611F00BF810BD9E04002010B502F04FFA10BD10B50CF06DFC02F0FBF802F0FFF9084C2078002801D000F075FA00F089FAFF2001F0A8FAFF2001F0B5FA0020C5
:40350000207010BDEE02002010B50CF053FC02F0E1F802F0E5F900F05FFA074908460C380CF02AFC002806D10CF04CFC002802D1024A0121117010BD60070020EE02002095
:4035400070B504460120002C12D02368002B0FD0616800290CD0074D06222889208118462968FFF75CFE6968606809780170002070BD000060070020FFB585B00027684620
:403580000E9D07734F481C460078002802D0082009B0F0BD10990F9801900095029105A807C800F001F90028F2D16946264603AB84460873002C19D0002115E08A00B75ABF
:4035C000082F09D990198078002805D0083FB7521878401C187005E0002914D00027B75290198770491CC9B2A942E7D360460028CED10F98002809D0109901F0EFFB002848
:4036000004D00120C4E701208446EFE702F062F82D480021416081600599016021888180022D07D3A1798171A17AC171A1890181218A418100211EE0481C19E082008B0018
:40364000A75AE65ABE46BE4211D26F463E80B4461E190296B678BE7001967646E6521719029EBB78B3706646A652019EBE70401CA842E3D3491CA942DED3134822460C306C
:4036800000906846037B0799069800F015F90028B8D168460B4C007B60700B480C3002F0C7F80028AED1084907480C310CF064FB0028A7D10CF086FB0028A3D10121217086
:4036C00066E70000EE02002054070020F8B5054633480E460078002802D002242046F8BD002E5BD000242F49002D16D02A89D0070DD02868002808D003881B3BE12B04D2B6
:403700004088FB2801D81B2801D2012409E0900707D56868002804D1F7E70020088108604860002CDAD11F482F8907811C481B21801D018041800421017119490020891C0F
:403740000870F80705D016480622801D2968FFF766FD1449B80703D56A681148127882700F480D46801D0860001F486002F0F4F80B48801D02F0E2F8288915F0D9FA28890B
:4037800015F06AFC03461033FFF71AFE1F21C018890140180249308088809FE701249DE7EE02002060070020FFB58446384F1C460020BB883F78054602460646002F11D1D0
:4037C00000290ED0029999420BD36146002908D0002C06D00A99002906D02E4B0B99994202D2012004B0F0BD002144E0AB001F19BF78002F3BD0E35A002B38D07B4359189C
:4038000089B22B0000F04AF8050410161C253100A7782388BC46FF27233BEB37BB4222D26346032B1FD322E0A388002B1FD0302B19D31CE02389002B19D0282B13D316E0AA
:40384000A289002A13D01346134F233BBB420AD20DE0268A002A0AD033460F4F233BBB4201D2964203D901200EE0002001E000280AD16D1CEDB2099B9D42B7D31C24634396
:403880005B1802998B42ACD89642AAD8AAE70000EE02002079020000BAFF000030B47446641E2578641CAB4200D21D46635D5B00E31830BC18470000FFB583B00024694600
:4038C0000C801F4606468C80002806D00598002803D004983043800701D0012466E0002FFBD03449049809888842F6D3FFF770FAFFF75EFA00F06AFC002855D100F0D4FDCD
:40390000002851D12C49084601F09CFA05042D0C4AD12A480499066081800021C18007810C98007AC00704D0684601F04BFF040007D10C98007A800703D501A801F06AFF38
:403940000446BF1DFEB2002C20D13146059800F085F804001AD115F08DFB040016D16A461088928808368518144AF1B29088D288AEB29319984207D3401B801A80B201F0E4
:4039800053FD050007D000E0FF25012400F0B6FA002D04D008E0F8B200F044F9F6E700F0D9FA07490120087000F022FC204607B0F0BD0000F2020020493B00006C070020C6
:4039C000FA02002010B503480078012801D101F0CDFB10BDFA02002010B500F003FE002803D100F009FC002801D0FF2010BD0448007A801DC0B200F02DF9002010BD000022
:403A00006C07002010B500F009FE01F04DFA0449002008608880C88008810249087010BD6C070020FA02002070B5084B0446DA889E8800205518B54206D81D68AA1822609D
:403A4000DA885118D98070BD032070BD6C07002001480089704700006C070020F0B587B007460D4600208900009006916846FFF7DBFF844600285DD1304800990160002179
:403A800017E02E4B88001A680629115406D22C4C0419667882185670628805E0C419203CA67A8218567022891B68C018491C4280C9B2A942E5D300242DE0601CC2B20590C4
:403AC00025E01E4FA30039689600581840887118039604904E88B04217D938466F46FE80B6464F786E4677710297049F4F800168039F5E18767879184E7001687646591865
:403B00004E800068029F18184770521CD2B2AA42D7D30598C4B2AC42CFD36046002809D168460699FFF780FF8446002802D1054900980860604607B0F0BD0000FC020020F7
:403B400008DA0100000300207047000010B5002809D005494A68002A05D0011F08788000105801F00FFC10BDFC02002010B50446FFF76EFFC0B2801DA0420CD3074840681B
:403B8000002808D0A100405801F06EFB002801D00470001D10BD002010BD0000FC020020F8B516460D460446FFF752FFC0B2801DA04203D20020C0430090F8BDB2B2E9B2F6
:403BC000684601F077FB0099481C03D0024AA000526811500098F8BDFC020020F8B50746FFF736FF801DC6B20A49002005460C680DE06178002907D06188B94202D32078EF
:403C0000FFF7B4FF002804D1241D6D1CEDB2B542EFD3F8BDFC02002010B5002801D0FFF795FF10BD70B506460948002504680BE06178002905D062882078121D0023FFF7F5
:403C4000AFFF241D6D1CEDB2B542F1D370BD0000FC020020F8B5084F064600243D6808E0287879688000085801F038FC2D1D641CE4B2B442F4D3F8BDFC020020FFB581B0CB
:403C80000A9F16000C4620D000F0F2F8054604281BD0002F0CD03846FFF7A0FF20492A0151184860002810D03A460499FFF7B7FA1B4928010E5046187781019805702004C5
:403CC00006D47D20C000444304E0FF2005B0F0BD6404640C00F0BAF80746042807D000F06BFAA0420BD800F067FA201A03E0204600F0C8FA0020F06035720020E6E700F043
:403D00005BFA009000F0D4FA00980121001B009000F008F902493A0151180098C860E6E778070020F8B5060116483418217A042903D0E068002802D017E00020F8BD00F078
:403D40003BFA054600F0B4FA00F0A0F804280CD001010C480F18F8680021451900F0E2F80020F860284600F08DFA6068054D002801D0FFF751FF042020720020A851608109
:403D8000E060DAE778070020FEB500266A46304601232549050169180D7A042D02D0C96800291BD000211154401CC0B20428F0D300246846005D002830D01B48210108183D
:403DC0004189476805680291002101604160042241810272C160002E02D015E01354E3E700F054F804280ED001010F4808180190C6680021304600F095F801980021C16017
:403E0000304600F03FFA0126002D07D038460299A847002F02D03846FFF7FEFE641CE4B2042CC6D3FEBD0000780700200EB5002005216A46009011815081034869460068F8
:403E400016F055FE0EBD000004030020074A0020010189180B7A042B02D0C968002903D0401CC0B20428F3D370470000780700200549002002015218127A042A03D0401C56
:403E8000C0B20428F6D370477807002030B50A4B04200A4C00210A011219157A042D06D0D268002A03D09A4201D808461346491CC9B20429EFD330BDFFFF000078070020B8
:403EC00070470000F8B500250B4F2E462801C419217A04290AD0042121723E506068002802D0FFF799FE66606681E6606D1CEDB2042DEBD3F8BD00007807002030B50020CB
:403F0000074C05460423020111190B72A5504D60401C4D81C0B2CD600428F4D330BD00007807002030B5094C00231A011219157A042D04D0D568002906D02D18D5605B1CC4
:403F4000DBB2042BF1D330BD2D1AF7E778070020002070471CB5002469460C70142001902346054A054816F0C7FD04480068401C00D1FF2420461CBDD13F0000040300200B
:403F80003EB5124A0146FF2000230124126800290DD0012914D0042908D104206946009308814B81104616F0A2FD80B23EBD68460093048143816946104616F093FDF4E78D
:403FC00068460093048143816946EBE70403002070B545890468416800890300FFF75EFC08280509091E2228262800200AF0A0F81EE0022908D0C8B22A46214613F0A4FD06
:404000002046FFF709FE13E002202A46214613F09BFD2946204600F00DF809E0002015F07BFC05E02046FFF7AFFE01E0FEF7F4FE002070BD014B0022DB6818470803002009
:4040400070B5448905680089022803D0032809D0FF2070BD2246094C0023A46829460120A04708E0FFF7ECF9241DA2B20023294602200BF034FD002070BD000008030020F8
:40408000704770470248002141600180418070470803002070B50C46002186B016460391012802D0022859D116E003A901200BF06BFD01281BD1039D324621462846FFF737
:4040C000AEF80095287801900220694608814E816846FFF7B5FF41E0214D002B686809D0049004A902200BF04FFD01281DD0022006B070BD002812D0298840182146FFF73B
:404100008EF828880024801980B228806988091D884206D12C801348FFF792FF03E00320E6E788421AD96C6018E004986860E278A378110219430B4A698000231060E356C6
:404140005360032313815181A1788170E178C1706178417021780170042028800020C7E708030020B80700203EB515460C46022803D004280CD000203EBD00910190022030
:404180006946088107484A81006816F0B0FC07E013F0DAFC044B0022DB6829462046984701203EBD0403002008030020014AD1609060704708030020034801688068081AF1
:4041C0000A21484300097047C407002010B5FEF7F3FD482204490548FFF721F803490120C870002010BD000024DA0100C80B002010B5FEF7D9FD10BD0020704770B5134C65
:404200002368002B08D0207B1149C20705D04008400020738868A08070BD88680B4AA18880B29268814203D90A4D691A091802E0814202D2411A5118A160A080A068984291
:40424000EAD316F071FC00F013F870BDC4070020C0102E40FFFF000010B508461946FFF7A5FF10BD704710B5FFF77EFF10BD000003480021016041608160C1607047000003
:40428000C4070020024610B5FF20002A0CD0FFF7EFFF064C0321207B0843207310010A21FEF77EFE2060002010BD0000C407002000B504480A21806848430209FFF7D8FF92
:4042C000104600BDC40700200248007B8007C00F70470000C407002010B54B490868002802DA4A4B01221A70022290430860484800694549C00B4031096A0246C907C90F6F
:404300000A4259D0012000F09FFB3F480E216C30FEF7A6FC3E4820218430FEF7A1FC3C4814219C30FEF79CFC3948FF21C131A430FEF796FC3648FF212F31B030FEF790FC08
:4043400033483449BC30FEF78BFC31483249AC30FEF786FC30492E48491CB430FEF780FC2B482E49B830FEF77BFC29482C49CC30FEF776FC26482B490830FEF771FC24487E
:404380002949A830FEF76CFC214828498830FEF767FC1F4826498C30FEF762FC1C481921C9029030FEF75CFCFEF75CFCFEF718FDC0B2022812D01FE000290BD000210142D5
:4043C0000AD0114801216030FEF74AFC0120FEF7E7FC97E70121F2E7FF2010BD15491648FEF73EFC14481549001DFEF739FC124800210830FEF734FC54200449C043891C12
:404400000870002010BD000000F02E401803002000002E40320300002F3F00003102000010520000EC160000FA12000031D000003AE300009956000080012E40F80F0000C7
:4044400070B50646581C80B245086D00002408E0304600F0C1F81055000A1119A41C4870A4B2AC42F4D3D80705D0D0182038D15CC47FD454C17770BD30B50A4C00210019BE
:404480005B1E07E0541864782502545C2C430480891C89B29942F5DB994201D1515C018030BD000000102E4010B5FF2000F0CCFA0F49FF2048700E481021801D41800121E9
:4044C000417001700A490020C91C4870FFF704FF04000AD100F02EF907210648FEF7BEFB044807211830FEF7B9FB204610BD000018030020CC112E4070B5002405465B1E4C
:404500000AE0284600F068F8010A161971702D1D1055A41CADB2A4B29C42F2DB9C4203D1284600F059F8105570BD000070B500210A4D5B1E0AE0541864782602545C34435F
:4045400046193480001D891C80B289B29942F2DB994202D1515C4019018070BD00102E40F0B50599091FCFB200217E1E0BE0541864782502545C2C43164D45192C80001DC5
:40458000891C80B289B2B142F1DBFC0712D01C78515C24020F4A0C4381180C809C785D78001D210280B2294384182180001D80B2D9780CE059781A7809021143054A8418D4
:4045C0002180001DD9789B78090280B2194380180180F0BD00102E40014940180088704700102E4010B50B490020487000F0A2F8002000F04FFA002000F03CFA07210648CD
:40460000FEF72CFB044807211830FEF727FB002010BD00001B030020CC112E4010B50C48007801280FD101F023F900F0DDF8002804D10848016A4908490001620548022184
:404640003030FEF70DFB02490020C91E087010BD1B03002040F02E4010B50B46062812D006DC01280CD0032801D1FFF7BBFF10BD0A28FCD00B28FAD105480078107010BDD5
:40468000FFF712FF10BD1146184600F01FFA10BD1E030020F8B5244DAC6A0127A007234E002816DA307806280ED1286A384328621F480069F903084381B21D481030FEF79E
:4046C000CFFA042000F0C0F9174802212830FEF7C5FAE00718D001F035FA01280FD1002001F03EFB062000F0AFF91049FF20C91E48707078002802D1686B384368630A4831
:4047000001212830FEF7AAFAE0050BD53078042802D1052000F098F90348FF2101312830FEF79CFAF8BD000040F02E401B03002000002E4010B503212348FEF791FA0120E0
:40474000FEF72AFB20483038406A204C80076178800F890001431C480C38FEF781FA6078002808D0401E022181401820FEF702FDC000083800E0B82081B21548FEF770FA78
:404780001348032109021438FEF76AFA10481149B830FEF765FA612189010F48FEF760FA0D480321001FFEF75BFA0C490C48FEF757FA0B480B496038FEF752FA0848012167
:4047C0008838FEF74DFA10BD70F02E401E030020D8102E4090890000041E2E40FF0F000058122E4020900000044800684007400F022801D0002070470120704700010B400C
:4048000038B5FEF7EDFA01F0B7F803211948FEF727FA0120FEF7C0FA16483038406A04218007800F084381B2009012480C38FEF717FA1148016802221143009189B2FEF74C
:404840000FFAB8210D48FEF70BFA0C48032109021438FEF705FA094C5321D83C2046FEF7FFF907210648FEF7FBF954212046FEF7F7F938BD70F02E40001F2E40D8102E404F
:4048800098142E4000B5FFF7AFFF002805D009480168C908C900016000BD0748016A490849000162054801690122D2039143016100BD000000010B4040F02E4000002E4065
:4048C0000849087806280BD148780749002803D1486B400840004863C86A01221043C862704700001B03002040F02E400121002807D005494A8842804A784270097801701D
:4049000000210846704700001E03002001480078704700001B03002002484078022800D0012070471803002000B50300FEF7B6FF080D050D0B070507090D012000BD03208D
:4049400000BD042000BD022000BDFF2000BD0000074A9168D26889B2064B92B2994204D105498A4201D1012100E000210170704780002E4033D000003FE30000014948708E
:40498000704700001B030020F8B504460120002C52D0217808294FD2617804294CD26088102166283DD800283BD065882348662D45801BD801270026BF020A2D33D90A217E
:4049C0002846FEF7EDFAC0B2072800D907200A2141438D4204D9691ACEB21F2E00D31F264101314339431648FEF738F9134D60786870217829701349496A8A078100114897
:404A0000920F11432430FEF72BF9687800280CD0401E022181401820FEF7ACFBC000083804E06180C1E72946DCE7B82081B204482030FEF715F90020F8BD00001E030020BB
:404A4000B8102E4040F02E4010B50446FEF7B0F9072C01D9FF2C01D102480470FEF7A4F910BD00001B03002001494870704700001803002010B5064A012805D01921C90244
:404A80001046FEF7EDF810BD1D21C902F8E7000090002E4010B50A4A141D012808D009491046FEF7DDF808492046FEF7D9F810BD04491046891CFEF7D3F80349491DF3E778
:404AC00088002E4031D000003AE3000070B50C460546FEF785F9C0B202280E49287804D0FF2810D04C280CD810E0FF2809D10A4AD0680004800F032801D0087807E090693B
:404B0000000A553803E00878207070BD4F382070087070BD1A03002000002E40F0B50122002834D0002932D00424420600D00524792342065B06D21800D0641C03460022E5
:404B40001EE00C2516466E43124D00277519AF72104F002ABB51696007D0661EB24209D10D4E86197606760E05E05E06760E8027BE1B00E080269B198919521C2E81D2B279
:404B8000A242DED303480549006B002288611046F0BD0000500A0020790200002403002018B50020694608700A48006900280ED0132149014018047E684604704F21C9008A
:404BC000054800F0A7F8A04201D0012018BD002018BD000024030020D4070020F1B582B000206A4610700299002903D101F06EF900283AD11E4F00240C2126464E43F519E5
:404C0000A97A01291DD11B49B859896988420BD14F21C900786800F07DF869460870132279685201891808762A89B9596868FDF7C7FF00280CD028200299002905D028287B
:404C400003D0641CE4B2062CD6D3641CE1B20AE00021A972F0E70C224A43D219927A012A04D0491CC9B20629F5D3FEBD2820FEBD500A002024030020074900200C22424336
:404C80005218927A012A05D0401CC0B20628F5D30020704701207047500A0020F8B50E000446154609D0194F19497868A04202D94018A04201D38D4201D90120F8BD3146ED
:404CC0002046FEF79DFA00281ED02A4631462046FEF7A5FAE8B200210C224A43D21913895568EE18A6420BD90126641B1B1B9672834209DA1469C01A044AC0B2203296763E
:404D0000491CC9B20629E7D30020F8BD500A002079020000034610B50020024604E09C5C2018521CC0B292B28A42F8D310BD000070B500F063F8084C064A216907480D468E
:404D4000FEF76DFA05492846FFF7E8FEFFF728FF207070BD7902000024030020D407002010B500F04BF810BD002070470020054A002902D0012902D002E0906000E0D060C4
:404D8000002070472403002070B5084C154608460549E26889182A46FEF741FAE0684019E06028B270BD0000D4070020240300203EB50A226946FFF7E7FF044606480A2242
:404DC00000686946FEF71CFA002802D00020C0433EBD20463EBD000028030020002802D0044A914201D2FF20704703494A61086100207047790200002403002002480021A5
:404E00008160C160704700002403002070B5074C15460548A26880182A46FFF73FFFA0684019A06028B270BDD40700202403002010B503490A220968FFF7E8FF10BD00000A
:404E40002803002010B50F4A002313600E4A13600E4B18600E4801600E49012008600E490860000290600E490C4808600D4914300860FF381538506000F0BEF800F0CCF9AB
:404E8000002010BD58030020400300206C030020700300205C0300204C030020980B0020500300206403002000207047014610B50020002910D0094B1A689C685118A14228
:404EC00009D25868196080188A0704D08A07920F891A091D196010BD002010BD40030020F8B50024164E671E321F3D463168136806E01422624310328A58521C1BD0641CB0
:404F00009C42F6D36A1C14D02C461422544322460C3288500C214843FFF7C8FF3168002808510AD031680020103408517068401C70602846F8BD2546E4E73846F8BD000054
:404F400050030020F3B50026F64381B000281BDB1E490968884217D80299002914D01B4F142204463F1D54432546396810354859401C09D0FDF71CFF38682F1F4159C35978
:404F8000994203DBFDF710FF3046FEBD214608310091465801590C20704308180C220299FEF73DF90948761C001D0068C159B14200D100260549009A091D8650086841598E
:404FC000491C4151FDF7F0FE0020FEBD4C030020002803DB07490968884202D90020C043704704491422091D0968504310300858704700004C030020F0B500200D4A451E56
:405000000346171F50600FE014260146714314680E1DA3510C461668083433511668083435511468401C635039688842ECD30020F0BD000050030020F3B50026F64381B085
:40504000002841DB2349096888423DD8029900293AD0204F142204463F1D54432546396810354859401C2FD0FDF7A2FE3868415900292BD0211D009146580C21005971439A
:405080000F46C1190C220298FEF7C9F811480021001D0068761C00590C34C0190160416081600C48001D00680159B14200D100260849009A091D865008684159491E415156
:4050C000FDF772FE0020FEBD3046FEBDFDF76CFEFAE700004C030020FEB504460D4600201E49089E0860471E009001900290002C11D0486885420ED2002A0CD0002E0AD023
:40510000642E08D808460C3001681C2068430C18207A002801D03846FEBD0120226020721846FFF7DDFE6060401C13D06681A6810A4827610C3067610179A94200D2057137
:405140000021684601810A462846029B00F040F82846FEBD00202072DDE700005803002038B50124009400F039F838BDFEB50027164EFF433D4600240EE01C2031686043F8
:405180000818017A002906D04068FFF721FF002801D0254603E0641C3079A042EDDA681C12D01C2130684D434419FDF701FE69466068FFF741FF0546FDF7F6FD002DD9D1AD
:4051C000216868468847D5E7FEBD00006403002038B50024009400F001F838BD1FB500220C49541E0A60002811DB496888420ED808491C220C31096850430818406801A94A
:40520000FFF7A0FE401C02D0002004B010BD2046FBE7000058030020F0B50021114A4D1E174611710C3F0B46BD6016E008461C2460431668041D3551146806462350146821
:405240000836A3551468361DA353044616680A34335318301468491C255078688142E5D30020F0BD6403002038B500210091002811DB0F49097888420DDA0D4D04010C357D
:4052800029680859002807D0201D0818694600F06FF9002801D0002038BDFDF789FD28680F34015D491E0155FDF77EFD009838BD74030020F7B582B0002502986E1E066001
:4052C0002E48D21C024017462D4A2C4610460C380178106805E02301C358002B0FD0641CE4B28C42F7D3711C28D03401211D40180191039900F02AF900281FD101E0264665
:40530000F1E71F48016820460C300F521C480399026820460E30115419480399026820460F3011540398784300F0A0F8144900280968085102D00024009011E001251AE01A
:405340000F48016801980818009900F02CF9002801D0012502E00098C0190090641CE4B203988442ECD3002D05D10298066004480179491C0171284605B0F0BDFCFF000063
:4053800080030020F8B50D4600216A468C461180002839DB23490978884235DA214B04010C3319680A59002A2ED020460C300B5A801C0E5C184670438018954224D385420D
:4053C00022D2002006E007465F43BF18AF4206D0401CC0B2B042F6D36046002814D0114E271DC8190C366A46294600F006F900280AD168460088012808D030682946C019FD
:4054000000F0D1F8002803D00120F8BD0020F8BDFDF7CEFC30680F34015D491C0155FDF7C3FCF3E774030020F8B50F46002400F031F8002817D10C4900220B460C334A6037
:405440000EE021011D680E466A501D680C36AA53B61C1D680F31AA551D68641C6A54E4B2BC42EED31A71F8BD7403002000280BD0C01C074A81085068890053884118994237
:4054800003D8936851601818704700207047000074030020F8B5064600200F4D009029700C0121466846FEF7BFFA00280CD129460C3100980860301B001F84B2214668463C
:4054C000FEF7B2FA002801D0FF20F8BD6C800098A8600020F8BD000074030020F8B5002827DB19490978884223DA174C05010C342168485900281CD028460C30085A009042
:4055000028460E300E5C401C0E5420682F1DC01900F064F800280CD12068002445590EE0094829460C300068C01900F03CF8002801D00120F8BD00982D18641CE4B2B44248
:40554000EED30020F8BD00007403002030B50D4604000BD0A800FFF789FF6060002805D000202570C0436080002030BD012030BD70B50D46040005D0002D03D00220205E60
:40558000002801DA012070BDFDF712FC0221615E60688900405828606088401E6080FDF703FC002070BD70B50D46040007D0002D05D002212078615E401E814201DB0120F2
:4055C00070BDFDF7F5FB6088401C00B26080616880000D50FDF7E8FB002070BD10B5040009D0227800216068FDF722FE0020C0436080002010BD012010BDF0B500231D46B8
:40560000002802D00224045F0AE00120F0BD46689F00F6598E4201D1012503E05B1CDBB29C42F4DA15700020F0BD00000148007870470000880300207CB505460024FDF72F
:40564000FFFEA8796946087000A8062229460130FDF7E5FD0021684609F054F80C2806D0072806D01F2806D0122806D006E0022404E0042402E0272400E0012420467CBD66
:4056800010B50024FDF7DCFE0021084609F03EF80C2800D10224204610BD00000148012141727047D00C002010B502280BD0032802D0042809D102E000F0F2FC05E000F004
:4056C0009DFDFF2801D100F0ADFDFFF71FF9FFF72BF910BD10B500F0D5FDFFF717F9FFF723F910BD10B50024FFF7F4FF012808D10548818B03E0481E0140641CE4B2002926
:40570000F9D1204610BD000060102E4070B504460025FDF795FE002C06D0A079012803D8214603F033FF00E00125284670BD0000FEB505460D208001019000200C460090E8
:40574000002D11D0002C0FD0FDF77AFE1B48878B008B742186461948603801800020287001461748844622E001200090FEBD0120884086B21148019A603810180388028849
:4057800000883E4211D02E78761C2E7023701B0A6370A270120AE2702071000A60717046C840C007C00FA071E41D491CC9B2604600788842DBD80098FEBD000060102E40A1
:4057C000080C002001460120002902D0502008800020704770B5084D0024284603F01DF9002807D0FDF72CFE284600F0EDFD012800D1FE24204670BD300C00200146012056
:40580000002903D00248007808700020704700008A03002001460120002905D0034854220078504308800020704700008A03002010B502460D49FE2048700324104615F0B5
:4058400079FC002810D115F01DFC00280CD10AF0F7F9002808D100F063FF002804D109F051FA002800D10024204610BD8803002002480021018280210180704700102E40C9
:4058800042680121002A08D00268002A05D004494A600449406888600021084670470000D00C0020880300207CB505460024FDF7C7FDA8796946087000A806222946013000
:4058C000FDF7ADFC0021684608F02EFF0C2802D01F2802D002E0022400E0072420467CBD10B5FF2415F09EFC002804D115F0CAFB002800D1002403490020486002494872C2
:40590000204610BD88030020D00C002070B50025044600280ED0A07901280BD8FDF790FDA0790028204602D004F0D6FA03E004F0ABFA00E00125284670BD0000014610B5E7
:405940000120002904D006220248FDF768FC002010BD00009403002001460120002903D00878024908700020704700008A03002010B506F04FFA10BD10B5002404F0B0FC16
:40598000002800D00124204610BD7CB5FF24069E079D00280BD0002909D0002A07D0002E05D0002D03D0002B01D01B2B01D901240BE00096019506F047F8042802D005283A
:4059C00002D002E0292400E0002420467CBD7CB5FF24069E079D00280BD0002909D0002A07D0002D05D0002E03D0002B01D01B2B01D9012406E00096019506F06CF8042885
:405A000000D1002420467CBDF0B589B015460F4606460124FDF714FD002E20D0002F1ED0002D1CD0102239466846FDF7F8FB1022314604A8FDF7F3FB1021684615F09CFA83
:405A4000102104A815F098FA2B46102204A9684606F012F81021284615F08EFA0024204609B0F0BD10B508F0C9FD09F0A5FF07F053FF10BD10B508F0C1FD06F0B1FA09F04D
:405A8000F9FD10BD70B592B00E4605460024FDF7D7FC03F0DFFE00280AD001F0BBF8002806D0002D0ED0EA7F1F2A03D9012409E002242EE000A829460130FDF7B0FBE87F95
:405AC00069460870002E0FD0002C22D1F27F1F2A01D901241DE008A831460130FDF79FFBF07F08A9087001E0002C12D10020002D04D010A9684601F0DBF80120002E04D0C0
:405B000010A908A801F07CF901E0002801D001F03DF8204612B070BD70B505460124FDF78FFC002D04D00821284615F001F80024204670BD10B5FEF7E9FE012801D1FEF74F
:405B4000EBFE10BD0148007A70470000D00C00201CB5FF206946087100200870FDF770FC6A4601A90620FEF777FD6946002008561CBD000038B504460120002C20D06178AD
:405B800001291DD800290BD0FF25E535FDF758FC0C4828180088C0B22070072803D00EE0FF25CD35F2E70020694608706846FEF7CFFE69460878012801D108202070002076
:405BC00038BD000000102E4010B507480024807B002806D00448203002F050FF012800D1FE24204610BD0000100C0020F8B5012406460D46002925D013480078002808D037
:405C0000FDF71EFC694630460DF07EFF040003D018E000200880F8BD6846008802F068F906000ED002F0F9FE00280AD00748F121807A0840C00602D5308A288002E0022489
:405C400000E006242046F8BD88030020C80B0020014A0021926810478803002008B500226B461A7026280CD0094A342852680BD0352805D1900703D5002135200AF0C4F8A3
:405C800008BD19462620F9E7D007F9D03420F5E78803002001460020002902D0024A5160704701207047000088030020F7B582B001A90DF029FF05004CD1FDF7C1FB684659
:405CC000808802F015F9040043D002F0A6FE00283FD0FF278820493700593E46002805D01E49897A890601D5878AC68A204600F089FB01280ED005F02DFF50210A5B6179AE
:405D000001F06EF9283081B233463A46204605F09DF909E00096264604994036328A3B46084605F071F9F08220464030C28A04998A4200D9C182C18AA07804F085F8039826
:405D4000012801D901200390A078039904F048FA00E00625284605B0F0BD0000C80B00200149087270470000D00C002010B501F09FF810BDF8B50E4669460DF0C5FE0500AE
:405D80001BD1FDF75DFB6846008802F0B1F804000AD002F042FE00280FD0E08A002E05D001210843E08205E0062506E040084000E0820221204603F071F92846F8BD00009E
:405DC000F8B504460120002C26D06178012902D92278092A20D8002905D0FF25E5352078092803D004E0FF25CD35F8E708202070FDF726FB2078114F114E08280DD00020B4
:405E0000FEF748FE70780128207810D00D4969180880FE2070700020F8BD0120FEF73AFE0720B8810549203188800120F2E7B8810248217820308180EBE70000C0112E409F
:405E40008803002000102E40F8B50E4669460DF05BFE050033D1FDF7F3FA6846008802F047F8040019D002F0D8FD002826D01548F121807A0840C00621D520464030418AC2
:405E8000008A491C41430804C00C0F4986420CD326822079072802D011E006250FE001200870204601F0D2FA09E0002E07D100200870A078002103F0BDFA00E002252846B0
:405EC000F8BD0000C80B00208803002010B509480024807B00280BD0FEF718FD062801D0032800D12824FFF76FFEFE2800D12824204610BD100C002070B50E46050001D062
:405F0000002400E00C4C002C11D0E28A500609D5D107C90F022004F043F9E08A40218843E08204E0D107C90F012004F039F93146284603F007FD70BD300C0020F8B5054626
:405F4000002004460D4E009013E022466946284601F0A4FA0098002801D015F0CDF8A878214603F0F7F9A878214603F0E5F9641CE4B2308AA042E8D8F8BD0000FC0C002059
:405F8000F7B58E462249086820308078002802D08446002338E0FF20FEBD1D48212100680D5CE9000A1856799779D47912794058B2420DD315F0A0F8154800682030417854
:405FC000491C8907890F41708178491E8170E2E78118B61A0098F6B20160BC4212D1A64204D290197146C0B20E7003E010197146C0B20C700299EA000D7005490968511875
:40600000087103E05B1CDBB26345C6D30020FEBDF0030020064A02235188891C89B25180814201D8102900D953805088704700009A03002001484078704700009A03002090
:40604000F8B50D460446FCF7B3FE144E3068034620339A78042A1CD0E178A77809020F431978521C491C8907890F19709A70CA0084501018477131680020511808713068CB
:406080001018C571306810188571FCF78DFE0020F8BDFCF789FEFF20F8BD0000F0030020F8B54E4CFEF732FC012847D14C480078002843D003F0CEFB00283FD007F0A0FF9D
:4060C00000283BD0474E7078C00703D000F0A8FD012833D0307E00287DD17078002500285BD0000706D540488089070B00F02EF9384370D13B484178684605F035FD21790E
:406100003A4CA2788918C9B2814262D803F0A2FB002860D0344860300789324E203603F009F96846008803F051F903F029FA30490988884203D10120FEF786FC4BE02D49ED
:40614000012008702748807B00281DD0002F1BD04036F07E002817D123486030008821494000C031498981420AD26078002807D104F054F82049088A032212021043088241
:406180002078002800D0257003F082F90120FEF7F5FB00F0B1FC174C15E003F05BFB002819D0102403F0ECF9214603F07BF803F00DF9104C0120207003F06AF90020FEF7AD
:4061C000DDFB00F099FC20780128B4D1FEF75AFB25700020F8BDFF20F8BD0000080C002018030020100C0020A0102E40B2030020C40300209A030020E0112E4010B50848BE
:40620000FF244078002809D103F024FB012805D1FEF704FA0720FEF717FC0024204610BD100C002038B5FEF771FB012801D0002038BD03F00FFB00280AD0114C6078C00763
:4062400003D000F0EDFC012802D0207E002801D0FF2038BD617800290FD0684605F084FC022806D96846008803F0B0F8012003F019F90320FEF7E8FBD9E70020F7E700000F
:40628000100C002038B51E4CFEF740FB042813D0052811D0062812D003282AD007280AD100206946087002460120FEF7D5F9FEF72DFB0128FBD138BD00F03EFC38BD03F033
:4062C00009F900F039FC03F095F98007800F0228F4D10C4841880029F0D05B21095D0029ECD101210170A07D0140022003F058FF38BD03F0F3F80120FEF7A6FB38BD000047
:40630000300C0020B2030020F8B50646002403F0C5FF0546304603F0DBFF03460A480021068A0DE001228A401046174628401F40002803D0002F01D1224394B2491CC9B2A3
:406340008E42EFD82046F8BDFC0C002070B500252C460A4E03E0002C01D0002000E030460079002803D02046FFF7CEFF0543641C2406240EEFD0284670BD0000300C002062
:406380001CB50020694648706846FFF7F3FB01AA69460A20FEF760F96946042008561CBD70B50D4601F0A4FD04000BD02079002808D0FDF745F8E178A0782A4603F070FB25
:4063C000002070BD022070BDF8B50646002402F039FB05000CD1074F07E0B178204600F013FA012805D0641CE4B2F889A042F4D22846F8BDFC0C0020014800787047000013
:40640000080C00204030C07E002800D00120704700B500F001F800BD902148430749084A40186030417F491CC9B24177D289914201D300214177C8B270470000100C0020E9
:40644000FC0C002013B501F053FD04000BD002F0E4FA002807D0214601AA0A310620FEF7FBF800201CBD02201CBD000010B50C4601F03EFD00280AD002F0CFFA002806D0F0
:40648000224604490A20FEF7E7F8002010BD022010BD0000F10B0020F3B581B0074601460026029803F0F2FE0446002F01D0002500E0154D002D21D0284601F04FFD032C78
:4064C00004D13946029803F03DFF06463846029902F032FF032C06D0002C10D00121384601F02CFF03E03146384604F0F5F9284602F0BAFD0221284602F0D0FDFEBD3846D0
:40650000029902F019FFFEBD300C002010B5044600F0DAFA002804D105F060FA002801D00C2010BD2078611C03F0DEFBFF2801D01F2010BD03F024FCFF280AD02178621C7E
:4065400002F082FE044821780068026B601C904710BD072010BD0000D803002010B505F03DFA002801D00C2010BD03F09FFB03480068C06A8047002010BD0000D8030020E4
:4065800070B50D460446102114F0F6FC10216018064614F0F1FC334610221946204605F06BFA1021304614F0E7FC02202870204608F0CCFA70BD0000F8B504464078217861
:4065C00002028006870FE0781143A67809050002090D0643084601F08BFC00210546F2B2002812D0002C10D0022F0ED0032F0CD0002A0AD00279092A07D0002A05D0134A54
:406600005A23527E1B5C9A4207D82889002108F08AF9204614F070FDFF21002914D10C48224600682946436930469847C0B2FF280AD128464030817EF2B2491C8176FF2382
:406640002146284600F00DF9F8BD0000C80B0020F40300200020704710B5044605F0BEF9002801D00C2010BD2078611C03F03CFBFF2808D003F068FA044821780068426B7F
:40668000601C904710BD1F2010BD0000D803002010B500F0ADF908F035FB002010BD000010B504460F4802F0E9F9012817D00D4805222146B030FCF7B2FD0A490522B03139
:4066C0000846C038FCF7ABFD01F016F8054880222038C17B1143C17300F0C6F910BD3A2010BD0000300C002010B5044600786178E2780843A1781143084321790843617934
:40670000084305D005F054F9002803D00C2010BD122010BD204603F0DFFB002010BD000010B5FCF75DFB03F0DBFD044805F036FB03F014FA012000F003F810BDD80B0020BA
:40674000F1B586B003A8009005A801902A489F22817A114081726846FCF7F2FE002849D169460989C90705D0244806990068C2686846904769460989890706D5002839D199
:406780001F480068816A06988847002832D11D4E0025757075737571F575357675767575B570F570B5713746F5730120D03738731F20F880FF2130467972A03001764576B8
:4067C00000F03EFB04F004FE02F008F900242046069902F0B5F8002803D1641C2406240EF5D0FD720749BD72B573C0310D704D704D600D7207B0F0BDC80B0020F403002047
:40680000D8030020100C002070B505460E46084603F044FD0446304603F05AFD0121A9400A46224001400A4301D0012070BD002070BD10B50446084603F04AFD0121A14080
:40684000014201D0012010BD002010BD10B5FEF75DF8032804D102F041FE0120FEF7F4F810BDFEB51C4616460F46054602F0FCFBA878FFF7CDFD02460190334639460094DB
:40688000284600F00DF8002808D1A8780199FFF733FBFF2C02D1384614F02EFCFEBD0000FFB585B005460E980C46FF2810D02B49C00009680A5840180179C079527881425F
:4068C00001D9012601E09006860F6846038108E06078A1788006860FE0780002014368460181284602F0AEF8070007D021462846079A00F060FD384609B0F0BD304600F0A6
:4069000065FE04AE0346039002AA29460096204600F027FC3C20405D002818D0284602F091F8012813D0684600890096C0B20190A878231DFF22079902F0B8FF684600896D
:40694000039BC2B2A878079903F0F2FBD3E7684600890021C0B20091E9E70000F0030020F8B5002600253046FFF7CEFC07001DD090201149704340186030447F12E0601C75
:40698000FCF70EFBCCB23846E040C007C00F07D02146304602F0C6FC21463046FFF77CFD6D1CEDB20548018AA942E8D8761C3606360ED7D0F8BD0000100C0020FC0C0020F8
:4069C00070B50024094D03E0002C01D0002000E028464121095C012901D100F0A2FC641C2406240EF0D000F03FF870BD300C002010B503F0B3F80020FFF7A2FE14F012FCE2
:406A0000002010BDF8B5002400F004F90125012800D1012404F078FC012801D102200443104F00203E4620360423082203E0002801D0002100E031460979002907D00129F0
:406A40000BD002290BD0114681402143CCB2401C0006000EEBD07C70F8BD2C43F7E71C43F5E70000100C002070B5144E0024F07BC00921D03546203503E0002C01D000200B
:406A800000E0284601F0D4FF012814D0641C2406240EF2D0F07B4006400EF073002403E0002C01D0002000E0284600F03AFC641C2406240EF4D0002070BD0000100C0020F6
:406AC00010B5FFF79FFF10BD10B5044608F002FB002802D1601C00F001F810BD1CB500240094062269460194FCF78AFB002800D1122420461CBD000070B50E4CFCF705F8F5
:406B00000546FDF703FF062802D02078012803D02846FBF7FEFF70BDFCF744F82846FBF7F8FFFDF7F3FE0628F5D020780028E5D170BD00009A03002010B5FBF7E6FF044652
:406B4000FDF7E4FE012809D0FDF7E0FE022805D0FCF728F82046FBF7DCFFEEE72046FBF7D8FF10BD10B50B4681791943817103D08078114603F062FA10BD10B582798A432C
:406B8000827102D1807803F06DFA10BD30B50C4C0220A28A0B4B9978002901D0022906D11D785B78EB18282B01D9032002E0032900D101205105490DC0020143A18230BD85
:406BC000C0112E40A803002000B500F029F8002807D0012805D0032801D0042801D0002000BD012000BD014600B50020C90701D000F010F800BD014600B50020C90701D0E5
:406C000000F008F800BD00000148006870470000A003002001480088000A704720102E400448008B410501D5042070474007800F7047000000102E4010B502F0A1FC0446D5
:406C400002F0E8FC0146204602F0C2FC10BD00000148406870470000A003002038B50446000610D5FFF7DCFF01280CD1684602F045FC6846007800F0A2FB012002F070FA9F
:406C80000220FFF71DFF600708D507480179012904D1002101712620FEF7E0FF0348006801692046884738BDAC030020D803002070B505460C49007800240870FFF7AAFF5E
:406CC000012803D1FFF7B8FF022803D3284603F06FF807E0284600F0F7F8040002D1034801210170204670BDA8030020D00C002070B50446FFF78EFF002801D00C2070BD9B
:406D0000A27B01211F48002A827801D00A4301E05208520082706279012A14D0C17849084900C170184D2868016820468847207901280CD06188208804F062F920802079B4
:406D400004280FD015E0C2780A43C270EAE72868C168E01D8847E01D03F0AAF80B48808C208006E02868C168E01D8847E01D03F09FF8074920798870204603F027F8002008
:406D800070BD0000100C0020D8030020C80B0020A803002008B50178FFF73CFF814201D10C2008BD002914D0072069460870FFF70BFF012807D10121684600F0E5F80128A2
:406DC00001D0092008BDFFF7E1FE03F033F8012011E0FFF7F9FE012806D1684602F08EFB6846007800F020FB03F01AF8FFF712FF0028FBD10220FFF763FE002008BD00002A
:406E000070B505460C49007800244870FFF702FF012803D1FFF710FF022803D3284603F0EDF807E0284600F069F8040002D1034801214170204670BDA8030020D00C002005
:406E400038B5684614F0EEF8002801D01F2038BD01210098C90201804180002505714571857107214173857302F0B0FF009C202200212046FCF7DCF925702A460021601C0E
:406E8000FCF7D6F9204602F093FF204603F0B6F8009814F031F9062200210448FCF7C8F902480C388560002038BD0000AC030020034A918A042319439182024948807047F1
:406EC000C0112E40AC030020F8B5044600256846009514F0A7F8002801D007250AE0064E009830602278611C401CFCF798F93168207808702846F8BDA0030020F8B504467A
:406F000000256846009514F08DF8002801D007250AE0064E009870602278611C401CFCF77EF97168207808702846F8BDA00300200346084800B5834209D8184600F0D8FFD0
:406F4000002804D00089984201D1012000BD002000BD0000FF0E0000074A9179491C8906890E917138220A4092014907090E11430843024908407047100C0020FF0E000060
:406F8000C006C00E70470000F8B507460E4600240D4803E0002C01D0002500E005462979002905D0641C2406240EF3D00020F8BD0021204601F0C4FC2E712046FFF7CCFF7D
:406FC00028813C700120F8BD300C002010B504F0C1FD0222002100F003F802F04FFD10BD10B5094B40074907000F090F185A595A40185043C0086421FBF7D2FF002800D168
:40700000012080B210BD00006CDA0100F7B53D20405C88B015460C46002802D02878042802D200200BB0F0BD6946087200262046FFF7E8F9012800D00126204603A9383017
:407040000191009023460327A17E34333246206A04F0C4FE02A8089900900B46019120463A4603A9243004F0CFFC02466846007A2870204601F050FC1046D3E7FFB587B014
:407080000C4605461078694608723D20005D1746002826D000262046FFF7B4F9012800D00126204603A93830019100902346A17E34333246206A04F091FE02A80090291D6E
:4070C000019120462B1D03A924300A9A04F09CFC02006846007A388002D1204601F01CFC10460BB0F0BDF0B505463C20405C89B016460C4600280CD0307869460873002871
:4071000006D000272046FFF77DF9012803D003E01F2009B0F0BD012703200890204604A93830019100902346E17E34333A46E06904F054FE6846007B03A928180290009106
:4071400020462B46019504A92430089A04F0A8FC02466846007B3070204601F0E7FB1046D7E7FFB505463C20405C89B016460C46002810D0084601F065FC01280BD03088C7
:4071800069468883002809D000272046FFF73AF9012805D005E000200DB0F0BD0220FBE70127204603A93830019100902346E17E34333A46E06904F011FE291D2B1D07A8F1
:4071C000129A6D4607C5204603A924300C9A04F067FC02466846808B3080204601F0A6FB1046D9E710B518490446484028D0002101231A468A40904221D0491C2029F8D3A7
:4072000000212046C840C243520618D0400616D0491C1929F5D3A0B2210C020AC3B2884201D193420BD01F21204600F0D4F9182805D8A00E062100F0CEF9022801D200206A
