:400000000080002011000000DD020000DD02000010B500F03BFE00F069F9C04670B51222224B1A6000F026FC214801F0FDF8012000F040FC302000F037FB1E4A1E4B1A6060
:400040001E4C8025ED0525601D4A116802230B4313601C4A1C4B1A6000221C4B1A601C4A136808218B431360FA20C00000F0CEFB184800F00FFB88229201174B1A60174A38
:40008000174B1A6080221206164B1A608022D202154B1A604022154B1A601549082000F09DFA082000F07AFA256070BD30001040001BB7000600008004010B400C020B4077
:4000C00078002E40666600007C002E4064F02E406CF02E40DC0500000003014040FF00800000014008010B4000010B4008010140CD09000010B572B600222E4B1A600024CD
:400100000FE02D486200131959000B00411889881A5AC31858880004104300F0D9F80134E4B2012CEDD9244801000C31383000F0A5F8EE221206214B1A60C0229201204B6D
:400140001A60204A204B1A6099231B041F4A13601F4A1360C02109041E4A11601E4A13601E4A1F4B1A601F490B783C22934314221343DBB20B701C4A117816230B43DBB27F
:400180001370D8221204194B1A600822184B1A6080221201174B1A60A222174B1A60174A174B1A602022174B1A60FFF737FF00F07FF810BD6CF02E40841600000000024035
:4001C00000010240300099300003024000500F4010500F4018500F4030500F4000000C8038500F4001700F4000700F400800044000010440080104400003044020108300F0
:40020000080304401803044010B5064C2378002B07D1054B002B02D0044800E000BF0123237010BD580100200000000080160000084B10B5002B03D00749084800E000BF3B
:4002400007480368002B00D110BD064B002BFBD09847F9E7000000005C01002080160000C80000200000000010B562B600F0BAF8012000F08DF800F09FFFFEE7F0B50025A8
:40028000002711E0BB00C658F3B2FF22964308E06A008A181478A419527822700135013BDBB2002BF4D10137042FEBD9F0BDC0460323044A1360044A13600022034B1A60B2
:4002C0007047C0463000304030003140000E3F4010B50A00002101F0C6F910BD10B501F08DF903680C2B00D1FEE7FEE770B50F4E0F4D13E029686B68AC68002202E001C976
:4003000001C30432A242FAD1E868002202E0002102C304328242FAD11035013E002EE9D101F072F9FFF7A0FFFEE7C046010000009017000010B5114A136801218B43136027
:4003400000230AE0032B03D89A000D49505800E00C4899000C4A885001332F2BF2D9FFF7C9FE0A4B1B68002B02D10022074B1A60024A116801230B43136010BD0000104033
:4003800000000000DD02000000000020C000002010B507238343180000F0ECF800F0F0F810BDC04610B50A2000F0F8F810BDC04610B500F0B3F810BD10B500F0C5F810BD04
:4003C00010B500F035F810BD10B5054A1368802109060B431360FFF7E5FFFFF7E9FF10BD0000254010B5064B1B78002B04D1FFF7E7FF0122024B1A70FFF7E6FF10BDC04637
:400400007401002010B50A2000F0D2F8FFF7D4FF054A13685B005B0813600022034B1A600A2000F0CFF810BD00002540880F254070B5204A204B1A600024204B1C60204AD8
:40044000204B1A60204B214A13600721204A1160204A14600639204A1160204A1360204B1C6004251F4B1D600A2000F0A1F803210A2000F0C5F81C490A2000F0AFF81B4B45
:400480001C601B4B1C601B4B1C601B4B1C601B4B1D601B4B1C601A681A4B1A801A4B1C601A4B1C601A4B1C701A4B1C601A4B1C6070BDC0460B000002000025404000254015
:4004C00001000A0048002540070000800003254004032540100325404400254000022540040225405000254035130000880E2540C80E2540480F2540080F2540C80F25404F
:40050000880F25407C010020AC010020C0030020B8030020BC030020B4030020064A1168064B0B40902109040B431360044B1A88044B1A607047C04600030240FFFF0FFF35
:400540007C010020880F2540064A1168064B0B401360064B1A68E423DB001340044A13807047C04600030240FFFF0FFF880F25407C010020014B18707047C04673000F4027
:40058000014B1878C0B2704773000F40024B1B68012018407047C0460C002E401F2318401E3B8340014A13607047C04600E100E01F2318401E3B8340014A13607047C046D1
:4005C00080E100E01F2318401E3B8340014A13607047C04680E200E001BE704770B504000D001F2802D90020FFF7F6FF1034A40080239B059C4664442068256070BDC04679
:4006000070B504000E00032902D90020FFF7E4FF1F2C02D90020FFF7DFFF03252540ED00063500F00AFEA408A400074B9C46644421680323AB4099430B003100A940194399
:40064000216000F0FEFD70BD00E400E0034A13681B041B0C02490B43136070470CED00E00400FA0510B5040006E0084B586800F0DBFD074B9C46644480231B029C42F4D8A0
:40068000024B9868604300F0CFFD10BDCC0000200080FFFF10B5034B1B7B584300F0C4FD10BDC046CC000020F0B557464E46C0B483B0040000F0C1FD0190E71E2D2F74D836
:4006C0003F4B1B78DBB29C4208D83E4B1B78DBB29A463D4B1B78DBB2994631E03B4B1B78DBB29C4208D83A4B1B78DBB29A46394B1B78DBB2994623E0374B1B78DBB29C4282
:4007000008D8364B1B78DBB29A46354B1B78DBB2994615E0334B1B78DBB29C4208D8324B1B78DBB29A46314B1B78DBB2994607E02F4B1B78DBB29A462E4B1B78DBB29946B7
:400740002D4BDE5D2F2E09D92A2C07D919222B4B1A60052000F068FD192503E0274B1D683F231D40B54206D9234BDA5D234B1A60052000F059FD1F4B9C4664442378DBB2EB
:400780001F4A13601F4B52461A601F4B4A461A600520FFF77FFFB5420AD2174BDA5D174B1A60052000F040FD02E00020FFF714FF019800F046FD03B00CBC91469A46F0BD84
:4007C00040F3FF0F41F3FF0F42F3FF0F43F3FF0F44F3FF0F45F3FF0F46F3FF0F47F3FF0F48F3FF0F49F3FF0F4AF3FF0F4BF3FF0F4CF3FF0F4DF3FF0FD01600002CFF0B40B4
:4008000028FF0B401CFF0B4020FF0B4010B504000F4A116801230B4313600E4A0E4B1A600E4A1368802109020B431360002809D100200CE00120FFF72DFFFFF7A7FE002877
:4008400004D1013C002CF5D1102000E0002010BD60F02E400220000078002E4010002E40034B1868C0231B02184000D00120704700010B4010B50D4B1A6801218A431A6011
:400880001A68022082431A60094A10683024A043203C204310601068093CA043014311601A68802109060A431A6010BD00F02E4000FF2E4070B51D4B1B6801241C40002885
:4008C00002D0012816D02BE0184B19680122914319601968022081431960154B19682E3081432038014319601968093881430A431A6018E00D4B1A6802218A431A600C4AE1
:4009000010680725A84301431160116830208143103801431160196801220A431A6002E00020FFF759FE200070BDC04600F02E4000FF2E4010B500F080FC044A1368C02136
:4009400009020B43136000F07CFC10BD00010B4010B500F072FC08490A68084B1A408024E40122430A600A6813408022120213430B6000F066FC10BD00010B40FF3FFFFF5C
:4009800070B5050000F059FC0400FFF769FF002803D0FFF7DDFF012100E0002108482840084A1568084B2B40184310601368012901D1FFF7BFFF200000F043FC70BDC046B9
:4009C0000404040010020B40FBFBFBFF10B5244B1B685B0715D5234B5B685B070ED5224B596A042001401F4C62688A4362605A6A82435A629B69002B00D098470420FFF78F
:400A0000BFFF174B1B685B0518D5164B5B685B0510D5154B596A8022D2001140114842688A434260596A114A0A405A62DB69002B00D098478020C000FFF7A2FF084B1B68F4
:400A40005B030CD5074B5B685B0304D5064B1B6A002B00D098478020C002FFF791FF10BD10020B40E000002080010020FFFBFFFF002306E04218013A12789B189BB201392E
:400A800089B20029F6D1584280B270470047C04610B58022024B1A60FFF7D8FD10BDC046C0000020F0B583B00D006B469E1DDA8001230B7048701400AA70130ACB70171DD3
:400AC000B9B22800FFF7D4FFE855631D000AE854A31D1722EA540734A1B296233200280000F0E4FC03B0F0BD70B505000E001400002802D00020FFF76FFD002005E0013C85
:400B0000AB19E3181B781818C0B2002CF7D170BD70B5C0B0050AFF2304009C43002304E01A5D6E46F25401339BB2FF2BF8D9FF2318406B461B5C8B4206D06B461954280474
:400B4000000C694600F0C6FC40B070BD10B50C2863D88000404B1B589F460B06591A0B023E4A9446634401225CE00B06591A0B023B4A94466344042254E00B06591A0B02D9
:400B8000384A9446634402224CE00B06591A0B02354A94466344042244E00B06591A0B02324A9446634401223CE00B06591A0B022F4A94466344012234E00B06591A0B02E7
:400BC0002C4A9446634402222CE00B06591A0B02294A94466344022224E00B06591A0B02264A9446634402221CE00B06591A0B02234A94466344042214E00B06591A0B0255
:400C0000204A9446634401220CE00B06591A0B021D4A94466344042204E00020FFF7DCFC02220023012A02D11878C0B200E00020022A03D11978587800020843042A09D14C
:400C40001A785878000210439A7812041043DB781B06184310BDC04600170000C0FF0300C1FF0300C5FF0300C9FF0300D0FF0300D1FF0300D6FF0300D2FF0300D4FF03004B
:400C8000D8FF0300DCFF0300E0FF030010B50D4B1B68DB0602D400220B4B1A600A4B1B68802B0ED10022084B1A6000210220FFF74DFF002805D000210220FFF747FFFFF709
:400CC000E5FE10BD00030B40C000002070B5050001000320FFF73AFF441C240229000420FFF734FF241829000620FFF72FFF012828D029000320FFF729FF421C12020023CE
:400D0000002608E01078411EC9B2FD2900D801261B18DBB20132A242F4D35B42DCB229000120FFF713FF84420ED1002E0ED02B065D1B2802064B9C4660440121FFF7E8FEAA
:400D4000002004E0002002E0062000E0062070BDD1FF0300F0B55F4656464D464446F0B4C24CA544050000F05BFB62B600239A46984600930A240027002D01D1FF2300E076
:400D80002B00BB4A02A98C4662449621490090A800F04EFB002D01D0013CE4B2002C01D00028E9D1002800D0F4E1B14B02AA944663441B88062B24D990AA1278012A22D116
:400DC00090A9CA78120289780A431700110007329A421AD896235B009A4218D87A1D90AB9E5C3202381D1E5C164306315B5C172B0FD181B290A8FFF73BFE86420BD100266B
:400E00000AE0042608E0042606E0032604E0032602E0042600E00826002E00D068E190AB1A7993465A781300313BD9B20A2900D92EE18B008F49CB589F464346012B00D081
:400E400058E1002F00D058E10020FFF73FFF4342434190AA1371012295E14346012B00D04EE1012F00D04EE15B46012B00D94DE1814B1B681B685A0CD2B2934503D11B0A09
:400E8000DB05DB0D05E0934501D9002301E080239B0090AA13711B0A5371FF239371FE3BD37104226FE1342A0ED14346012B00D02FE1032F00D02FE1CC32002145A800F0F1
:400EC000D2FB80235B009A464346012B00D026E1022F00D826E145A85044FA1E674902AB9C46614400F0B6FB3B0053449BB20422FF32934200D018E190AA93791B0252794B
:400F000013439A465E4B9A4500D90A26002E00D012E15B465F02BFB25744BFB2564B1B681A68130A9BB2FF21114201D001339BB2BB4200D904E1009B002B0BD18022520054
:400F4000002105A800F08FFB05A94E4800F0C2FA0123009345A9380000F0BCFA002800D1F5E000239A4680277F000A2600220AE14346012B00D10BE10426002203E1434657
:400F8000012B00D0E9E05346FB1896225200934200D9E5E045A850443A0091A900F05AFB5346FB189BB29A460022ECE0002F00D0D9E005AA344B03CB03C291AA05AB03CB10
:400FC00003C200239A46013398460822DBE04346012B00D0CAE0032F00D0CAE090AA93791B025279134399465B46590249440902234B994500D90A26002E00D0BCE08022CF
:4010000052000020FFF770FD030001905A46520292B24A4492B25946012913D119498A4210D100210520FFF791FDC0B2019B1B1ADBB2994600210620FFF788FDC3B24A4641
:40104000D31ADBB25B4290AA137101229BE00020FFF73CFE002802D180220C4B1A6000F0E3F9FFF7F3FA042600228CE08CFCFFFF6603000034170000E80000203F02000055
:40108000FF010000FF03000060170000C0000020484B1E68002E71D04346012B71D102AB1A71DF8091AB04930C22002105A800F0DAFA05AB9B4691AA0792190003A8B0470E
:4010C0005B469A882623FF339A4203D991AB0799994207D0079B002B01D1002A05D1059BDEB250E00E2600224DE00E2600224AE0002248E00426002245E00426002242E041
:40110000042600223FE0042600223CE00426002239E00426002236E00426002233E00426002230E0042600222DE000239A4680277F000326002226E080277F00002222E03D
:4011400000239A4680277F000A2600221BE000239A4680277F00002215E00426002212E0032600220FE0042600220CE00426002209E00426002206E0002204E0052600224F
:4011800001E00526002290A93000FFF78BFC01E000239A46002D00D1EEE54346012B00D1EAE5DD239B009D443CBC90469946A246AB46F0BDA801002070B50020FFF786FDDB
:4011C000002801D0062400E00024154D2B681A68C03AC0210020FFF787FC6B681B78C01AC0B24042C0B2834204D10D4B1B681B68002B02D10020FFF7EFF90A4B1B68402B00
:4012000001D0002C05D00022064B1A600020FFF7A1FD1420FFF79EFDFFF73AFC70BDC046E8000020C00000200230800803D00138FDD1C046C046C0467047EFF3108072B638
:40124000704780F3108870470A4B1A680A4B1B689A420DD0084B1B6801330222FF32934200D10023054AD05CC0B2034A136000E000207047AC010020C0030020B00200207F
:40128000074B1B68074A1268934203D3054A1068181A04E0034A10681B1A981CFF307047AC010020C0030020154B1A68154B1B689A4208D1144B1B681F221340082B02D0CD
:4012C000124B18601BE00E4B1A68013280235B009A4200D100220B4B1B689A42FBD002230B490B60C0B20B49885405490A600A4A1268134203D1084A11680B43136070474B
:40130000BC030020B40300200802254040022540800F2540B0010020880F254070B506000D00002403E0305DFFF7BEFF0134AC42F9D370BD10B5294B1B68002B00D09847EF
:40134000274B1B685B071FD5264B1B6801330222FF32934200D10023234A1268934205D1224B1B682022224B1A7006E01F4A1268D2B22049CA541B4A13601F4B1B68DB06A7
:40138000E2D104221D4B1A601D4B1B689B0723D51C4B1A681C4B1B689A4215D01A4B1B68013380225200934200D10023174AD25CD2B217490A60144A1360164B1B681F22AD
:4013C0001340082BE4D104E0134A136802218B4313600222114B1A6010BDC04678010020CC0F2540AC010020C003002040032540B8030020B002002008032540C00F254043
:401400008C0F2540BC030020B4030020B00100204002254008022540880F2540800F254010B5FEF7DFFF10BD10B5FEF7EBFF10BDF0B583B007000E00019200282DD000297B
:401440002ED09A00D3185C00FFF71AFF002811D0FFF716FF0500AF20FFF71CF9FFF710FF8542F5D1B54200D93500019B1D800023019308E00120FFF7F5F8013C002CE3D1FB
:40148000002510230193002404E03E19FFF7DCFE30700134A542F8D804E00123019301E001230193019803B0F0BDC04670B50C001500002806D0002906D0FFF72FFF2C803E
:4014C000002002E0012000E0012070BD002070470020704730B5C5B004000023439342933D4B984272D8002970D08022520002A800F0B0F8394B9C4201D9394B00E0394B52
:401500000093FF230193384B6A461A603749384A1160C0461B681B0F1B07F0221206934204D1314B1B68FF2213400DE02E4B1B681B0F1B07A0221206934204D02A4B1B6876
:40154000FF22134000E000234393439B002B3FD1FFF773FE0500FFF7B9FF4290439B002B25D1244A0092009A2404144300941E4A6946116020481E490860C0461268120F0D
:401580001207F02109068A4204D1174B1B68FF2213400BE0144A1268120F1207A02109068A4203D0104B1B68FF2213404393429B002B07D1FFF78CFF4290429B002B01D058
:4015C000429B43932800FFF73CFE01E004234393439845B030BDC046FF030000FF010000B6D70001B6D70000080010400400008004001040B6D8000005000080014B186813
:401600007047C046500100200E4B70B500251E000D4CE41AA410A54204D0AB00F35898470135F8E700F0A2F8084B00251E00084CE41AA410A54204D0AB00F358984701351F
:40164000F8E770BD78170000781700007817000080170000002310B59A4203D0CC5CC4540133F9E710BD03008218934202D019700133FAE7704700000019000006000000AA
:401680000000000000300F40000400400F4000047307DB04DF0169806A086B0887088A048D405F108710D620E2105401610288018D02D604D802E001E408000001000F4094
:4016C00002320F4006330F4004410F4008430F40030405060708090A0B0C0E0F101112131415161718191B1C1D1E1F2021222325262728292A2B2E2F3031323334350000C1
:401700001A0C00005A0B00006A0B00007A0B00008A0B00009A0B0000AA0B0000CA0B0000BA0B0000DA0B0000EA0B0000FA0B00000A0C00003A0E00005A0E00009010000056
:40174000A60E0000700F0000901000007E0F0000AC0F0000A60E0000CE0F00004E100000AA116D1A003C010143000000F8B5C046F8BC08BC9E46704731020000350300006B
:40178000F8B5C046F8BC08BC9E46704709020000A0170000C8000020900000007002000000000000010000000000C05D80BB000030000000006CDC02F000000004040400E8
:4017C000781600007C16000000000000000000000000000000000000000000000000000000000000000000006817000000000000000000000000000000000000000000004A
:4018000000000000000000000000000000000000000000000000000000000000000000000000000000000000F0000020000000000000000000000000000000000000000098
:401840000000000000000000000000000000000000000000000000000000000000000000000000000000000000000000000000000000000000000000000000000000000068
:401880000000000000000000000000000000000000000000000000000000000000000000000000000000000000000000000000000000000000000000000000000000000028
:4018C00000000000000000000000000000000000000000000000000000000000000000000000000000000000000000000000000000000000000000000000000000000000E8
:401900000080002011190000412200004122000010B5024B83F3088800F0B4FC0080002070B51222264B1A6000F08EFE254802F0D7FD012000F0A8FE302000F09FFD224ACD
:40194000224B1A60224C8025ED052560214A116802230B431360204A204B1A600022204B1A60204A136808218B431360FA20C00000F036FE1C4800F077FD882292011B4B1E
:401980001A601B4B1B4919601B490A601B4A1A60802212061A4B1A608022D202194B1A604022194B1A600132184B1A601849082000F00AFD082000F0F1FC256070BDC04643
:4019C00030001040001BB7000600008004010B400C020B4078002E40666600007C002E4064F02E406CF02E40DC050000000301400000014040FF00800403014041FF008011
:401A000008010B4000010B400801014004010140A127000010B572B600222F4B1A6000240FE02E486200131959000B00411889881A5AC31858880004104300F0FBFB013425
:401A4000E4B2012CEDD9254801000C31383000F0C7FBEE221206224B1A60224A224B1A60224A234B1A6099231B04224A1360224A1360C0210904214A1160214A1360214AB6
:401A8000214B1A6021490B783C22934314221343DBB20B701E4A117816230B43DBB21370D82212041B4B1A6028221B4B1A60C22292021A4B1A602023194A1360A221194A53
:401AC00011601949194A1160194A1360FFF728FF00F0A0FB10BDC0466CF02E40847A0100000002400030900000010240390099300003024000500F4010500F4018500F4094
:401B000030500F4000000C8038500F4001700F4000700F40080004400001044008010440180104400003044021108300080304401803044010B5064C2378002B07D1054B0B
:401B4000002B02D0044800E000BF0123237010BDA839002000000000DC790100084B10B5002B03D00749084800E000BF07480368002B00D110BD064B002BFBD09847F9E7C4
:401B800000000000AC390020DC790100303500200000000010B562B6022000F0C5FB00F06DFE00F04FFF084801F01AF800F07CFA002803D0052000F0B7FBFEE700F09AFA19
:401BC00003F0A8F9FAE7C0466D1E000070B586B005000C0000F0C4FB01235840C0B200F0ADFB8B4B1E786B780C2B00D909E19B00884AD3589F4600236268137001226168DC
:401C00004A70043261688A706268D37004336381FBE0052E03D1002001F042F8F5E0A28908231343A381F0E0032E02D101F064F8EBE0A28908231343A381E6E06B89062B50
:401C400004D0A28910231343A381DEE006226968606803F030F806236381052E06D1686800F0E6F8686801F053F8CEE0032E08D1012000F0EFF8686800F0DAF801F03CF8F6
:401C8000C3E0A28908231343A381BEE0042E04D0A28908231343A381B7E00EF095FE002804D0A28908231343A381AEE069680622606803F000F806236381A6E06B89062B57
:401CC00004D0A28910231343A3819EE006226968606802F0F0FF06236381022E0ED16968062203A802F0E7FF03A901A80EF068FC00F0D6F900780EF0EBFB86E0A2890823F2
:401D00001343A38181E06B89072B04D8A28910231343A38179E007226968606802F0CBFF072363810622696801A802F0C4FF01A968460EF045FC6B689A7903AE3281073397
:401D400003936B89073BB38000F0AAF9037840780002184331000FF007FD012806D0002853D0022807D003280AD00EE0A28910231343A38149E0A28940231343A38144E0A2
:401D8000A28920231343A3813FE0A389224A1343A3813AE06B89072B04D0A28910231343A38132E007226968606802F084FF072363816B689D7900F073F90378407800024D
:401DC000184329000FF06AFC012806D000281CD0022807D003280AD00EE0A28910231343A38112E0A28940231343A3810DE0A28920231343A38108E0A389074A1343A3816D
:401E000003E0A28904231343A381002006B070BD364C0020E07901000080FFFF10B500F09FFA01235840C0B200F088FA002010BD10B501000622024802F03DFF10BDC04662
:401E4000A44B002010B50622014902F034FF10BDA44B0020014B18707047C046C4390020014B1878C0B27047C4390020F0B5474680B49EB00C00412879D00AD8272863D075
:401E800002D8202816D0F8E028287CD02B2835D0F3E0522800D1C5E005D844285DD0492800D187E0E9E058286AD089235B00984262D0E2E00B78042B00D1DEE04A78496860
:401EC000257AE768267C02AC2370627006220A20684402F0F0FE25722A0039001120684402F0E9FE2B000933DBB20A35E654E9B200232200802000F005F9BEE0614B1B78F9
:401F0000032B00D1B9E0002300220021812000F0F9F8FFF7A5FF002800D1AEE00020FFF799FF02A8FFF78EFF02A800F0F1FE002800D1A2E06846FFF785FF00236A460621FF
:401F4000842000F0DFF898E04F4A1378507800021843E1210FF074FB8FE002A8FFF772FF002302AA0621822000F0CCF885E00222454802F0A0FE80E0444800F0D7F87CE04C
:401F8000072000F0D1F92378162B09D102A8FFF759FF002302AA0621832000F0B3F86CE002A8FFF74FFF002302AA0621842000F0A9F862E00E890B78984637000937BFB2D7
:401FC000380002F055FE051E1AD0314800F0AEF82800FFF737FF4346AB71330AEB712E72280009306168320002F065FE00232A003900862000F086F8280002F043FE3CE054
:40200000244800F093F82800FFF71CFF4346AB71330AEB712E7220231BAA0921862000F071F82AE00B7B98460F893E000936B6B2300002F01DFE051E1CD0FFF703FF4346B9
:40204000AB713B0AEB712F7261683A002800093002F031FE00232A003100872000F052F8002803D001000C4800F060F8280002F009FE02E0094800F059F81EB004BC90468D
:40208000F0BDC046364C0020A04B0020147A0100287A0100387A0100447A01005C7A010000487047A04B002010B50C4801F0CCFF002804D180218900084801F0D3FF002804
:4020C0000AD1064B064A1A65064A9A64064ADA64064A9A65064ADA6510BDC046AC4B0020E9290000F1290000FD2900001D1E0000CD1B000010B5024802F0C4F910BDC0463B
:40210000AC4B002010B51400074A507051819381002904D050680A00210002F0CCFD024802F026F910BDC046AC4B00200FB4F0B58DB0294B88225A7000229A8101243EE0CB
:40214000252B08D024494868511C8354129B01331293CAB233E04B1C12934B78782B2BD1661CA40012AB9C4664442168002500E01D006B1C0F240C40A8006F46C4510909B1
:40218000F6D1D90701D4012B10D89B00002168461950AB1C0AE0013B0F494868511C9C006D4664590D4D2C5D8454CAB2002BF2D1129B013312933400129B002B03D0129919
:4021C0000B78002BBCD10448428102F0D1F80DB0F0BC08BC04B01847AC4B0020707A0100F0B50025002711E0BB00C658F3B2FF22964308E06A008A181478A41952782270A5
:402200000135013BDBB2002BF4D10137042FEBD9F0BDC0460323044A1360044A13600022034B1A607047C0463000304030003140000E3F4010B50A00002102F05AFD10BDAA
:4022400010B502F0E9FC03680C2B00D1FEE7FEE710B50300094A1068C318094A9A1AC02149018A4202DC054A136005E002F0D4FC0C2303600120404210BDC0463435002041
:402280008050002070B50F4E0F4D13E029686B68AC68002202E001C901C30432A242FAD1E868002202E0002102C304328242FAD11035013E002EE9D102F0B4FCFFF76AFC05
:4022C000FEE7C046010000008C7C010010B5114A136801218B43136000230AE0032B03D89A000D49505800E00C4899000C4A885001332F2BF2D9FFF78DFB0A4B1B68002B68
:4023000002D10022074B1A60024A116801230B43136010BD00001040001900004122000000000020C000002010B507238343180000F020F800F024F810BDC04610B504001C
:4023400000F01EF804239843C0B2002C01D0002400E004240443200000F00CF8200010BD10B500F00DF80423184043425841C0B210BDC046014B18707047C04673000F4083
:40238000014B1878C0B2704773000F40024B1B68012018407047C0460C002E401F2318401E3B8340014A13607047C04600E100E01F2318401E3B8340014A13607047C046B3
:4023C00080E100E001BE704770B504000D001F2802D90020FFF7F6FF1034A40080239B059C4664442068256070BDC04670B504000E00032902D90020FFF7E4FF1F2C02D971
:402400000020FFF7DFFF03252540ED00063502F070F8A408A400074B9C46644421680323AB4099430B003100A9401943216002F064F870BD00E400E010B5040006E0084BB4
:40244000586802F04DF8074B9C46644480231B029C42F4D8024B9868604302F041F810BD383500200080FFFF10B5034B1B7B584302F036F810BDC04638350020F0B5574626
:402480004E46C0B483B0040002F033F80190E71E2D2F74D83F4B1B78DBB29C4208D83E4B1B78DBB29A463D4B1B78DBB2994631E03B4B1B78DBB29C4208D83A4B1B78DBB2F0
:4024C0009A46394B1B78DBB2994623E0374B1B78DBB29C4208D8364B1B78DBB29A46354B1B78DBB2994615E0334B1B78DBB29C4208D8324B1B78DBB29A46314B1B78DBB2AC
:40250000994607E02F4B1B78DBB29A462E4B1B78DBB299462D4BDE5D2F2E09D92A2C07D919222B4B1A60052001F0DAFF192503E0274B1D683F231D40B54206D9234BDA5D4F
:40254000234B1A60052001F0CBFF1F4B9C4664442378DBB21F4A13601F4B52461A601F4B4A461A600520FFF77FFFB5420AD2174BDA5D174B1A60052001F0B2FF02E0002001
:40258000FFF720FF019801F0B8FF03B00CBC91469A46F0BD40F3FF0F41F3FF0F42F3FF0F43F3FF0F44F3FF0F45F3FF0F46F3FF0F47F3FF0F48F3FF0F49F3FF0F4AF3FF0FE4
:4025C0004BF3FF0F4CF3FF0F4DF3FF0FD07A01002CFF0B4028FF0B401CFF0B4020FF0B4010B504000F4A116801230B4313600E4A0E4B1A600E4A1368802109020B43136006
:40260000002809D100200CE00120FFF72DFFFFF7BDFE002804D1013C002CF5D1102000E0002010BD60F02E400220000078002E4010002E40034B1868C0231B02184000D035
:402640000120704700010B4010B50D4B1A6801218A431A601A68022082431A60094A10683024A043203C204310601068093CA043014311601A68802109060A431A6010BDFF
:4026800000F02E4000FF2E4070B51D4B1B6801241C40002802D0012816D02BE0184B19680122914319601968022081431960154B19682E308143203801431960196809389C
:4026C00081430A431A6018E00D4B1A6802218A431A600C4A10680725A84301431160116830208143103801431160196801220A431A6002E00020FFF765FE200070BDC046D6
:4027000000F02E4000FF2E4010B501F0F2FE044A1368C02109020B43136001F0EEFE10BD00010B4010B501F0E4FE08490A68084B1A408024E40122430A600A6813408022F5
:40274000120213430B6001F0D8FE10BD00010B40FF3FFFFF70B5050001F0CBFE0400FFF769FF002803D0FFF7DDFF012100E0002108482840084A1568084B2B401843106022
:402780001368012901D1FFF7BFFF200001F0B5FE70BDC0460404040010020B40FBFBFBFF10B5244B1B685B0715D5234B5B685B070ED5224B596A042001401F4C62688A438E
:4027C00062605A6A82435A629B69002B00D098470420FFF7BFFF174B1B685B0518D5164B5B685B0510D5154B596A8022D2001140114842688A434260596A114A0A405A6203
:40280000DB69002B00D098478020C000FFF7A2FF084B1B685B030CD5074B5B685B0304D5064B1B6A002B00D098478020C002FFF791FF10BD10020B404C350020C83900209E
:40284000FFFBFFFF10B50A20FFF7A8FD10BDC04610B500F099F810BD10B500F01FF810BD10B5054A1368802109060B431360FFF7E9FFFFF7EDFF10BD0000254010B5064B4F
:402880001B78002B04D1FFF7E7FF0122024B1A70FFF7E6FF10BDC046F039002070B5204A204B1A600024204B1C60204A204B1A60204B214A13600721204A1160204A1460C0
:4028C0000639204A1160204A1360204B1C6004251F4B1D600A20FFF76BFD03210A20FFF785FD1C490A20FFF76FFD1B4B1C601B4B1C601B4B1C601B4B1C601B4B1D601B4BDA
:402900001C601A681A4B1A801A4B1C601A4B1C601A4B1C701A4B1C601A4B1C6070BDC0460B080002000025404000254001000A0048002540070000800003254004032540C0
:402940001003254044002540000225400402254050002540DD450000880E2540C80E2540480F2540080F2540C80F2540880F2540F8390020604C0020745000206C5000200A
:402980007050002068500020064A1168064B0B40902109040B431360044B1A88044B1A607047C04600030240FFFF0FFFF8390020880F254010B501F0C1FD002802D001F007
:4029C0009FFD00E00020054B1A68D8239B001A4203D01A00014B1A60002010BDC00F254010B501F0C1FD10BD10B501F0A7FD10BD10B5FFF7DFFFC0B210BDC04670B5050033
:402A00000E00002405E02878FFF7EAFF01350134E4B2A3B2B342F6D370BDC04610B500F075F810BD10B500F01DF810BD10B5044A1368802109060B431360FFF7EFFF10BD83
:402A40000000244010B5064B1B78002B04D1FFF7E9FF0122024B1A70FFF7E8FF10BDC046FA390020154A164B1A600023154A13601549164A1160164A16490A600720164961
:402A8000086016490B6006381549086015490A60154A13600421154A1160154A1360154A1360154A1360154A1360154A1360154A13601268144B1A807047C0460B00000228
:402AC000000024404000244001000A00480024400700008000032440040324401003244044002440000224400402244050002440880E2440C80E2440480F2440080F2440B1
:402B0000C80F2440880F2440FC390020064A1168064B0B40902109040B431360044B1A88044B1A607047C04600010240FFFF0FFFFC390020880F244010B50A4B1B88002B28
:402B400004D10E220021084802F0D3F8054BDB88002B04D106220021044802F0CAF801F0AFF810BDAC3500204C4C00203C4C002010B50022124B1A70124B1A70124B1A70C4
:402B800012494888124B18808888588088791873C97919710621D9812231198200245A82FA2189009982DA82013A1A831F32094B1A80FFF7C1FF084B1C70084B1C7010BDD3
:402BC0005C4C0020444C00205A4C002054350020184C0020324C00200C4C0020144C002030B591B00400142222490BA802F063F8214B1B78002B04D1FFF7BAFF01221E4BCF
:402C00001A70002C32D01D4B1C6008AC05AD099506AB089301222281FA321A805A80F73A1A7102F06DF908232B7016216944200002F04CFA00281AD1114B0293114B019338
:402C4000052300930BAB104A1049114802F094F900280CD101220F4B1A7007320E4B1A70013A0D210D4810F0A9FA00E0012011B030BDC046007B0100FE390020104C0020CB
:402C80007902000000FC030064340000C800002049390000364C0020374C0020147B010010B5022820D8002806D1104B14221A811C325A809A8009E0012807D10B4B0A2203
:402CC0001A81802212015A80F83A9A80084B187006480DF0D5FE002807D1064A117804230B43DBB2137000E0012010BD543500205A4C00205C4C002010B50DF0EBFE034A0A
:402D0000117808230B43DBB2137010BD5C4C002010B5134B1B78052B1CD100281DD0002305E0C15C0F4AD21851710133DBB2052BF7D983790B48C3720DF050FE041E0DD14A
:402D40000422074B1A70084B1888002806D00AF003FE03E00424FF3400E00124200010BD364C0020184C0020324C002010B50B4B1B78042B0ED10DF027FE0400084B1B8899
:402D8000002B01D00AF002FE002C05D10522034B1A7001E00424FF34200010BD364C0020324C002003784078000218437047C04670B5050083890D2B1FD1043033332A0044
:402DC000002110F013FA041E11D16868FFF7EAFF830706D50A4B1B68290082204000984705E0074B1B6829000620FF309847054A137801218B43137000E00024200070BD16
:402E0000104C00205C4C002010B5C288094B9A420FD1094B5B88002B05D18288064B5A8082781A7005E0811D044B1B6886204000984710BD052A00003C4C0020104C002004
:402E400010B58288084B9A420DD1084B9B88002B03D14288054B9A8005E0011D044B1B6886204000984710BD022900003C4C0020104C002010B5084B5A8883899A420AD15A
:402E8000064B1B680100832040009847044A137801218B43137010BD3C4C0020104C00205C4C0020074B00225A701A70064B1B78052B03D10732044B1A7002E00822024B5B
:402EC0001A707047484C0020374C002010B5C3883F4A93426CD007D83E4A93421DD058D8013A93420AD071E03B4A934233D03B4A93423FD03A4A934268D11DE0394B1B8880
:402F0000002B03D18288374B1A805FE0811D364B1B6886204000984758E0324B5B88002B03D182882F4B5A8050E0811D2E4B1B6886204000984749E02A4B1B89002B03D101
:402F40008288284B1A8141E0811D274B1B688620400098473AE0234B5B89002B03D18288204B5A8132E0811D1F4B1B688620400098472BE01B4B9B89002B03D18288194BA1
:402F80009A8123E0811D184B1B688620400098471CE0144B9B88002B03D18288114B9A8014E0811D104B1B688620400098470DE00C4BDB88002B03D182880A4BDA8005E034
:402FC000811D094B1B6886204000984710BDC046032A0000012A0000A62A0000C92A0000042A00004C4C0020104C002082B000236A4613805380094B1B78002B06D1084BA0
:403000005B8801331380074B1B895380009B180C00041B041B0C184302B070475B4C00203C4C0020AC35002010B504000378032B35D1204B1B789B0731D51F4B1B78022B98
:4030400011D0DAB2022A02D8012B05D01FE0032B10D0042B15D01AE0184B1B6800210820FF30984713E0154B1B6800218420400098470CE0114B1B6800210A20FF309847A6
:4030800005E00E4B1B680021852040009847094A137802218B4313700022074B1A702378042B05D1064B1B78042B01D1FFF75EFE10BDC0465C4C0020374C0020104C002089
:4030C000364C002010B582B00400FFF771FE0A4B1B78DB070ED4002809D001A912238B70A3890B80C87020680EF000FE02E020680EF074FE02B010BD5C4C00208379002B8C
:4031000007D000200BE0C25C002A07D10133DBB200E00023052BF6D9002000E001207047F0B54F464646C0B483B00600454B1B78012B00D080E0444B1B789B0700D47BE00D
:403140000789062F01D0142F70D173899846002464E073689946A1444B461B883B4A128893424AD3394A5288934248D8062F3CD101234A4613750023002531E001956800E8
:40318000401942003248821890884A469288904224D16800401941002D48085A00280AD16B00591948002A4B18180422494601F082FD012312E0012D08D8691C48004118C2
:4031C00048002349081881888A4207D04B46191D204B1B680C20FF30984701230135ADB2022D0DD8002BC9D00AE002234A461375484600F0A1FD002302E0002300E0002361
:40320000002B09D1104B1B78DB0705D5114B1B6849461220FF309847E419A4B2444598D3094A137801218B43137005E0094B1B6800210820FF30984703B00CBC9046994656
:40324000F0BDC046374C00205C4C0020384C0020AC350020104C0020F0B54F464646C0B487B0764B1B789B0700D4E1E0058947894468734B1B78032B68D163E02000FFF7F8
:4032800091FD6B461880A3786A469370E01CFFF789FD6B469880631D9846152D1ED102236A469375414610226B46981D01F003FD15239846A044634B1878420012185300B5
:4032C000614AD3189A88614B9A4232D0022830D1023880B2694600F065FD2AE0072D28D101236A4693754046FFF75CFD6B46D880E31D9846534B1878420012185300524A9C
:40330000D3189B88C0225201934203D0504A934204D007E06846FFF7D9FD0AE06846FFF773FD06E0022804D1023880B2694600F039FD424A137801218B4313707619B6B259
:40334000444600E00026BE4298D371E0022B6FD16BE02000FFF726FD6B461880A01CFFF721FD81466B465880201DFFF71BFD6B469880A31D9846062D22D102236A469375F2
:403380000EF0ECF9334A137850780002184349460EF084F9002807D12F490B006A4613CA13C313CA13C337E02C4B1B680021842040009847214A137802218B4313702BE0F0
:4033C000082D29D101236A4693754046FFF7EAFC01006B46D88008239846A044002319E05800C018420018488218928891420FD15A00D2185000144A825A002A08D1030040
:403400001148C01804326B46991C01F054FC03E001339BB2022BE3D9084A137801218B4313707619B6B2444600E00026BE4290D307B00CBC90469946F0BDC0465C4C002048
:40344000374C00205B4C0020AC350020FEFF000001180000484C0020003A0020104C0020F0B587B000236A465380254B1B78042B44D1244B1B789B0740D50689037B13752A
:40348000028869460A80012B01D1042700E01227456800242BE02800FFF784FC6B465880A81C1B7D022B0DD10100102201A801F002FC1235144B1B78012B16D1684600F0E8
:4034C0005FFD12E0FFF76EFC6B46988004350E4B1B78002B02D16846FFF7B2FC0A4B1B78012B02D1684600F04BFD3C19A4B2B442D1D3044A137801218B43137007B0F0BD1E
:40350000374C00205C4C00205B4C002030B583B0050001AB00221A805A802E4B1B78012B0ED0002D06D00133DBB22A4A1370012B06D104E00022274B1A70012500E00025F9
:40354000244B1B78012B04D1280000F0B7FC01900125204B1C78012C02D0FFF747FD019001AB1B881C4A1288934209D91A4949888B4205D801A949888A4201D88B4201D952
:40358000012CCAD9012C15D8144A137850780002184301A90EF022F8002819D0104B1B6800218520400098470E4A137802218B4313700DE005220C4B1A70094B1B68002139
:4035C000892040009847074A137802218B43137003B030BD5B4C0020384C0020484C0020104C00205C4C0020374C002010B5002804D0224A13780133137006E000221F4B2C
:403600001A7002E001331D4A13701C4B1B78022B0CD85A00D2185100194A8A5A194909888A42EFD3174949888A42EBD8022B1DD813495A00D3185A001348535A8A18518838
:403640000904194303784078000218430DF0DCFF002811D00D4B1B6800210A20FF3098470B4A137802218B43137005E00422094B1A700020FFF74AFF10BDC0465B4C002006
:40368000AC350020384C0020484C0020104C00205C4C0020374C002010B5002804D0214A13780133137008E000231E4A13701E4A138002E001331B4A13701A4B1B78022B48
:4036C0000CD85A00D2185100184A8A5A184909888A42EFD3164949888A42EBD8022B19D85A00D3185900114B5918124A13785078000218430DF0B4FF002811D00E4B1B68A2
:4037000000218420400098470C4A137802218B43137005E003220A4B1A700020FFF766FF10BDC0465B4C0020003A0020AC350020384C0020484C0020104C00205C4C00205B
:40374000374C002030B587B00400244B1B78022B42D1234B1B88002B3ED0214DA91C0422684601F0A8FA6168228901A801F0A3FA684600F0E1FA2B8801339BB26A461380C5
:40378000184A127851008A185100174A51184A8869464A80934214D8144A13785078000218430DF05DFF00280ED0114B1B6800218420400098470F4A137802218B4313707B
:4037C00002E00120FFF768FF0A4A137801218B4313700022024B1A8007B030BD374C0020003A00205B4C0020AC350020484C0020104C00205C4C002030B587B00400244B1E
:403800001B78022B42D1234B1B88002B3ED0214DA91C0422684601F04EFA6168228901A801F049FA684600F087FA2B8801339BB26A461380184A127851008A185100174AB3
:4038400051184A8869464A80934214D8144A13785078000218430DF003FF00280ED0114B1B6800218420400098470F4A137802218B43137002E00120FFF70EFF0A4A1378C0
:4038800001218B4313700022024B1A8007B030BD374C0020003A00205B4C0020AC350020484C0020104C00205C4C002010B51D4B1B789B0734D51C4B1B78022B16D0DAB227
:4038C000022A02D8012B05D02AE0032B17D0042B1ED025E00222144B1A700020FFF7DCFE104A137801218B43137019E00120FFF7D3FE0C4A137801218B43137010E00120E5
:40390000FFF774FE074A137801218B43137007E00120FFF7FBFD034A137801218B43137010BDC0465C4C0020374C002010B5054B1B789B0704D583790A2B01D1FFF7B6FF80
:4039400010BDC0465C4C0020F0B583B004000D00B94A117801230B43DBB21370412800D11EE123D8212800D1BCE00DD8022800D19BE002D8012841D08BE1052800D198E07A
:40398000062800D199E084E1282800D1CBE006D8242800D1B9E0272800D1BAE079E12B2800D1C4E0402800D12FE172E1492800D13AE111D8452800D118E106D8422800D1BC
:4039C00005E1432800D105E163E1462800D111E1472800D115E15CE1532800D119E106D84B2800D124E14C2800D1FBE051E1582800D103E1FA2800D146E14AE101AE0827C0
:403A0000377000237370300003F05CFA377001237370300003F056FA01F06EFA874B1E683000FFF76BFB002803D0300001F076FA21E0834B1F78834B18788001FC263601D8
:403A4000020032403F21394011437F4B1B781B03F8225202134019437C4B1B785B04FE22120413400B437A4803701A0A42701B0C837001F053FA00200CF0A2FE01AE7F230D
:403A800033700023737030000CF0B8FE714B33803200FB2100200CF015FD3188FB200CF0B8FE05226C4B1A70F3E02800FFF7BCFAEFE02A78694B1A70EBE02B78002B00D0E3
:403AC000E7E06B78002B07D1654B0022DA839A83644A9A6118336B60574A137801218B431370D6E0544B1B789B0600D5D1E05E4B1B7D102B02D105225B4BDA755B4B1878BF
:403B0000594914310CF030FCC3E06A78584B1A70BFE0584B1B88002B01D009F037FF02224D4B1A70B5E005224B4B1A70B1E04A4B1B78022B00D1ACE03F4A1278D20700D48F
:403B4000A7E03D4A1278520708D50322424B1A70394A137804218B4313709AE0364A1278120708D505223C4B1A70334A137808218B4313708DE0032B00D08AE00522364B06
:403B80001A703D4B1B78002B00D082E00120FFF787F8002800D07CE003222F4B1A7078E0324F02222900380001F085F800262B4B1E7039783D31FF314900304B5918013144
:403BC00002222F4801F077F82E4B1E7061E0FFF769F95EE06988E02900D9E12128880EF08FF856E02800FFF76DFA52E02800FFF797FA4EE02800FFF72FFB4AE0FFF756FE5C
:403C000047E02800FFF72CFC43E02800FFF78EFE3FE02800FFF72EF9074B1B78DB0738D428680DF0D3FC34E02800FFF78BFD30E02800FFF7E1FD2CE05C4C00206035002068
:403C40007CF2FF0F7DF2FF0F7BF2FF0F78F2FF0F6435002048080000364C0020444C0020003A00202C350020AC350020484C0020144C0020324C00205A4C002000FC03008A
:403C8000344C0020374C00200A4A117801230B431370094B1A7811231A4209D0064A137801218B431370054B1B6829002000984703B0F0BD0C4C00205C4C0020104C00203B
:403CC000F0B5002630E03000B31C5A00D3185A00174BD35A002B1ED024E00301154AD318DB682C011B1900221A80002308E0D7685900C9188A00BA180021118001339BB2DE
:403D000002010C498A18D2681219917A8B42EED30135ADB200E000250301064AD3185B7A9D42DAD30136B6B2002ECCD0F0BDC046AC350020C8350020F8B506000027002419
:403D400024E025002301144AD3181B7A022B1BD1311D2301D3185868102200F09DFF002812D102356B005B195A000C4BD35A002B0AD10A4B98180422310000F09CFF084AE6
:403D800013780133137001270134A4B2002C01D1002FD6D0F8BDC046C8350020AC3500205B4C0020F8B54F464646C0B406000F003E4B1B68002B09D03C4A9288824202D1FD
:403DC0000A88013A1A800022384B1A6000239846002450E0BD7D022D12D13301344AD318DA682301D3181A7A022A0CD1B91D58680E3200F051FF002808D00023994607E012
:403E00000023994604E00023994601E001239946012D11D13301264AD318DA682301D3181A7A012A08D1B91D5868013200F034FF002801D1012399464B46012B19D133016A
:403E40001B4AD318DA682301D2181188002910D1B98811803101164A5218D168C918B8784872D268D3180233104A13609680012398460134A4B233010D4AD3185B7A9C423A
:403E800002D24346002BA5D0084B1968002908D0084B1B785A00D3185A00074B9A1853880B800CBC90469946F8BDC046203A0020C83500205B4C0020AC35002030B583B092
:403EC00000236A461380538000281CD0284AD3885C1C11890A01274DAA18527A944202D2234AD48014E04A1C05D1214B013119810022DA800CE020490A7801320A70013382
:403F00001B4AD38004E01A4B00221A81DA80012017490B891A01174CA218547ACA8894420BD91B011349CB18D9681301CB18198801316D4629805B886B806B461B880F4906
:403F400009888B4209D90D4D6D88AB4205D86D466D88A94201D8AB4201D99442B4D8009B180C00041B041B0C184303B030BDC046203A0020C83500205B4C0020384C002047
:403F8000F8B54F464646C0B4060000239846002542E0377D022F12D16A0052199300E268944663441A7A022A0CD1311D58680E3200F072FE002808D00023994607E000231F
:403FC000994604E00023994601E001239946012F11D16A0052199300E268944663441A7A012A08D1311D5868013200F055FE002801D1012399464B46012B0BD1E1686A006E
:4040000052199300CB181A88002A03D172881A80012398460135EDB2094A13891B010949CB18DB68D48824011C19A37A9D4202D24346002BADD00CBC90469946F8BDC04622
:40404000203A0020C835002010B504006022002100F04FFE00234422A354243AA354002010BDC046F8B54F464646C0B404000E00836A4268816B002908D14169002908D1B3
:40408000002B09D1002A0AD100250AE08025ED0007E08025ED0004E08025ED0001E08025ED00002D40D13100012000F0ABFD071E02D101231D4334E0A063A68731000120B9
:4040C00000F0A0FD8046031E02D101331D4325E0606126833100012000F094FD8146031E02D101331D4316E0A062A68500224423E2543100012000F085FD002802D101238F
:404100001D4306E06060268100222023E254002D0AD000F0B7FD484600F0B4FD404600F0B1FD380000F0AEFD28000CBC90469946F8BDC0460023C38744330022C254704733
:404140000023438320330022C254704770B50400836C002B04D0036D002B04D0002504E080256D0101E080256D01A38F002B05D0A26B002A02D0E28F934201D801231D43A0
:40418000002D59D1236D9847002855D0A36C98474423E35C042B4FD89B002849CB589F46012802D002231D4346E00123E387A36B187044230122E2543EE0E38F5A1CE287F5
:4041C000A26BD054E38F042B36D1A26B93781B02D2781343E38503D103224433E2542BE002224423E25427E0E38F5A1CE287A26BD054E28FE38D04339A4203D1032244235A
:40420000E25419E09A4217D900224423E2543C3B1D4311E0E38F5A1CE287A26BD054E38D09339BB2E28F934206D104224423E25402E08023DB001D43280070BD507C0100BF
:404240007F2318401F280FD90300203BDBB21F2B0CD90300403BDBB21F2B09D96038C0B21F2809D8032304E0002302E0012300E002230B70002001E0802000067047C0467B
:4042800010B50022002304E0C45C121992B20133DBB29CB28C42F7D3504280B210BDC04670B50400438980229200934201D8002500E008250933228B934201D901231D431E
:4042C0002023E35C002B02D08023DB001D43002D4BD10123638362691370638B5A1C628362786169CA54628B531C638363891B0A61698B54638B5A1C628362896169CA549D
:40430000002308E0628B511C61836168C95C6069815401339BB262899342F3D3628B531C6383A3891B0A61698B54638B5A1C6283227B6169CA5466696189063189B230003C
:40434000FFF79EFF638B5A1C6283020AF254638B5A1C62836269D054638B5A1C6283AA226169CA54A93A2023E254280070BDC04670B50400FFF794FF05002023E35C012BBE
:4043800002D08023DB001D43E36C002B02D1802252011543002D08D1618B6069984700222023E2542000FFF7CBFE280070BDC04610B5040024302423E35C23704378637080
:4043C0000123A381002363812100E36D9847002805D1238E9B0702D42000FFF7C9FF10BD70B505004423C35C042B46D1836B1A78012A01D1002400E0022458782900243161
:404400004870FFF71DFF0443A96B8A781202CB781A43EA8580239B009A4202D9F93BFF3B1C43A86A002801D101231C43002C26D1043100F049FCE98D0E1DAB6B9C46664411
:40444000337872781B0213432B86063189B26046FFF716FFB378F2781B021343984202D080239B001C433379AA2B01D004231C432800FFF75FFE200002E0202000E020007A
:4044800070BDC046F8B50600036D984707000025002421E03000FFF759FE05434423F35C042B18D13000FFF79BFF054316D1B36D002B0CD030002430328ED20702D59847FA
:4044C00005430BE03000FFF773FF054306E080235B011D4302E00134BC42DBD32800F8BD0230800803D00138FDD1C046C046C0467047EFF3108072B6704780F31088704754
:404500000A4B1A680A4B1B689A420CD0084B1B680133084A934200D10023074AD05CC0B2034A136000E000207047C046604C00207450002001020000644E0020074B1B6829
:40454000074A1268934203D3054A1068181A04E0034A10681B1A034A98187047604C00207450002001020000154B1A68154B1B689A4208D1144B1B681F221340102B02D08A
:40458000124B18601BE00E4B1A68013280239B009A4200D100220B4B1B689A42FBD002230B490B60C0B20B49885405490A600A4A1268134203D1084A11680B431360704718
:4045C00070500020685000200802254040022540800F2540644C0020880F254010B5284B1B68002B00D09847264B1B685B071ED5254B1B680133254A934200D10023244A82
:404600001268934205D1234B1B682022224B1A7006E0204A1268D2B22049CA541A4A13601F4B1B68DB06E3D104221E4B1A601E4B1B689B0723D51D4B1A681D4B1B689A42BD
:4046400015D01B4B1B68013380229200934200D10023184AD25CD2B217490A60144A1360164B1B681F221340102BE4D104E0144A136802218B4313600222124B1A6010BD3B
:40468000F4390020CC0F2540604C00200102000074500020400325406C500020644E002008032540C00F25408C0F25407050002068500020644C0020400225400802254022
:4046C000880F2540800F254010B5FFF712FF044A136804218B43136030BFFFF70EFF10BD10ED00E00160704701607047324B1A781202324B1B781A43314B1B781B023149CD
:4047000009780B4330498B4201D1072A06D0D42109018B4206D1042A04D102E02B4B042200E02A4B2A490B602A4B1A602A4B1B781B022A4A1278134380229201934202D0F0
:40474000002B02D002E0264B00E0254B254A1360254B1B781B02254A12781343244A934205D0244A934204D0052B05D103E0224B02E0214B00E0204B204A1360204B1B685F
:404780001B09204A1268AA2A15D1012B13D9164B1B780E2B0FD11C4B1B781B021B4A127813431B4A13601B4B1B781B021A4A127813431A4A1360704759F1FF0F58F1FF0F47
:4047C0005FF1FF0F5EF1FF0F580B0000580D00006C002E4074002E405BF1FF0F5AF1FF0F0220000078002E405DF1FF0F5CF1FF0F0F0F000005050000050F000080002E40DE
:40480000EC0F00F0E00F00F06DF2FF0F6CF2FF0F84002E406FF2FF0F6EF2FF0F94002E4010B5FDF721FE10BD10B5FDF705FE10BD10B500F04FF810BD10B500F053F810BD40
:4048400010B500F04FF8034800F02EF8032000F031F810BD1149000010B5024800F04AF810BDC0461149000000487047020200002B2070472B2070472B2070472B207047FF
:404880002B2070472B2070472B2070472B2070472B2070472B2070472B2070477047C0460120704701207047014B18677047C0460000002010B50400FFF71BFE044A136834
:4048C000C0218B43A4011C431460FFF716FE10BD0CE400E080225201014B1A607047C04600E100E080225201014B1A607047C04680E100E010B50400FFF7F4FF2000FFF730
:40490000D3FF0320FFF7D6FFFFF7E4FF10BDC04610B513F04FF810BD002243088B4274D303098B425FD3030A8B4244D3030B8B4228D3030C8B420DD3FF22090212BA030C19
:404940008B4202D31212090265D0030B8B4219D300E0090AC30B8B4201D3CB03C01A5241830B8B4201D38B03C01A5241430B8B4201D34B03C01A5241030B8B4201D30B033C
:40498000C01A5241C30A8B4201D3CB02C01A5241830A8B4201D38B02C01A5241430A8B4201D34B02C01A5241030A8B4201D30B02C01A5241CDD2C3098B4201D3CB01C01A38
:4049C000524183098B4201D38B01C01A524143098B4201D34B01C01A524103098B4201D30B01C01A5241C3088B4201D3CB00C01A524183088B4201D38B00C01A524143081F
:404A00008B4201D34B00C01A5241411A00D20146524110467047FFE701B5002000F0F0F802BDC0460029F7D076E7704703460B437FD4002243088B4274D303098B425FD336
:404A4000030A8B4244D3030B8B4228D3030C8B420DD3FF22090212BA030C8B4202D31212090265D0030B8B4219D300E0090AC30B8B4201D3CB03C01A5241830B8B4201D313
:404A80008B03C01A5241430B8B4201D34B03C01A5241030B8B4201D30B03C01A5241C30A8B4201D3CB02C01A5241830A8B4201D38B02C01A5241430A8B4201D34B02C01A42
:404AC0005241030A8B4201D30B02C01A5241CDD2C3098B4201D3CB01C01A524183098B4201D38B01C01A524143098B4201D34B01C01A524103098B4201D30B01C01A5241C4
:404B0000C3088B4201D3CB00C01A524183088B4201D38B00C01A524143088B4201D34B00C01A5241411A00D201465241104670475DE0CA0F00D04942031000D34042534089
:404B400000229C4603098B422DD3030A8B4212D3FC22890112BA030A8B420CD3890192118B4208D3890192118B4204D389013AD0921100E08909C3098B4201D3CB01C01A0A
:404B8000524183098B4201D38B01C01A524143098B4201D34B01C01A524103098B4201D30B01C01A5241C3088B4201D3CB00C01A524183088B4201D38B00C01A5241D9D2FD
:404BC00043088B4201D34B00C01A5241411A00D20146634652415B10104601D34042002B00D54942704763465B1000D3404201B5002000F005F802BD0029F8D016E7704778
:404C00007047C04610B5034B0A000100186800F078F810BDA4390020014B18687047C046A43900200E4B70B500251E000D4CE41AA410A54204D0AB00F35898470135F8E7F8
:404C400013F012F8084B00251E00084CE41AA410A54204D0AB00F35898470135F8E770BD747C0100747C0100747C01007C7C010010B5034B0100186800F09EF810BDC04600
:404C8000A439002010B5034B0100186800F048F810BDC046A439002030B50024A24208D0035D651C0C5DA34201D0181B02E02C00F4E7002030BD002310B59A4203D0CC5CB6
:404CC000C4540133F9E710BD10B5884202D98B18984201D3002305E09B1A013A08D3995C8154FAE7934203D0CC5CC4540133F9E710BD03008218934202D019700133FAE7D7
:404D000070474A4370B51100140000F055F8051E03D022000021FFF7ECFF280070BD000070B50500002944D00C1F2368002B00DAE418280000F0B2F81E4A13681100002B3A
:404D400002D16360146031E0A3420DD92268A018834203D118685B688218226063600C6024E0A24203D813005A68002AF9D11E689819A0420BD121687118581819608242A4
:404D800014D110685268411819605A600EE0A04202D90C232B6009E021686018824203D1106852684118216062605C60280000F076F870BD9C4B0020032370B5CD1C9D4311
:404DC000083506000C2D01D20C2501E0002D01DBA94202D90C23336048E0300000F05EF8234B1C681A002100002913D00B685B1B0DD40B2B02D90B60CC181EE08C4202D121
:404E0000636813601AE04B6863600C0016E00C004968E9E7174C2368002B03D1300000F02BF820602900300000F026F8431C18D00323C41C9C43A0420DD12560300000F08D
:404E40002EF8200007220B30231D9043C31A0ED05A42E2500BE0211A300000F00DF8431CEBD10C233000336000F019F8002070BD9C4B0020984B0020002370B5064C05009D
:404E800008002360FDF7E4F9431C03D12368002B00D02B6070BDC0467850002070477047134A1088810703D08107890F401A001D11791030484381B25088820703D082079D
:404EC000920F801A001D800040180A494030098980B2CA0701D0503080B2890706D504495422091F09785143081880B270470000FA350020383A002010B501F0FBFE10BDD6
:404F000010B501F07FFF0BF00BFB10BD10B501F0F7FE10BD10B500F05BFA10BD10B50749044609780220002907D1204601F038FF002802D120460BF02DFD10BD8A3700205B
:404F400070B504460120002C12D02368002B0FD0616800290CD0074D06222889208118462968FFF7A8FE6968606809780170002070BD0000383A0020FFB585B000276846AF
:404F80000E9D07734F481C460078002802D0082009B0F0BD10990F9801900095029105A807C800F007F90028F2D16946264603AB84460873002C19D0002115E08A00B75A9F
:404FC000082F09D990198078002805D0083FB7521878401C187005E0002914D00027B75290198770491CC9B2A942E7D360460028CED10F98002809D0109901F02BFA0028F3
:4050000004D00120C4E701208446EFE701F078FE2D480021416081600599016021888180022D07D3A1798171A17AC171A1890181218A418100211EE0481C19E082008B00E3
:40504000A75AE65ABE46BE4211D26F463E80B4461E190296B678BE7001967646E6521719029EBB78B3706646A652019EBE70401CA842E3D3491CA942DED3134822460C3052
:4050800000906846037B0799069800F01BF90028B8D168460B4C007B60700B480C3001F05FFE0028AED1084907480C3108F00AFC0028A7D108F024FC0028A3D1012121708B
:4050C00066E70000F43500202C3A0020F8B5054636480F460078002802D002242046F8BD002F60D000243249002D16D02A89D0070DD02868002808D003881B3BE12B04D24B
:405100004088FB2801D81B2801D2012409E0900707D56868002804D1F7E70020088108604860002CDAD122482E8906811F481B21801D01804180042101711C490020891CEE
:405140000870F00705D019480622801D2968FFF7B2FD1749B00703D56A68144812788270124D0E46AD1D281F0D60486001F03EFE284601F02DFE30890FF0E6F930890EF018
:40518000FDFA28880EF000FB30890FF015FB03461033FFF785FE1F21C018890140183880A91F88809AE7012498E70000F4350020383A0020FFB58446384F1C460020BB8836
:4051C0003F78054602460646002F11D100290ED0029999420BD36146002908D0002C06D00A99002906D02E4B0B99994202D2012004B0F0BD002144E0AB001F19BF78002F85
:405200003BD0E35A002B38D07B43591889B22B0000F04AF8050410161C253100A7782388BC46FF27233BEB37BB4222D26346032B1FD322E0A388002B1FD0302B19D31CE0D5
:405240002389002B19D0282B13D316E0A289002A13D01346134F233BBB420AD20DE0268A002A0AD033460F4F233BBB4201D2964203D901200EE0002001E000280AD16D1C1F
:40528000EDB2099B9D42B7D31C2463435B1802998B42ACD89642AAD8AAE70000F435002079020000BAFF000030B47446641E2578641CAB4200D21D46635D5B00E31830BC34
:4052C00018470000FFB583B0002469460C801F4606468C80002806D00598002803D004983043800701D0012466E0002FFBD03449049809888842F6D3FFF7AEFAFFF79CFA83
:4053000000F012FC002855D100F062FD002851D12C49084601F0D2F805042D0C4AD12A480499066081800021C18007810C98007AC00704D0684601F0FCFC040007D10C987D
:40534000007A800703D501A801F0FCFC0446BF1DFEB2002C20D13146059800F05DF804001AD10FF037FA040016D16A461088928808368518144AF1B29088D288AEB29319B0
:40538000984207D3401B801A80B201F087FB050007D000E0FF25012400F05EFA002D04D008E0F8B200F01CF9F6E700F081FA07490120087000F0CAFB204607B0F0BD00000A
:4053C000F835002005550000443A00200036002010B503480078012801D101F001FA10BD0036002070B5084B0446DA889E8803205518B54206D8186880182060D888401881
:40540000D880002070BD0000443A00200148008970470000443A0020F0B587B007460D4600208900009006916846FFF7DBFF844600285DD1304800990160002117E02E4B15
:4054400088001A680629115406D22C4C0419667882185670628805E0C419203CA67A8218567022891B68C018491C4280C9B2A942E5D300242DE0601CC2B2059025E01E4FE8
:40548000A30039689600581840887118039604904E88B04217D938466F46FE80B6464F786E4677710297049F4F800168039F5E18767879184E700168764659184E800068C7
:4054C000029F18184770521CD2B2AA42D7D30598C4B2AC42CFD36046002809D168460699FFF780FF8446002802D1054900980860604607B0F0BD000004360020A07C0100FB
:40550000083600207047000010B5002809D005494A68002A05D0011F08788000105801F06BFA10BD0436002010B50446FFF76EFFC0B2801DA0420CD307484068002808D053
:40554000A100405801F0CAF9002801D00470001D10BD002010BD000004360020F8B516460D460446FFF752FFC0B2801DA04203D20020C0430090F8BDB2B2E9B2684601F0E7
:40558000D3F90099481C03D0024AA000526811500098F8BD04360020F8B50746FFF736FF801DC6B20A49002005460C680DE06178002907D06188B94202D32078FFF7B4FF75
:4055C000002804D1241D6D1CEDB2B542EFD3F8BD0436002010B5002801D0FFF795FF10BD70B506460948002504680BE06178002905D062882078121D0023FFF7AFFF241D9A
:405600006D1CEDB2B542F1D370BD000004360020FFB581B00A9F16000C4620D000F0F2F8054604281BD0002F0CD03846FFF7B4FF20492A0151184860002810D03A460499E2
:40564000FFF739FB1B4928010E504618778101980570200406D47D20C000444304E0FF2005B0F0BD6404640C00F0BAF80746042807D000F04FFAA0420BD800F04BFA201A33
:4056800003E0204600F0AAFA0020F06035720020E6E700F03FFA009000F0B6FA00980121001B009000F0ECF802493A0151180098C860E6E7503A0020F8B5060116483418F3
:4056C000217A042903D0E068002802D017E00020F8BD00F01FFA054600F096FA00F0A0F804280CD001010C480F18F8680021451900F0C6F80020F860284600F06FFA60688C
:40570000054D002801D0FFF765FF042020720020A8516081E060DAE7503A0020FEB500266A46304601232549050169180D7A042D02D0C96800291BD000211154401CC0B22E
:405740000428F0D300246846005D002830D01B48210108184189476805680291002101604160042241810272C160002E02D015E01354E3E700F054F804280ED001010F4860
:4057800008180190C6680021304600F079F801980021C160304600F021FA0126002D07D038460299A847002F02D03846FFF712FF641CE4B2042CC6D3FEBD0000503A0020B9
:4057C0000EB5002005216A460090118150810348694600680FF063FE0EBD00000C360020074A0020010189180B7A042B02D0C968002903D0401CC0B20428F3D370470000D0
:40580000503A00200549002002015218127A042A03D0401CC0B20428F6D37047503A002030B50A4B04200A4C00210A011219157A042D06D0D268002A03D09A4201D8084657
:405840001346491CC9B20429EFD330BDFFFF0000503A00207047000030B50020074C05460423020111190B72A5504D60401C4D81C0B2CD600428F4D330BD0000503A00204B
:4058800030B5094C00231A011219157A042D04D0D568002906D02D18D5605B1CDBB2042BF1D330BD2D1AF7E7503A0020002070471CB5002469460C70142001902346054AD4
:4058C00005480FF0F1FD04480068401C00D1FF2420461CBD2D5900000C3600203EB5124A0146FF2000230124126800290DD0012914D0042908D104206946009308814B81F7
:4059000010460FF0CCFD80B23EBD6846009304814381694610460FF0BDFDF4E768460093048143816946EBE70C36002070B545890468416800890300FFF7B6FC0828050912
:40594000091E22282628002006F0FEFA1EE0022908D0C8B22A4621460DF06AFE2046FFF739FE13E002202A4621460DF061FE2946204600F00DF809E000200FF08FFA05E088
:405980002046FFF7CBFE01E0FEF788FF002070BD014B0022DB6818471036002070B5448905680089022803D0032809D0FF2070BD2246094C0023A46829460120A04708E022
:4059C000FFF7A4FA241DA2B200232946022007F02CFE002070BD000010360020704700000248002141600180418070471036002070B50C46002186B016460391012802D01B
:405A0000022859D116E003A9012007F063FE01281BD1039D324621462846FFF74CF90095287801900220694608814E816846FFF7B5FF41E0214D002B686809D0049004A9CF
:405A4000022007F047FE01281DD0022006B070BD002812D0298840182146FFF72CF928880024801980B228806988091D884206D12C801348FFF792FF03E00320E6E78842EE
:405A80001AD96C6018E004986860E278A378110219430B4A698000231060E3565360032313815181A1788170E178C1706178417021780170042028800020C7E71036002076
:405AC000903A00203EB515460C46022803D004280CD000203EBD0091019002206946088107484A8100680FF0DAFC07E00DF0A0FD044B0022DB6829462046984701203EBD24
:405B00000C36002010360020014AD1609060704710360020034801688068081A0A214843000970479C3A002010B5FEF789FE4C2204490548FFF7BFF803490120C87000202F
:405B400010BD0000BC7C0100A03E002010B5FEF76FFE10BD70B5134C2368002B08D0207B1149C20705D04008400020738868A08070BD88680B4AA18880B29268814203D9F7
:405B80000A4D691A091802E0814202D2411A5118A160A080A0689842EAD30FF09DFC00F013F870BD9C3A0020C0102E40FFFF000010B508461946FFF7A7FF10BD704710B5A4
:405BC000FFF780FF10BD000003480021016041608160C160704700009C3A0020024610B5FF20002A0CD0FFF7EFFF064C0321207B0843207310010A21FEF714FF206000205D
:405C000010BD00009C3A002000B504480A21806848430209FFF7D8FF104600BD9C3A00200248007B8007C00F704700009C3A002010B54B490868002802DA4A4B01221A704A
:405C4000022290430860484800694549C00B4031096A0246C907C90F0A4259D0012000F07FFA3F480E216C30FEF73EFD3E4820218430FEF739FD3C4814219C30FEF734FDCD
:405C80003948FF21C131A430FEF72EFD3648FF212F31B030FEF728FD33483449BC30FEF723FD31483249AC30FEF71EFD30492E48491CB430FEF718FD2B482E49B830FEF783
:405CC00013FD29482C49CC30FEF70EFD26482B490830FEF709FD24482949A830FEF704FD214828498830FEF7FFFC1F4826498C30FEF7FAFC1C481921C9029030FEF7F4FCE4
:405D0000FEF7F4FCFEF7B0FDC0B2022812D01FE000290BD0002101420AD0114801216030FEF7E2FC0120FEF77FFD97E70121F2E7FF2010BD15491648FEF7D6FC144815490B
:405D4000001DFEF7D1FC124800210830FEF7CCFC54200449C043891C0870002010BD000000F02E402036002000002E40320300002F3F00003102000010520000EC1600008A
:405D8000FA12000031D000003AE300009956000080012E40F80F000070B50646581C80B245086D00002408E0304600F0A9F81055000A1119A41C4870A4B2AC42F4D3D807F5
:405DC00005D0D0182038D15CC47FD454C17770BD10B5FF2000F0C4F90F49FF2048700E481021801D41800121417001700A490020C91C4870FFF71CFF04000AD100F010F9AF
:405E000007210648FEF76EFC044807211830FEF769FC204610BD000020360020CC112E4070B5002405465B1E0AE0284600F068F8010A161971702D1D1055A41CADB2A4B28F
:405E40009C42F2DB9C4203D1284600F059F8105570BD000070B500210A4D5B1E0AE0541864782602545C344346193480001D891C80B289B29942F2DB994202D1515C40194F
:405E8000018070BD00102E40F0B50599091FCFB200217E1E0BE0541864782502545C2C43164D45192C80001D891C80B289B2B142F1DBFC0712D01C78515C24020F4A0C4345
:405EC00081180C809C785D78001D210280B2294384182180001D80B2D9780CE059781A7809021143054A84182180001DD9789B78090280B2194380180180F0BD00102E4041
:405F0000014940180088704700102E4010B50B490020487000F084F8002000F047F9002000F034F907210648FEF7DCFB044807211830FEF7D7FB002010BD000023360020ED
:405F4000CC112E4010B50B46062812D006DC01280CD0032801D1FFF7D9FF10BD0A28FCD00B28FAD105480078107010BDFFF730FF10BD1146184600F035F910BD2636002015
:405F8000F8B5244DAC6A0127A007234E002816DA307806280ED1286A384328621F480069F903084381B21D481030FEF79DFB042000F0D6F8174802212830FEF793FBE00767
:405FC00018D000F027FF01280FD1002000F074FF062000F0C5F81049FF20C91E48707078002802D1686B384368630A4801212830FEF778FBE0050BD53078042802D105206C
:4060000000F0AEF80348FF2101312830FEF76AFBF8BD000040F02E402336002000002E4010B503212348FEF75FFB0120FEF7F8FB20483038406A204C80076178800F890037
:4060400001431C480C38FEF74FFB6078002808D0401E022181401820FEF7CEFDC000083800E0B82081B21548FEF73EFB1348032109021438FEF738FB10481149B830FEF7E0
:4060800033FB612189010F48FEF72EFB0D480321001FFEF729FB0C490C48FEF725FB0B480B496038FEF720FB084801218838FEF71BFB10BD70F02E4026360020D8102E40C9
:4060C00090890000041E2E40FF0F000058122E40209000000848017806290BD140780749002803D1486B400840004863C86A01221043C862704700002336002040F02E4003
:4061000001480078704700002336002000B50300FFF7CAF8080D050D0B070507090D012000BD032000BD042000BD022000BDFF2000BD0000074A9168D26889B2064B92B2F5
:40614000994204D105498A4201D1012100E000210170704780002E4033D000003FE3000010B50446FEF768FB072C01D9FF2C01D102480470FEF75CFB10BD00002336002064
:4061800001494870704700002036002010B5064A012805D01921C9021046FEF7A5FA10BD1D21C902F8E7000090002E4010B50A4A141D012808D009491046FEF795FA084933
:4061C0002046FEF791FA10BD04491046891CFEF78BFA0349491DF3E788002E4031D000003AE3000070B50C460546FEF73DFBC0B202280E49287804D0FF2810D04C280CD8D5
:4062000010E0FF2809D10A4AD0680004800F032801D0087807E09069000A553803E00878207070BD4F382070087070BD2236002000002E40F0B50122002834D0002932D07A
:406240000424420600D00524792342065B06D21800D0641C034600221EE00C2516466E43124D00277519AF72104F002ABB51696007D0661EB24209D10D4E86197606760ED9
:4062800005E05E06760E8027BE1B00E080269B198919521C2E81D2B2A242DED303480549006B002288611046F0BD0000283D0020790200002C36002018B5002069460870D7
:4062C0000A48006900280ED0132149014018047E684604704F21C900054800F05BF8A04201D0012018BD002018BD00002C360020AC3A0020074900200C2242435218927ADB
:40630000012A05D0401CC0B20628F5D30020704701207047283D0020F8B50F000446164609D01A4D1A496868A04202D94018A04201D38E4201D90120F8BD39462046FEF76B
:40634000ABFC002820D0324639462046FEF7B3FC0E49F0B2012620318E7600210C220B4653430A4A9A1813895568EF18A74207D9641B1B1B9672834206DAC01A1469C0B258
:40638000491CC9B20629E9D30020F8BD283D002079020000034610B50020024604E09C5C2018521CC0B292B28A42F8D310BD000070B500F05FF8084C064A216907480D46EF
:4063C000FEF779FC05492846FFF734FFFFF774FF207070BD790200002C360020AC3A0020002070470020054A002902D0012902D002E0906000E0D060002070472C360020AD
:4064000070B5084C154608460549E26889182A46FEF751FCE0684019E06028B270BD0000AC3A00202C3600203EB50A226946FFF7E7FF044606480A2200686946FEF72CFC3D
:40644000002802D00020C0433EBD20463EBD000030360020002802D0044A914201D2FF20704703494A61086100207047790200002C360020024800218160C1607047000001
:406480002C36002070B5074C15460548A26880182A46FFF741FFA0684019A06028B270BDAC3A00202C36002010B503490A220968FFF7E8FF10BD00003036002010B50F4A06
:4064C000002313600E4A13600E4B18600E4801600E49012008600E490860000290600E490C4808600D4914300860FF381538506000F0BCF800F0CAF9002010BD60360020DF
:406500004836002074360020783600206436002054360020703E0020583600206C360020014610B50020002910D0094B1A689C685118A14209D25868196080188A0704D017
:406540008A07920F891A091D196010BD002010BD48360020F8B50024164E671E321F3D463168136806E01422624310328A58521C1BD0641C9C42F6D36A1C14D02C46142236
:40658000544322460C3288500C214843FFF7C8FF3168002808510AD031680020103408517068401C70602846F8BD2546E4E73846F8BD000058360020F3B50026F64381B091
:4065C00000281BDB1E490968884217D80299002914D01B4F142204463F1D54432546396810354859401C09D0FEF726F938682F1F4159C359994203DBFEF71AF93046FEBD96
:40660000214608310091465801590C20704308180C220299FEF74FFB0948761C001D0068C159B14200D100260549009A091D865008684159491C4151FEF7FAF80020FEBD17
:4066400054360020002803DB07490968884202D90020C043704704491422091D09685043103008587047000054360020F0B500200D4A451E0346171F50600FE0142601465E
:40668000714314680E1DA3510C461668083433511668083435511468401C635039688842ECD30020F0BD000058360020F3B50026F64381B0002841DB2349096888423DD853
:4066C000029900293AD0204F142204463F1D54432546396810354859401C2FD0FEF7ACF83868415900292BD0211D009146580C21005971430F46C1190C220298FEF7DBFA3E
:4067000011480021001D0068761C00590C34C0190160416081600C48001D00680159B14200D100260849009A091D865008684159491E4151FEF77CF80020FEBD3046FEBDF7
:40674000FEF776F8FAE7000054360020FEB504460D4600201E49089E0860471E009001900290002C11D0486885420ED2002A0CD0002E0AD0642E08D808460C3001681C201B
:4067800068430C18207A002801D03846FEBD0120226020721846FFF7DDFE6060401C13D06681A6810A4827610C3067610179A94200D205710021684601810A462846029B96
:4067C00000F040F82846FEBD00202072DDE700006036002038B50124009400F039F838BDFEB50027164EFF433D4600240EE01C20316860430818017A002906D04068FFF79B
:4068000021FF002801D0254603E0641C3079A042EDDA681C12D01C2130684D434419FEF70BF869466068FFF741FF0546FEF700F8002DD9D1216868468847D5E7FEBD0000C6
:406840006C36002038B50024009400F001F838BD1FB500220C49541E0A60002811DB496888420ED808491C220C31096850430818406801A9FFF7A0FE401C02D0002004B05F
:4068800010BD2046FBE7000060360020F0B50021114A4D1E174611710C3F0B46BD6016E008461C2460431668041D355114680646235014680836A3551468361DA3530446A1
:4068C00016680A34335318301468491C255078688142E5D30020F0BD6C36002038B500210091002811DB0F49097888420DDA0D4D04010C3529680859002807D0201D0818A3
:40690000694600F06FF9002801D0002038BDFDF793FF28680F34015D491E0155FDF788FF009838BD7C360020F7B582B0002502986E1E06602E48D21C024017462D4A2C4679
:4069400010460C380178106805E02301C358002B0FD0641CE4B28C42F7D3711C28D03401211D40180191039900F02AF900281FD101E02646F1E71F48016820460C300F520F
:406980001C480399026820460E30115419480399026820460F3011540398784300F0A0F8144900280968085102D00024009011E001251AE00F48016801980818009900F02D
:4069C0002CF9002801D0012502E00098C0190090641CE4B203988442ECD3002D05D10298066004480179491C0171284605B0F0BDFCFF000088360020F8B50D4600216A4620
:406A00008C461180002839DB23490978884235DA214B04010C3319680A59002A2ED020460C300B5A801C0E5C184670438018954224D3854222D2002006E007465F43BF182A
:406A4000AF4206D0401CC0B2B042F6D36046002814D0114E271DC8190C366A46294600F006F900280AD168460088012808D030682946C01900F0D1F8002803D00120F8BD9C
:406A80000020F8BDFDF7D8FE30680F34015D491C0155FDF7CDFEF3E77C360020F8B50F46002400F031F8002817D10C4900220B460C334A600EE021011D680E466A501D68B0
:406AC0000C36AA53B61C1D680F31AA551D68641C6A54E4B2BC42EED31A71F8BD7C36002000280BD0C01C074A81085068890053884118994203D89368516018187047002000
:406B0000704700007C360020F8B5064600200F4D009029700C0121466846FEF763FC00280CD129460C3100980860301B001F84B221466846FEF756FC002801D0FF20F8BD3E
:406B40006C800098A8600020F8BD00007C360020F8B5002827DB19490978884223DA174C05010C342168485900281CD028460C30085A009028460E300E5C401C0E54206882
:406B80002F1DC01900F064F800280CD12068002445590EE0094829460C300068C01900F03CF8002801D00120F8BD00982D18641CE4B2B442EED30020F8BD00007C360020A6
:406BC00030B50D4604000BD0A800FFF789FF6060002805D000202570C0436080002030BD012030BD70B50D46040005D0002D03D00220205E002801DA012070BDFDF71CFE98
:406C00000221615E60688900405828606088401E6080FDF70DFE002070BD70B50D46040007D0002D05D002212078615E401E814201DB012070BDFDF7FFFD6088401C00B28F
:406C40006080616880000D50FDF7F2FD002070BD10B5040009D0227800216068FEF749F80020C0436080002010BD012010BDF0B500231D46002802D00224045F0AE001206C
:406C8000F0BD46689F00F6598E4201D1012503E05B1CDBB29C42F4DA15700020F0BD00000148007870470000903600207CB505460024FEF72BF9A8796946087000A80622AF
:406CC00029460130FDF7F7FF0021684605F026FC0C2806D0072806D01F2806D0122806D006E0022404E0042402E0272400E0012420467CBD0148012141717047AC3F002020
:406D000010B500F0F7F9FFF7FBF9FFF7FFF910BD70B504460025FEF7F9F8002C06D0A079012803D8214602F09DFD00E00125284670BD01460120002902D050200880002061
:406D40007047000001460120002905D0034854220078504308800020704700009236002010B502460D49FE204870032410460EF0B9FE002810D10EF05DFE00280CD106F01B
:406D800005FD002808D100F0D1FB002804D105F095FE002800D10024204610BD9036002070B50025044600280ED0A07901280BD8FEF7ACF8A0790028204602D003F0A0F8FD
:406DC00003E003F075F800E00125284670BD0000014610B50120002904D006220248FDF76AFF002010BD00009C36002001460120002903D008780249087000207047000059
:406E00009236002010B505F005FB06F07BFB04F043FD10BD0148007970470000AC3F002038B504460120002C20D0617801291DD800290BD0FF25E535FEF768F80C48281828
:406E40000088C0B22070072803D00EE0FF25CD35F2E70020694608706846FFF76BF969460878012801D108202070002038BD000000102E40014A0021926810479036002032
:406E800008B500226B461A7026280CD0094A342852680BD0352805D1900703D50021352006F050FD08BD19462620F9E7D007F9D03420F5E790360020014908717047000075
:406EC000AC3F0020F8B504460120002C26D06178012902D92278092A20D8002905D0FF25E5352078092803D004E0FF25CD35F8E708202070FEF70AF82078114F114E0828B3
:406F00000DD00020FFF752F970780128207810D00D4969180880FE2070700020F8BD0120FFF744F90720B8810549203188800120F2E7B8810248217820308180EBE70000C4
:406F4000C0112E409036002000102E4070B50E46050001D0002400E00C4C002C11D0E28A500609D5D107C90F022003F0A3F8E08A40218843E08204E0D107C90F012003F016
:406F800099F83146284602F07BFD70BD0C3F0020F8B50546002004460D4E009013E022466946284600F02CFF0098002801D00EF07BFDA878214602F0A7FBA878214602F0DE
:406FC00095FB641CE4B2308AA042E8D8F8BD0000D43F0020F7B58E462249086820308078002802D08446002338E0FF20FEBD1D48212100680D5CE9000A1856799779D4797C
:4070000012794058B2420DD30EF04EFD1548006820304178491C8907890F41708178491E8170E2E78118B61A0098F6B20160BC4212D1A64204D290197146C0B20E7003E00E
:4070400010197146C0B20C700299EA000D70054909685118087103E05B1CDBB26345C6D30020FEBDDC360020064A02235188891C89B25180814201D8102900D95380508812
:4070800070470000A23600200148407870470000A2360020F8B50D460446FDF7CDFB144E3068034620339A78042A1CD0E178A77809020F431978521C491C8907890F1970BF
:4070C0009A70CA00845010184771316800205118087130681018C571306810188571FDF7A7FB0020F8BDFDF7A3FBFF20F8BD0000DC36002038B51E4CFFF702F8042813D068
:40710000052811D0062812D003282AD007280AD100206946087002460120FEF713FFFEF7EFFF0128FBD138BD00F0E1FB38BD02F057FB00F0DCFB02F0B7FB8007800F0228CE
:40714000F4D10C4841880029F0D05B21095D0029ECD101210170A07D0140022002F0AAFF38BD02F041FB0120FEF7FAFF38BD00000C3F0020A6360020F8B50646002402F031
:40718000F7FF0546304603F00DF803460A480021068A0DE001228A401046174628401F40002803D0002F01D1224394B2491CC9B28E42EFD82046F8BDD43F00201CB5002023
:4071C000694648706846FFF72BFE01AA69460A20FEF7B8FE6946042008561CBD70B50D4601F0BAF904000BD02079002808D0FDF78DFEE178A0782A4602F0D8FC002070BD1B
:40720000022070BD0148007970470000E03E00204030C07E002800D00120704700B500F001F800BD902148430749084A40186030417F491CC9B24177D289914201D300212E
