:400000000010002011000000550200005502000010B500F055FD00F025F9C04670B5154C23688022D20213432360182000F0E0FA2268114B13402360104A114B1A60202226
:40004000104B1A60103A104B1A60802212060F4B1A60002525600E4B0E4A13600E4A13600E49092000F05EFA092000F03BFA0C4B1D6070BD00010B40FFFFFBFF0600008084
:4000800004010B40080202400C02024008010B40100000800000024040000240010800000C020B4010B572B600240FE029486200131959000B00411889881A5AC31858884E
:4000C0000004104300F0C0F80134E4B2012CEDD9204801000C31343000F09CF81E4A1F4B1A6099221E4B1A6099231B041D4A13601D4A13601D4A13609C2212061C4B1A60AB
:400100001C490B783C22934314221343DBB20B70194A117816230B43DBB21370C0221204164B1A60C022D203154B1A607222154B1A60154A154B1A600223154A1360154A2B
:4001400013603121144A1160144A1360FFF766FF10BDC046A415000099EE33030C0001401000014000500F4020500F4030500F4038500F4001700F4000700F400800044009
:400180000802044000030440B14D1200080304401803044000040440080404401804044010B5064C2378002B07D1054B002B02D0044800E000BF0123237010BD5001002012
:4001C00000000000A0150000084B10B5002B03D00749084800E000BF07480368002B00D110BD064B002BFBD09847F9E70000000054010020A0150000C8000020000000005A
:4002000010B562B600F09AF8012000F055F900F0D9FEFEE7F0B50025002711E0BB00C658F3B2FF22964308E06A008A181478A419527822700135013BDBB2002BF4D101373A
:40024000032FEBD9F0BDC04610B50A00002101F09AF910BD10B501F061F903680C2B00D1FEE7FEE770B50F4E0F4D13E029686B68AC68002202E001C901C30432A242FAD187
:40028000E868002202E0002102C304328242FAD11035013E002EE9D101F046F9FFF7B0FFFEE7C04601000000A816000010B500230AE0032B03D89A000C49505800E00C48AE
:4002C00099000C4A885001332F2BF2D9FFF7EAFE094B1B68002B02D10022074B1A608022D205116801230B43136010BD000000005502000000000020C000002010B50A2053
:4003000000F0F0F810BDC04610B500F0AFF810BD10B500F0BDF810BD10B500F035F810BD10B5054A1368802109060B431360FFF7E5FFFFF7E9FF10BD0000064010B5064B22
:400340001B78002B04D1FFF7E7FF0122024B1A70FFF7E6FF10BDC0466C01002010B50A2000F0CAF8FFF7D4FF054A13685B005B0813600022034B1A600A2000F0C7F810BDE4
:4003800000000640880F064010B51F4A1F4B1A6000241F4B1C601F4A1F4B1A601F4B204A136007211F4A11601F4A146006391F4A11601F4A13601F4B1C600A2000F09CF802
:4003C00003210A2000F0C0F81B490A2000F0AAF81A4B1C601A4B1C601A4B1C601A4B1C6004221A4B1A601A4B1C601A68194B1A80194B1C60194B1C60194B1C70194B1C606D
:40040000194B1C6010BDC0460B000002000006404000064001000A00480006400700008000030640040306401003064044000640000206400402064041110000880E0640D5
:40044000C80E0640480F0640080F0640C80F0640880F064074010020A0010020340200202C020020300200202802002005490B68F0229343603A13430B60034B1A88034B94
:400480001A6070471000014074010020880F0640064A1368F0218B431360054B1A68E423DB001340034A13807047C04610000140880F06407401002010B5072383431800F7
:4004C00000F004F800F008F810BDC046014B18707047C04673000F40014B1878C0B2704773000F401F2318401E3B8340014A13607047C04600E100E01F2318401E3B83408B
:40050000014A13607047C04680E100E01F2318401E3B8340014A13607047C04680E200E001BE704770B504000D001F2802D90020FFF7F6FF1034A40080239B059C466444FE
:400540002068256070BDC04670B504000E00032902D90020FFF7E4FF1F2C02D90020FFF7DFFF03252540ED00063500F06FFDA408A400074B9C46644421680323AB40994337
:400580000B003100A9401943216000F063FD70BD00E400E0034A13681B041B0C02490B43136070470CED00E00400FA0510B5040006E0084B586800F03FFD074B9C46644481
:4005C00080231B029C42F4D8024B9868604300F033FD10BDCC0000200080FFFF10B5034B1B7B584300F028FD10BDC046CC000020F0B557464E46C0B483B0040000F026FD9E
:400600000190E71E2D2F74D83F4B1B78DBB29C4208D83E4B1B78DBB29A463D4B1B78DBB2994631E03B4B1B78DBB29C4208D83A4B1B78DBB29A46394B1B78DBB2994623E084
:40064000374B1B78DBB29C4208D8364B1B78DBB29A46354B1B78DBB2994615E0334B1B78DBB29C4208D8324B1B78DBB29A46314B1B78DBB2994607E02F4B1B78DBB29A4670
:400680002E4B1B78DBB299462D4BDE5D2F2E09D92A2C07D919222B4B1A60052000F0CCFC192503E0274B1D683F231D40B54206D9234BDA5D234B1A60052000F0BDFC1F4B20
:4006C0009C4664442378DBB21F4A13601F4B52461A601F4B4A461A600520FFF77FFFB5420AD2174BDA5D174B1A60052000F0A4FC02E00020FFF714FF019800F0ABFC03B0F8
:400700000CBC91469A46F0BDC0F1FF0FC1F1FF0FC2F1FF0FC3F1FF0FC4F1FF0FC5F1FF0FC6F1FF0FC7F1FF0FC8F1FF0FC9F1FF0FCAF1FF0FCBF1FF0FCCF1FF0FCDF1FF0FC0
:40074000E81500002CFF0B4028FF0B401CFF0B4020FF0B40034B1868C0231B02184000D00120704700010B4010B500F06FFC044A1368C02109020B43136000F06BFC10BDF0
:4007800000010B4010B500F061FC08490A68084B1A408024E40122430A600A6813408022120213430B6000F055FC10BD00010B40FF3FFFFF70B5050000F048FC0400FFF7E9
:4007C000C9FF002803D0FFF7DDFF012100E0002108482840084A1568084B2B40184310601368012901D1FFF7BFFF200000F032FC70BDC0460404040010020B40FBFBFBFF3C
:4008000010B5244B1B685B0715D5234B1B685B070ED5224BD969042001401F4C22688A432260DA698243DA611B69002B00D098470420FFF7BFFF174B1B685B0518D5164B1B
:400840001B685B0510D5154BD9698022D2001140114802688A430260D969114A0A40DA615B69002B00D098478020C000FFF7A2FF084B1B685B030CD5074B1B685B0304D57F
:40088000064B9B69002B00D098478020C002FFF791FF10BD10020B40E000002078010020FFFBFFFF002306E04218013A12789B189BB2013989B20029F6D1584280B2704756
:4008C0000047C04610B58022024B1A60FFF762FE10BDC046C0000020F0B583B00D006B469E1DDA8001230B7048701400AA70130ACB70171DB9B22800FFF7D4FFE855631D9F
:40090000000AE854A31D1722EA540734A1B296233200280000F0CCFC03B0F0BD70B505000E001400002802D00020FFF7F9FD002005E0013CAB19E3181B781818C0B2002CCD
:40094000F7D170BD70B5A0B0C5097F2304009C43002304E01A5D6E46F25401339BB27F2BF8D97F2318406B461B5C8B4206D06B4619542804000C694600F0BEFC20B070BDD5
:4009800010B50C2863D88000404B1B589F464B06591ACB013E4A9446634401225CE04B06591ACB013B4A94466344042254E04B06591ACB01384A9446634402224CE04B0684
:4009C000591ACB01354A94466344042244E04B06591ACB01324A9446634401223CE04B06591ACB012F4A94466344012234E04B06591ACB012C4A9446634402222CE04B06D9
:400A0000591ACB01294A94466344022224E04B06591ACB01264A9446634402221CE04B06591ACB01234A94466344042214E04B06591ACB01204A9446634401220CE04B0647
:400A4000591ACB011D4A94466344042204E00020FFF766FD02220023012A02D11878C0B200E00020022A03D11978587800020843042A09D11A785878000210439A781204F0
:400A80001043DB781B06184310BDC04618160000C07F0000C17F0000C57F0000C97F0000D07F0000D17F0000D67F0000D27F0000D47F0000D87F0000DC7F0000E07F00005F
:400AC00010B50D4B1B68DB0602D400220B4B1A600A4B1B68802B0ED10022084B1A6000210220FFF74DFF002805D000210220FFF747FFFFF7E5FE10BD00030B40C000002087
:400B000070B5050001000320FFF73AFF441CE40129000420FFF734FF241829000620FFF72FFF012828D029000320FFF729FF421CD2010023002608E01078411EC9B2FD2959
:400B400000D801261B18DBB20132A242F4D35B42DCB229000120FFF713FF84420ED1002E0ED06B065D1BE801064B9C4660440121FFF7E8FE002004E0002002E0062000E0F7
:400B8000062070BDD17F0000F0B55F4656464D464446F0B4BD4CA544050000F043FB62B600239A46984600930A240027002D01D1FF2300E02B00B64A02A98C4662449621DF
:400BC000490070A800F036FB002D01D0013CE4B2002C01D00028E9D1002800D0E0E1AC4B02AA944663441B88062B24D970AA1278012A22D170A9CA78120289780A4317007F
:400C0000110007329A421AD896235B009A4218D87A1D70AB9E5C3202381D1E5C164306315B5C172B0FD181B270A8FFF73BFE86420BD100260AE0042608E0042606E003262B
:400C400004E0032602E0042600E00826002E00D058E170AB1A7993465A781300313BD9B20A2900D91EE18B008A49CB589F464346012B00D048E1002F00D048E10020FFF756
:400C80003FFF4342434170AA1371012281E14346012B00D03EE1012F00D03EE15B46002B00D03DE17C4B1B681B68DA0BD2B2934503D1DB09FF22134005E0934501D9002359
:400CC00001E080235B0070AA13711B0A5371FF2393710023D37104225BE1342A0DD14346012B00D01FE1032F00D01FE14C32002125A800F048FC80239A464346012B00D034
:400D000017E1022F00D817E125A85044FA1EC021FF3102AB9C46614400F02CFC3B0053449BB2832B00D00AE170AA93791B02527913439A46FF2B00D90A26002E00D004E102
:400D40005B461F025744BFB2534B1B681A68D3099BB2520601D001339BB2BB4200D9F7E0009B002B0AD18022002105A800F00BFC05A9FF2000F0C0FA0123009325A9380046
:400D800000F0BAFA002800D1E8E000239A4680270A260022FDE04346012B00D1FEE004260022F6E04346012B00D0DCE05346FB1896225200934200D9D8E025A850443A0077
:400DC00071A900F0D7FB5346FB189BB29A460022DFE0002F00D0CCE005AA304B03CB03C271AA05AB03CB03C200239A46013398460822CEE04346012B00D0BDE0032F00D086
:400E0000BDE070AA93791B025279134399465B4619024944C9014B46FF2B00D90A26002E00D0AFE080220020FFF778FD030001905A4612024A4492B25946002911D1FF2A54
:400E40000FD10520FFF79CFDC0B2019B1B1ADBB2994600210620FFF793FDC3B24A46D31ADBB25B4270AA1371012292E00020FFF747FE002802D18022094B1A6000F0D6F98E
:400E8000FFF788FB0426002283E0C0460CFDFFFFE60200004C160000E400002078160000C0000020464B1E68002E6DD04346012B6DD102AB1A71DF8071AB04930C22002133
:400EC00005A800F060FB05AB9B4671AA0792190003A8B0475B469A882623FF339A4203D971AB0799994207D0079B002B01D1002A05D1059BDEB24CE00E26002249E00E26E8
:400F0000002246E0002244E00426002241E0042600223EE0042600223BE00426002238E00426002235E00426002232E0042600222FE0042600222CE00426002229E0002397
:400F40009A4680270326002223E08027002220E000239A4680270A2600221AE000239A468027002215E00426002212E0032600220FE0042600220CE00426002209E004260D
:400F8000002206E0002204E00526002201E00526002270A93000FFF79FFC01E000239A46002D00D102E64346012B00D1FEE5BD239B009D443CBC90469946A246AB46F0BD0C
:400FC0009801002070B50020FFF79AFD002801D0062400E00024154D2B681A68C03AC0210020FFF79BFC6B681B78C01AC0B24042C0B2834204D10D4B1B681B68002B02D1A4
:401000000020FFF78DFA0A4B1B68402B01D0002C05D00022064B1A600020FFF7B5FD1420FFF7B2FDFFF74EFC70BDC046E4000020C0000020000000000230800804D0C04685
:401040000138FDD1C046C046C0467047EFF3108072B6704780F310887047C046094B1A68094B1B689A420BD0074B1B680133412B00D10023054AD05CC0B2034A136000E02D
:4010800000207047A001002034020020E4010020074B1B68074A1268934203D3054A1068181A04E0034A10681B1A413318007047A001002034020020144B1A68144B1B68FE
:4010C0009A4208D1134B1B680F221340082B02D0114B186019E00D4B1A680132402A00D100220B4B1B689A42FBD002230B490B60C0B20B49885405490A600A4A12681342B9
:4011000003D1084A11680B431360704730020020280200200802064040020640800F0640A4010020880F064070B506000D00002403E0305DFFF7C0FF0134AC42F9D370BD10
:4011400010B5274B1B68002B00D09847254B1B685B071DD5244B1B680133412B00D10023224A1268934205D1214B1B682022214B1A7006E01E4A1268D2B21F49CA541A4A20
:4011800013601E4B1B681B07E4D104221C4B1A601C4B1B689B0721D51B4B1A681B4B1B689A4213D0194B1B680133402B00D10023174AD25CD2B217490A60144A1360164B57
:4011C0001B680F221340082BE6D104E0134A136802218B4313600222114B1A6010BDC04670010020CC0F0640A001002034020020400306402C020020E4010020080306401B
:40120000C00F06408C0F06403002002028020020A40100204002064008020640880F0640800F064010B5FFF789F810BD10B5FFF795F810BDF0B583B007000E000192002807
:401240002DD000292ED09A00D3185C00FFF720FF002811D0FFF71CFF0500AB20FFF7BEF9FFF716FF8542F5D1B54200D93500019B1D800023019308E00120FFF797F9013C64
:40128000002CE3D1002510230193002404E03E19FFF7E4FE30700134A542F8D804E00123019301E001230193019803B0F0BDC04670B50C001500002806D0002906D0FFF732
:4012C00033FF2C80002002E0012000E0012070BD024B1A68024B1A600020704708010B409C010020024B1A68024B1A60002070479C01002008010B40F0B5474680B4A6B007
:401300000500002325932493FF2800D9EFE0002900D1ECE0802204A800F02CF9022300200021002408E09A0002AE9259002A02D0891810431C000133212BF4D9002903D121
:40134000002803D1002602E0002600E00126002E06D0A30002AA9F58002202A95A5000E00027664B02937F230393654B02AA1A606449654A1160C0461B681B0F1B07F0226C
:401380001206934204D15E4B1B68FF2213400DE05B4B1B681B0F1B07A0221206934204D0574B1B68FF22134000E000232593259B002B00D09DE0FFF749FE0190FFF788FF0F
:4013C0002490259B002B25D1504A029202992A040A4302924A4A02A911604D484A490860C0461268120F1207F02109068A4204D1434B1B68FF2213400BE0414A1268120F2F
:401400001207A02109068A4203D03D4B1B68FF2213402593259B9846002B59D1002E57D08022002104A800F0AEF8A40002ABE750324B02937F230393314B02AA1A603149B2
:40144000314A1160C0461B681B0F1B07F0221206934205D12A4B1B68FF221A4090460CE0274B1B681B0F1B07A0221206934204D0234B1B68FF221A40904643462593259B9A
:40148000002B25D1234A0292029A2D04154302951B4A02A9116020481B490860C0461268120F1207F02109068A4204D1144B1B68FF2213400BE0124A1268120F1207A0210C
:4014C00009068A4203D00E4B1B68FF2213402593249B002B07D1FFF705FF2490249B002B01D0249B25930198FFF7B4FD01E004232593259826B004BC9046F0BDB6D7000031
:40150000080000400400008004000040B6D8000005000080B6D9000006000080014B18687047C0464C0100200E4B70B500251E000D4CE41AA410A54204D0AB00F358984721
:401540000135F8E700F09EF8084B00251E00084CE41AA410A54204D0AB00F35898470135F8E770BD90160000901600009016000098160000002310B59A4203D0CC5CC454EB
:401580000133F9E710BD03008218934202D019700133FAE77047000080170000AF0000000000000000300F40000400400F4000047307DB04DF01680269106B1080028910A3
:4015C0008F10E004590165406601810189408E01D603D801E001E40201000F4002320F4007330F400A430F40030405060708090A0B0C0E0F101112131415161718191B1C4B
:401600001D1E1F2021222325262728292A2B2E2F30313233343500004E0A00008E0900009E090000AE090000BE090000CE090000DE090000FE090000EE0900000E0A00003E
:401640001E0A00002E0A00003E0A00006E0C00008E0C0000A40E0000DA0C0000960D0000A40E0000A40D0000D20D0000DA0C0000F40D00006C0E00009311B604113C010123
:4016800043000000F8B5C046F8BC08BC9E467047C9010000AD020000F8B5C046F8BC08BC9E467047A1010000B8160000C800002088000000E8000000000000000100000019
:4016C0000000E02EC05D00001800000000366E0104040400981500009C15000000000000000000000000000000000000000000000000000000000000000000008016000002
:40170000000000000000000000000000000000000000000000000000000000000000000000000000000000000000000000000000000000000000000000000000EC0000209D
:401740000000000000000000000000000000000000000000000000000000000000000000000000000000000000000000000000000000000000000000000000000000000069
:401780000000000000000000000000000000000000000000000000000000000000000000000000000000000000000000000000000000000000000000000000000000000029
:4017C00000000000000000000000000000000000000000000000000000000000000000000000000000000000000000000000000000000000000000000000000000000000E9
:4018000000000000000000000000000000000000000000000000000000000000000000000000000000000000000000000000000000000000000000000000000000000000A8
:407FC000000000000000000000000000000000000000010001000000000000000000000000000000000000000000000000000000000000000000000000000000000000007F
:0200000490303A
:02000000708A04
:0200000490402A
:200000000000000000000000000000000000000000000000000000000000000000000000E0
:0200000490501A
:0C000000000204B61193110104BD821D22
:0200000490600A
:0100000001FE
:00000001FF