:400000000080002011000000DD020000DD02000010B500F03BFE00F069F9C04670B51222224B1A6000F026FC214801F0FDF8012000F040FC302000F037FB1E4A1E4B1A6060
:400040001E4C8025ED0525601D4A116802230B4313601C4A1C4B1A6000221C4B1A601C4A136808218B431360FA20C00000F0CEFB184800F00FFB88229201174B1A60174A38
:40008000174B1A6080221206164B1A608022D202154B1A604022154B1A601549082000F09DFA082000F07AFA256070BD30001040001BB7000600008004010B400C020B4077
:4000C00078002E40666600007C002E4064F02E406CF02E40DC0500000003014040FF00800000014008010B4000010B4008010140CD09000010B572B600222E4B1A600024CD
:400100000FE02D486200131959000B00411889881A5AC31858880004104300F0D9F80134E4B2012CEDD9244801000C31383000F0A5F8EE221206214B1A60C0229201204B6D
:400140001A60204A204B1A6099231B041F4A13601F4A1360C02109041E4A11601E4A13601E4A1F4B1A601F490B783C22934314221343DBB20B701C4A117816230B43DBB27F
:400180001370D8221204194B1A600822184B1A6080221201174B1A60A222174B1A60174A174B1A602022174B1A60FFF737FF00F07FF810BD6CF02E40841600000000024035
:4001C00000010240300099300003024000500F4010500F4018500F4030500F4000000C8038500F4001700F4000700F400800044000010440080104400003044020108300F0
:40020000080304401803044010B5064C2378002B07D1054B002B02D0044800E000BF0123237010BD580100200000000080160000084B10B5002B03D00749084800E000BF3B
:4002400007480368002B00D110BD064B002BFBD09847F9E7000000005C01002080160000C80000200000000010B562B600F0BAF8012000F08DF800F09FFFFEE7F0B50025A8
:40028000002711E0BB00C658F3B2FF22964308E06A008A181478A419527822700135013BDBB2002BF4D10137042FEBD9F0BDC0460323044A1360044A13600022034B1A60B2
:4002C0007047C0463000304030003140000E3F4010B50A00002101F0C6F910BD10B501F08DF903680C2B00D1FEE7FEE770B50F4E0F4D13E029686B68AC68002202E001C976
:4003000001C30432A242FAD1E868002202E0002102C304328242FAD11035013E002EE9D101F072F9FFF7A0FFFEE7C046010000009017000010B5114A136801218B43136027
:4003400000230AE0032B03D89A000D49505800E00C4899000C4A885001332F2BF2D9FFF7C9FE0A4B1B68002B02D10022074B1A60024A116801230B43136010BD0000104033
:4003800000000000DD02000000000020C000002010B507238343180000F0ECF800F0F0F810BDC04610B50A2000F0F8F810BDC04610B500F0B3F810BD10B500F0C5F810BD04
:4003C00010B500F035F810BD10B5054A1368802109060B431360FFF7E5FFFFF7E9FF10BD0000254010B5064B1B78002B04D1FFF7E7FF0122024B1A70FFF7E6FF10BDC04637
:400400007401002010B50A2000F0D2F8FFF7D4FF054A13685B005B0813600022034B1A600A2000F0CFF810BD00002540880F254070B5204A204B1A600024204B1C60204AD8
:40044000204B1A60204B214A13600721204A1160204A14600639204A1160204A1360204B1C6004251F4B1D600A2000F0A1F803210A2000F0C5F81C490A2000F0AFF81B4B45
:400480001C601B4B1C601B4B1C601B4B1C601B4B1D601B4B1C601A681A4B1A801A4B1C601A4B1C601A4B1C701A4B1C601A4B1C6070BDC0460B000002000025404000254015
:4004C00001000A0048002540070000800003254004032540100325404400254000022540040225405000254035130000880E2540C80E2540480F2540080F2540C80F25404F
:40050000880F25407C010020AC010020C0030020B8030020BC030020B4030020064A1168064B0B40902109040B431360044B1A88044B1A607047C04600030240FFFF0FFF35
:400540007C010020880F2540064A1168064B0B401360064B1A68E423DB001340044A13807047C04600030240FFFF0FFF880F25407C010020014B18707047C04673000F4027
:40058000014B1878C0B2704773000F40024B1B68012018407047C0460C002E401F2318401E3B8340014A13607047C04600E100E01F2318401E3B8340014A13607047C046D1
:4005C00080E100E01F2318401E3B8340014A13607047C04680E200E001BE704770B504000D001F2802D90020FFF7F6FF1034A40080239B059C4664442068256070BDC04679
:4006000070B504000E00032902D90020FFF7E4FF1F2C02D90020FFF7DFFF03252540ED00063500F00AFEA408A400074B9C46644421680323AB4099430B003100A940194399
:40064000216000F0FEFD70BD00E400E0034A13681B041B0C02490B43136070470CED00E00400FA0510B5040006E0084B586800F0DBFD074B9C46644480231B029C42F4D8A0
:40068000024B9868604300F0CFFD10BDCC0000200080FFFF10B5034B1B7B584300F0C4FD10BDC046CC000020F0B557464E46C0B483B0040000F0C1FD0190E71E2D2F74D836
:4006C0003F4B1B78DBB29C4208D83E4B1B78DBB29A463D4B1B78DBB2994631E03B4B1B78DBB29C4208D83A4B1B78DBB29A46394B1B78DBB2994623E0374B1B78DBB29C4282
:4007000008D8364B1B78DBB29A46354B1B78DBB2994615E0334B1B78DBB29C4208D8324B1B78DBB29A46314B1B78DBB2994607E02F4B1B78DBB29A462E4B1B78DBB29946B7
:400740002D4BDE5D2F2E09D92A2C07D919222B4B1A60052000F068FD192503E0274B1D683F231D40B54206D9234BDA5D234B1A60052000F059FD1F4B9C4664442378DBB2EB
:400780001F4A13601F4B52461A601F4B4A461A600520FFF77FFFB5420AD2174BDA5D174B1A60052000F040FD02E00020FFF714FF019800F046FD03B00CBC91469A46F0BD84
:4007C00040F3FF0F41F3FF0F42F3FF0F43F3FF0F44F3FF0F45F3FF0F46F3FF0F47F3FF0F48F3FF0F49F3FF0F4AF3FF0F4BF3FF0F4CF3FF0F4DF3FF0FD01600002CFF0B40B4
:4008000028FF0B401CFF0B4020FF0B4010B504000F4A116801230B4313600E4A0E4B1A600E4A1368802109020B431360002809D100200CE00120FFF72DFFFFF7A7FE002877
:4008400004D1013C002CF5D1102000E0002010BD60F02E400220000078002E4010002E40034B1868C0231B02184000D00120704700010B4010B50D4B1A6801218A431A6011
:400880001A68022082431A60094A10683024A043203C204310601068093CA043014311601A68802109060A431A6010BD00F02E4000FF2E4070B51D4B1B6801241C40002885
:4008C00002D0012816D02BE0184B19680122914319601968022081431960154B19682E3081432038014319601968093881430A431A6018E00D4B1A6802218A431A600C4AE1
:4009000010680725A84301431160116830208143103801431160196801220A431A6002E00020FFF759FE200070BDC04600F02E4000FF2E4010B500F080FC044A1368C02136
:4009400009020B43136000F07CFC10BD00010B4010B500F072FC08490A68084B1A408024E40122430A600A6813408022120213430B6000F066FC10BD00010B40FF3FFFFF5C
:4009800070B5050000F059FC0400FFF769FF002803D0FFF7DDFF012100E0002108482840084A1568084B2B40184310601368012901D1FFF7BFFF200000F043FC70BDC046B9
:4009C0000404040010020B40FBFBFBFF10B5244B1B685B0715D5234B5B685B070ED5224B596A042001401F4C62688A4362605A6A82435A629B69002B00D098470420FFF78F
:400A0000BFFF174B1B685B0518D5164B5B685B0510D5154B596A8022D2001140114842688A434260596A114A0A405A62DB69002B00D098478020C000FFF7A2FF084B1B68F4
:400A40005B030CD5074B5B685B0304D5064B1B6A002B00D098478020C002FFF791FF10BD10020B40E000002080010020FFFBFFFF002306E04218013A12789B189BB201392E
:400A800089B20029F6D1584280B270470047C04610B58022024B1A60FFF7D8FD10BDC046C0000020F0B583B00D006B469E1DDA8001230B7048701400AA70130ACB70171DD3
:400AC000B9B22800FFF7D4FFE855631D000AE854A31D1722EA540734A1B296233200280000F0E4FC03B0F0BD70B505000E001400002802D00020FFF76FFD002005E0013C85
:400B0000AB19E3181B781818C0B2002CF7D170BD70B5C0B0050AFF2304009C43002304E01A5D6E46F25401339BB2FF2BF8D9FF2318406B461B5C8B4206D06B461954280474
:400B4000000C694600F0C6FC40B070BD10B50C2863D88000404B1B589F460B06591A0B023E4A9446634401225CE00B06591A0B023B4A94466344042254E00B06591A0B02D9
:400B8000384A9446634402224CE00B06591A0B02354A94466344042244E00B06591A0B02324A9446634401223CE00B06591A0B022F4A94466344012234E00B06591A0B02E7
:400BC0002C4A9446634402222CE00B06591A0B02294A94466344022224E00B06591A0B02264A9446634402221CE00B06591A0B02234A94466344042214E00B06591A0B0255
:400C0000204A9446634401220CE00B06591A0B021D4A94466344042204E00020FFF7DCFC02220023012A02D11878C0B200E00020022A03D11978587800020843042A09D14C
:400C40001A785878000210439A7812041043DB781B06184310BDC04600170000C0FF0300C1FF0300C5FF0300C9FF0300D0FF0300D1FF0300D6FF0300D2FF0300D4FF03004B
:400C8000D8FF0300DCFF0300E0FF030010B50D4B1B68DB0602D400220B4B1A600A4B1B68802B0ED10022084B1A6000210220FFF74DFF002805D000210220FFF747FFFFF709
:400CC000E5FE10BD00030B40C000002070B5050001000320FFF73AFF441C240229000420FFF734FF241829000620FFF72FFF012828D029000320FFF729FF421C12020023CE
:400D0000002608E01078411EC9B2FD2900D801261B18DBB20132A242F4D35B42DCB229000120FFF713FF84420ED1002E0ED02B065D1B2802064B9C4660440121FFF7E8FEAA
:400D4000002004E0002002E0062000E0062070BDD1FF0300F0B55F4656464D464446F0B4C24CA544050000F05BFB62B600239A46984600930A240027002D01D1FF2300E076
:400D80002B00BB4A02A98C4662449621490090A800F04EFB002D01D0013CE4B2002C01D00028E9D1002800D0F4E1B14B02AA944663441B88062B24D990AA1278012A22D116
:400DC00090A9CA78120289780A431700110007329A421AD896235B009A4218D87A1D90AB9E5C3202381D1E5C164306315B5C172B0FD181B290A8FFF73BFE86420BD100266B
:400E00000AE0042608E0042606E0032604E0032602E0042600E00826002E00D068E190AB1A7993465A781300313BD9B20A2900D92EE18B008F49CB589F464346012B00D081
:400E400058E1002F00D058E10020FFF73FFF4342434190AA1371012295E14346012B00D04EE1012F00D04EE15B46012B00D94DE1814B1B681B685A0CD2B2934503D11B0A09
:400E8000DB05DB0D05E0934501D9002301E080239B0090AA13711B0A5371FF239371FE3BD37104226FE1342A0ED14346012B00D02FE1032F00D02FE1CC32002145A800F0F1
:400EC000D2FB80235B009A464346012B00D026E1022F00D826E145A85044FA1E674902AB9C46614400F0B6FB3B0053449BB20422FF32934200D018E190AA93791B0252794B
:400F000013439A465E4B9A4500D90A26002E00D012E15B465F02BFB25744BFB2564B1B681A68130A9BB2FF21114201D001339BB2BB4200D904E1009B002B0BD18022520054
:400F4000002105A800F08FFB05A94E4800F0C2FA0123009345A9380000F0BCFA002800D1F5E000239A4680277F000A2600220AE14346012B00D10BE10426002203E1434657
:400F8000012B00D0E9E05346FB1896225200934200D9E5E045A850443A0091A900F05AFB5346FB189BB29A460022ECE0002F00D0D9E005AA344B03CB03C291AA05AB03CB10
:400FC00003C200239A46013398460822DBE04346012B00D0CAE0032F00D0CAE090AA93791B025279134399465B46590249440902234B994500D90A26002E00D0BCE08022CF
:4010000052000020FFF770FD030001905A46520292B24A4492B25946012913D119498A4210D100210520FFF791FDC0B2019B1B1ADBB2994600210620FFF788FDC3B24A4641
:40104000D31ADBB25B4290AA137101229BE00020FFF73CFE002802D180220C4B1A6000F0E3F9FFF7F3FA042600228CE08CFCFFFF6603000034170000E80000203F02000055
:40108000FF010000FF03000060170000C0000020484B1E68002E71D04346012B71D102AB1A71DF8091AB04930C22002105A800F0DAFA05AB9B4691AA0792190003A8B0470E
:4010C0005B469A882623FF339A4203D991AB0799994207D0079B002B01D1002A05D1059BDEB250E00E2600224DE00E2600224AE0002248E00426002245E00426002242E041
:40110000042600223FE0042600223CE00426002239E00426002236E00426002233E00426002230E0042600222DE000239A4680277F000326002226E080277F00002222E03D
:4011400000239A4680277F000A2600221BE000239A4680277F00002215E00426002212E0032600220FE0042600220CE00426002209E00426002206E0002204E0052600224F
:4011800001E00526002290A93000FFF78BFC01E000239A46002D00D1EEE54346012B00D1EAE5DD239B009D443CBC90469946A246AB46F0BDA801002070B50020FFF786FDDB
:4011C000002801D0062400E00024154D2B681A68C03AC0210020FFF787FC6B681B78C01AC0B24042C0B2834204D10D4B1B681B68002B02D10020FFF7EFF90A4B1B68402B00
:4012000001D0002C05D00022064B1A600020FFF7A1FD1420FFF79EFDFFF73AFC70BDC046E8000020C00000200230800803D00138FDD1C046C046C0467047EFF3108072B638
:40124000704780F3108870470A4B1A680A4B1B689A420DD0084B1B6801330222FF32934200D10023054AD05CC0B2034A136000E000207047AC010020C0030020B00200207F
:40128000074B1B68074A1268934203D3054A1068181A04E0034A10681B1A981CFF307047AC010020C0030020154B1A68154B1B689A4208D1144B1B681F221340082B02D0CD
:4012C000124B18601BE00E4B1A68013280235B009A4200D100220B4B1B689A42FBD002230B490B60C0B20B49885405490A600A4A1268134203D1084A11680B43136070474B
:40130000BC030020B40300200802254040022540800F2540B0010020880F254070B506000D00002403E0305DFFF7BEFF0134AC42F9D370BD10B5294B1B68002B00D09847EF
:40134000274B1B685B071FD5264B1B6801330222FF32934200D10023234A1268934205D1224B1B682022224B1A7006E01F4A1268D2B22049CA541B4A13601F4B1B68DB06A7
:40138000E2D104221D4B1A601D4B1B689B0723D51C4B1A681C4B1B689A4215D01A4B1B68013380225200934200D10023174AD25CD2B217490A60144A1360164B1B681F22AD
:4013C0001340082BE4D104E0134A136802218B4313600222114B1A6010BDC04678010020CC0F2540AC010020C003002040032540B8030020B002002008032540C00F254043
:401400008C0F2540BC030020B4030020B00100204002254008022540880F2540800F254010B5FEF7DFFF10BD10B5FEF7EBFF10BDF0B583B007000E00019200282DD000297B
:401440002ED09A00D3185C00FFF71AFF002811D0FFF716FF0500AF20FFF71CF9FFF710FF8542F5D1B54200D93500019B1D800023019308E00120FFF7F5F8013C002CE3D1FB
:40148000002510230193002404E03E19FFF7DCFE30700134A542F8D804E00123019301E001230193019803B0F0BDC04670B50C001500002806D0002906D0FFF72FFF2C803E
:4014C000002002E0012000E0012070BD002070470020704730B5C5B004000023439342933D4B984272D8002970D08022520002A800F0B0F8394B9C4201D9394B00E0394B52
:401500000093FF230193384B6A461A603749384A1160C0461B681B0F1B07F0221206934204D1314B1B68FF2213400DE02E4B1B681B0F1B07A0221206934204D02A4B1B6876
:40154000FF22134000E000234393439B002B3FD1FFF773FE0500FFF7B9FF4290439B002B25D1244A0092009A2404144300941E4A6946116020481E490860C0461268120F0D
:401580001207F02109068A4204D1174B1B68FF2213400BE0144A1268120F1207A02109068A4203D0104B1B68FF2213404393429B002B07D1FFF78CFF4290429B002B01D058
:4015C000429B43932800FFF73CFE01E004234393439845B030BDC046FF030000FF010000B6D70001B6D70000080010400400008004001040B6D8000005000080014B186813
:401600007047C046500100200E4B70B500251E000D4CE41AA410A54204D0AB00F35898470135F8E700F0A2F8084B00251E00084CE41AA410A54204D0AB00F358984701351F
:40164000F8E770BD78170000781700007817000080170000002310B59A4203D0CC5CC4540133F9E710BD03008218934202D019700133FAE7704700000019000006000000AA
:401680000000000000300F40000400400F4000047307DB04DF0169806A086B0887088A048D405F108710D620E2105401610288018D02D604D802E001E408000001000F4094
:4016C00002320F4006330F4004410F4008430F40030405060708090A0B0C0E0F101112131415161718191B1C1D1E1F2021222325262728292A2B2E2F3031323334350000C1
:401700001A0C00005A0B00006A0B00007A0B00008A0B00009A0B0000AA0B0000CA0B0000BA0B0000DA0B0000EA0B0000FA0B00000A0C00003A0E00005A0E00009010000056
:40174000A60E0000700F0000901000007E0F0000AC0F0000A60E0000CE0F00004E100000AA116D1A003C010143000000F8B5C046F8BC08BC9E46704731020000350300006B
:40178000F8B5C046F8BC08BC9E46704709020000A0170000C8000020900000007002000000000000010000000000C05D80BB000030000000006CDC02F000000004040400E8
:4017C000781600007C16000000000000000000000000000000000000000000000000000000000000000000006817000000000000000000000000000000000000000000004A
:4018000000000000000000000000000000000000000000000000000000000000000000000000000000000000F0000020000000000000000000000000000000000000000098
:401840000000000000000000000000000000000000000000000000000000000000000000000000000000000000000000000000000000000000000000000000000000000068
:401880000000000000000000000000000000000000000000000000000000000000000000000000000000000000000000000000000000000000000000000000000000000028
:4018C00000000000000000000000000000000000000000000000000000000000000000000000000000000000000000000000000000000000000000000000000000000000E8
:401900000080002011190000D91B0000D91B000010B5024B83F3088800F066F90080002070B51222224B1A6000F030FB214800F02BFC012000F04AFB302000F041FA1E4ADA
:401940001E4B1A601E4C8025ED0525601D4A116802230B4313601C4A1C4B1A6000221C4B1A601C4A136808218B431360FA20C00000F0D8FA184800F019FA88229201174B05
:401980001A60174A174B1A6080221206164B1A608022D202154B1A604022154B1A601549082000F0D9F9082000F0CAF9256070BD30001040001BB7000600008004010B4052
:4019C0000C020B4078002E40666600007C002E4064F02E406CF02E40DC0500000003014040FF00800000014008010B4000010B4008010140E520000010B572B600222E4BCA
:401A00001A6000240FE02D486200131959000B00411889881A5AC31858880004104300F0D5F80134E4B2012CEDD9244801000C31383000F0A1F8EE221206214B1A60C022BC
:401A40009201204B1A60204A204B1A6099231B041F4A13601F4A1360C02109041E4A11601E4A13601E4A1F4B1A601F490B783C22934314221343DBB20B701C4A1178162343
:401A80000B43DBB21370D8221204194B1A600822184B1A6080221201174B1A60A222174B1A60174A174B1A602022174B1A60FFF737FF00F07BF810BD6CF02E4014220000EB
:401AC0000000024000010240300099300003024000500F4010500F4018500F4030500F4000000C8038500F4001700F4000700F400800044000010440080104400003044048
:401B000020108300080304401803044010B5064C2378002B07D1054B002B02D0044800E000BF0123237010BD500100200000000010220000084B10B5002B03D0074908487A
:401B400000E000BF07480368002B00D110BD064B002BFBD09847F9E7000000005401002010220000C80000200000000010B562B6002000F095F8FEE7F0B50025002711E06D
:401B8000BB00C658F3B2FF22964308E06A008A181478A419527822700135013BDBB2002BF4D10137042FEBD9F0BDC0460323044A1360044A13600022034B1A607047C046F4
:401BC0003000304030003140000E3F4010B50A00002100F015FB10BD10B500F0E5FA03680C2B00D1FEE7FEE770B50F4E0F4D13E029686B68AC68002202E001C901C3043278
:401C0000A242FAD1E868002202E0002102C304328242FAD11035013E002EE9D100F0CAFAFFF7A4FFFEE7C04601000000B422000010B5114A136801218B43136000230AE070
:401C4000032B03D89A000D49505800E00C4899000C4A885001332F2BF2D9FFF7CDFE0A4B1B68002B02D10022074B1A60024A116801230B43136010BD00001040001900000A
:401C8000D91B000000000020C000002010B507238343180000F040F800F044F810BDC04670B5060000250020FFF7F0FFFA246400200000F063F80120FFF7E8FF200000F0EC
:401CC0005DF80220FFF7E2FF200000F057F80420FFF7DCFF200000F051F80320FFF7D6FF200000F04BF80620FFF7D0FF200000F045F80520FFF7CAFF200000F03FF807201E
:401D0000FFF7C4FF200000F039F80135EDB2002EC9D0B542C7D370BD014B18707047C04673000F40014B1878C0B2704773000F40024B1B68012018407047C0460C002E40B5
:401D40001F2318401E3B8340014A13607047C04600E100E001BE704770B504000D001F2802D90020FFF7F6FF1034A40080239B059C4664442068256070BDC04610B50400DA
:401D800006E0084B586800F0FFF9074B9C46644480231B029C42F4D8024B9868604300F0F3F910BDCC0000200080FFFF10B5034B1B7B584300F0E8F910BDC046CC00002025
:401DC000F0B557464E46C0B483B0040000F0E5F90190E71E2D2F74D83F4B1B78DBB29C4208D83E4B1B78DBB29A463D4B1B78DBB2994631E03B4B1B78DBB29C4208D83A4BE4
:401E00001B78DBB29A46394B1B78DBB2994623E0374B1B78DBB29C4208D8364B1B78DBB29A46354B1B78DBB2994615E0334B1B78DBB29C4208D8324B1B78DBB29A46314B72
:401E40001B78DBB2994607E02F4B1B78DBB29A462E4B1B78DBB299462D4BDE5D2F2E09D92A2C07D919222B4B1A60052000F08CF9192503E0274B1D683F231D40B54206D9F0
:401E8000234BDA5D234B1A60052000F07DF91F4B9C4664442378DBB21F4A13601F4B52461A601F4B4A461A600520FFF77FFFB5420AD2174BDA5D174B1A60052000F064F9CF
:401EC00002E00020FFF746FF019800F06AF903B00CBC91469A46F0BD40F3FF0F41F3FF0F42F3FF0F43F3FF0F44F3FF0F45F3FF0F46F3FF0F47F3FF0F48F3FF0F49F3FF0F23
:401F00004AF3FF0F4BF3FF0F4CF3FF0F4DF3FF0F602200002CFF0B4028FF0B401CFF0B4020FF0B4010B504000F4A116801230B4313600E4A0E4B1A600E4A1368802109020B
:401F40000B431360002809D100200CE00120FFF72DFFFFF7EDFE002804D1013C002CF5D1102000E0002010BD60F02E400220000078002E4010002E40034B1868C0231B0233
:401F8000184000D00120704700010B4010B50D4B1A6801218A431A601A68022082431A60094A10683024A043203C204310601068093CA043014311601A68802109060A43E5
:401FC0001A6010BD00F02E4000FF2E4070B51D4B1B6801241C40002802D0012816D02BE0184B19680122914319601968022081431960154B19682E308143203801431960DE
:402000001968093881430A431A6018E00D4B1A6802218A431A600C4A10680725A84301431160116830208143103801431160196801220A431A6002E00020FFF78BFE2000E7
:4020400070BDC04600F02E4000FF2E4010B500F0A4F8044A1368C02109020B43136000F0A0F810BD00010B4010B500F096F808490A68084B1A408024E40122430A600A687D
:4020800013408022120213430B6000F08AF810BD00010B40FF3FFFFF70B5050000F07DF80400FFF769FF002803D0FFF7DDFF012100E0002108482840084A1568084B2B4069
:4020C000184310601368012901D1FFF7BFFF200000F067F870BDC0460404040010020B40FBFBFBFF10B5244B1B685B0715D5234B5B685B070ED5224B596A042001401F4C76
:4021000062688A4362605A6A82435A629B69002B00D098470420FFF7BFFF174B1B685B0518D5164B5B685B0510D5154B596A8022D2001140114842688A434260596A114A38
:402140000A405A62DB69002B00D098478020C000FFF7A2FF084B1B685B030CD5074B5B685B0304D5064B1B6A002B00D098478020C002FFF791FF10BD10020B40E000002021
:402180006C010020FFFBFFFF0230800803D00138FDD1C046C046C0467047EFF3108072B6704780F310887047014B18687047C046480100200E4B70B500251E000D4CE41A20
:4021C000A410A54204D0AB00F35898470135F8E700F05EF8084B00251E00084CE41AA410A54204D0AB00F35898470135F8E770BD9C2200009C2200009C220000A4220000D2
:4022000003008218934202D019700133FAE770470000000000300F40000400400F4000047307DB04DF0169806A086B0887088A048D405F108710D620E210540161028801CF
:402240008D02D604D802E001E408000001000F4002320F4006330F4004410F4008430F40030405060708090A0B0C0E0F101112131415161718191B1C1D1E1F202122232554
:40228000262728292A2B2E2F3031323334354300F8B5C046F8BC08BC9E467047351B0000311C0000F8B5C046F8BC08BC9E4670470D1B0000C8220000C800002088000000B1
:4022C000480000000000000000000000010000000000C05D80BB000030000000006CDC02F000000004040400000000000000000000000000000000000000000000000000C7
:4023000000000000000000008E22000000000000000000000000000000000000000000000000000000000000000000000000000000000000000000000000000000000000ED
:402340000000000000000000E80000200000000000000000000000000000000000000000000000000000000000000000000000000000000000000000000000000000000055
:40238000000000000000000000000000000000000000000000000000000000000000000000000000000000000000000000000000000000000000000000000000000000001D
:4023C00000000000000000000000000000000000000000000000000000000000000000000000000000000000000000000000000000000000000000000000000000000000DD
:40240000000000000000000000000000000000000000000000000000000000000000000000000000000000000000000000000000000000000000000000000000000000009C
:40244000000000000000000000000000000000000000000000000000000000000000000000000000000000000000000000000000000000000000000000000000000000005C
:020000040003F7
:40FFC000FE1119000018000000000B0000000000000001000000000000000000000000000000000000000000000000000000000000000000000000000000000000000000B5
:0200000490303A
:02000000E9BF56
:0200000490402A
:4000000000000000000000000000000000000000000000000000000000000000000000000000000000000000000000000000000000000000000000000000000000000000C0
:400040000000000000000000000000000000000000000000000000000000000000000000000000000000000000000000000000000000000000000000000000000000000080
:0200000490501A
:0C00000000021A6D11AA00011A77FB69BA
:0200000490600A
:0100000001FE
:00000001FF